Archive member included because of file (symbol)

ym/mbed-drivers/source/mbed-drivers.a(wait_api.c.o)
                              source/CMakeFiles/robotcode.dir/home/boogle/Final_Year/robotCode/source/app.cpp.o (wait)
ym/mbed-drivers/source/mbed-drivers.a(Serial.cpp.o)
                              source/CMakeFiles/robotcode.dir/home/boogle/Final_Year/robotCode/source/app.cpp.o (mbed::Serial::Serial(PinName, PinName, char const*))
ym/mbed-drivers/source/mbed-drivers.a(gpio.c.o)
                              source/CMakeFiles/robotcode.dir/home/boogle/Final_Year/robotCode/source/app.cpp.o (gpio_init_out)
ym/mbed-drivers/source/mbed-drivers.a(Stream.cpp.o)
                              ym/mbed-drivers/source/mbed-drivers.a(Serial.cpp.o) (mbed::Stream::close())
ym/mbed-drivers/source/mbed-drivers.a(retarget.cpp.o)
                              ym/mbed-drivers/source/mbed-drivers.a(Stream.cpp.o) (__cxa_pure_virtual)
ym/mbed-drivers/source/mbed-drivers.a(error.c.o)
                              ym/mbed-drivers/source/mbed-drivers.a(retarget.cpp.o) (error)
ym/mbed-drivers/source/mbed-drivers.a(I2C.cpp.o)
                              source/CMakeFiles/robotcode.dir/home/boogle/Final_Year/robotCode/source/app.cpp.o (mbed::I2C::I2C(PinName, PinName))
ym/mbed-drivers/source/mbed-drivers.a(exit.c.o)
                              /usr/bin/../lib/gcc/arm-none-eabi/4.9.3/../../../../arm-none-eabi/lib/armv7e-m/crt0.o (exit)
ym/mbed-drivers/source/mbed-drivers.a(FilePath.cpp.o)
                              ym/mbed-drivers/source/mbed-drivers.a(retarget.cpp.o) (mbed::FilePath::FilePath(char const*))
ym/mbed-drivers/source/mbed-drivers.a(Motor.cpp.o)
                              source/CMakeFiles/robotcode.dir/home/boogle/Final_Year/robotCode/source/app.cpp.o (Motor::Motor(PinName, PinName, PinName))
ym/mbed-drivers/source/mbed-drivers.a(NRF2401P.cpp.o)
                              source/CMakeFiles/robotcode.dir/home/boogle/Final_Year/robotCode/source/app.cpp.o (NRF2401P::NRF2401P(PinName, PinName, PinName, PinName, PinName))
ym/mbed-drivers/source/mbed-drivers.a(FXOS8700Q.cpp.o)
                              source/CMakeFiles/robotcode.dir/home/boogle/Final_Year/robotCode/source/app.cpp.o (FXOS8700Q::~FXOS8700Q())
ym/mbed-drivers/source/mbed-drivers.a(SerialBase.cpp.o)
                              ym/mbed-drivers/source/mbed-drivers.a(retarget.cpp.o) (mbed::SerialBase::baud(int))
ym/mbed-drivers/source/mbed-drivers.a(FileLike.cpp.o)
                              ym/mbed-drivers/source/mbed-drivers.a(Stream.cpp.o) (mbed::FileLike::FileLike(char const*))
ym/mbed-drivers/source/mbed-drivers.a(FileSystemLike.cpp.o)
                              ym/mbed-drivers/source/mbed-drivers.a(retarget.cpp.o) (mbed::FileSystemLike::opendir())
ym/mbed-drivers/source/mbed-drivers.a(FileBase.cpp.o)
                              ym/mbed-drivers/source/mbed-drivers.a(FileLike.cpp.o) (mbed::FileBase::~FileBase())
ym/mbed-drivers/source/mbed-drivers.a(SPI.cpp.o)
                              ym/mbed-drivers/source/mbed-drivers.a(NRF2401P.cpp.o) (mbed::SPI::SPI(PinName, PinName, PinName))
ym/mbed-drivers/source/mbed-drivers.a(board.c.o)
                              ym/mbed-drivers/source/mbed-drivers.a(exit.c.o) (mbed_die)
ym/minar/source/minar.a(minar.cpp.o)
                              source/CMakeFiles/robotcode.dir/home/boogle/Final_Year/robotCode/source/app.cpp.o (minar::Scheduler::CallbackAdder::period(unsigned long))
ym/core-util/source/core-util.a(ExtendablePoolAllocator.cpp.o)
                              ym/minar/source/minar.a(minar.cpp.o) (mbed::util::ExtendablePoolAllocator::ExtendablePoolAllocator())
ym/core-util/source/core-util.a(assert_mbed.c.o)
                              ym/minar/source/minar.a(minar.cpp.o) (core_util_runtime_error_internal)
ym/core-util/source/core-util.a(PoolAllocator.cpp.o)
                              ym/core-util/source/core-util.a(ExtendablePoolAllocator.cpp.o) (mbed::util::PoolAllocator::alloc())
ym/mbed-hal-ksdk-mcu/source/mbed-hal-ksdk-mcu.a(serial_api.c.o)
                              ym/mbed-drivers/source/mbed-drivers.a(SerialBase.cpp.o) (serial_init)
ym/mbed-hal-ksdk-mcu/source/mbed-hal-ksdk-mcu.a(fsl_clock_manager.c.o)
                              ym/mbed-hal-ksdk-mcu/source/mbed-hal-ksdk-mcu.a(serial_api.c.o) (g_simBaseAddr)
ym/mbed-hal-ksdk-mcu/source/mbed-hal-ksdk-mcu.a(fsl_sim_hal.c.o)
                              ym/mbed-hal-ksdk-mcu/source/mbed-hal-ksdk-mcu.a(fsl_clock_manager.c.o) (CLOCK_HAL_SetSource)
ym/mbed-hal-ksdk-mcu/source/mbed-hal-ksdk-mcu.a(fsl_mcg_hal.c.o)
                              ym/mbed-hal-ksdk-mcu/source/mbed-hal-ksdk-mcu.a(fsl_clock_manager.c.o) (CLOCK_HAL_GetFllRefClk)
ym/mbed-hal-ksdk-mcu/source/mbed-hal-ksdk-mcu.a(i2c_api.c.o)
                              ym/mbed-drivers/source/mbed-drivers.a(I2C.cpp.o) (i2c_start)
ym/mbed-hal-ksdk-mcu/source/mbed-hal-ksdk-mcu.a(fsl_uart_hal.c.o)
                              ym/mbed-hal-ksdk-mcu/source/mbed-hal-ksdk-mcu.a(serial_api.c.o) (UART_HAL_Init)
ym/mbed-hal-ksdk-mcu/source/mbed-hal-ksdk-mcu.a(pinmap.c.o)
                              ym/mbed-hal-ksdk-mcu/source/mbed-hal-ksdk-mcu.a(serial_api.c.o) (pin_mode)
ym/mbed-hal-ksdk-mcu/source/mbed-hal-ksdk-mcu.a(us_ticker.c.o)
                              ym/mbed-drivers/source/mbed-drivers.a(wait_api.c.o) (us_ticker_read)
ym/mbed-hal-ksdk-mcu/source/mbed-hal-ksdk-mcu.a(gpio_api.c.o)
                              ym/mbed-drivers/source/mbed-drivers.a(gpio.c.o) (gpio_init)
ym/mbed-hal-ksdk-mcu/source/mbed-hal-ksdk-mcu.a(pwmout_api.c.o)
                              ym/mbed-drivers/source/mbed-drivers.a(Motor.cpp.o) (pwmout_write)
ym/mbed-hal-ksdk-mcu/source/mbed-hal-ksdk-mcu.a(fsl_gpio_hal.c.o)
                              ym/mbed-hal-ksdk-mcu/source/mbed-hal-ksdk-mcu.a(gpio_api.c.o) (GPIO_HAL_SetPinDir)
ym/mbed-hal-ksdk-mcu/source/mbed-hal-ksdk-mcu.a(spi_api.c.o)
                              ym/mbed-drivers/source/mbed-drivers.a(SPI.cpp.o) (spi_format)
ym/mbed-hal-ksdk-mcu/source/mbed-hal-ksdk-mcu.a(fsl_ftm_hal.c.o)
                              ym/mbed-hal-ksdk-mcu/source/mbed-hal-ksdk-mcu.a(pwmout_api.c.o) (FTM_HAL_EnablePwmMode)
ym/mbed-hal-ksdk-mcu/source/mbed-hal-ksdk-mcu.a(fsl_dspi_hal.c.o)
                              ym/mbed-hal-ksdk-mcu/source/mbed-hal-ksdk-mcu.a(spi_api.c.o) (DSPI_HAL_SetBaudRate)
ym/mbed-hal-ksdk-mcu/source/mbed-hal-ksdk-mcu.a(fsl_i2c_hal.c.o)
                              ym/mbed-hal-ksdk-mcu/source/mbed-hal-ksdk-mcu.a(i2c_api.c.o) (I2C_HAL_Init)
ym/minar-platform-mbed/source/minar-platform-mbed.a(mbed_platform.cpp.o)
                              ym/minar/source/minar.a(minar.cpp.o) (minar::platform::init())
ym/mbed-hal-k64f/source/mbed-hal-k64f.a(startup_MK64F12.S.obj)
                              (Reset_Handler)
ym/mbed-hal-k64f/source/mbed-hal-k64f.a(fsl_clock_K64F12.c.o)
                              ym/mbed-hal-ksdk-mcu/source/mbed-hal-ksdk-mcu.a(serial_api.c.o) (CLOCK_SYS_GetUartFreq)
ym/mbed-hal-k64f/source/mbed-hal-k64f.a(fsl_sim_hal_K64F12.c.o)
                              ym/mbed-hal-ksdk-mcu/source/mbed-hal-ksdk-mcu.a(pinmap.c.o) (SIM_HAL_EnablePortClock)
ym/mbed-hal-frdm-k64f/source/mbed-hal-frdm-k64f.a(init_api.c.o)
                              ym/mbed-drivers/source/mbed-drivers.a(retarget.cpp.o) (mbed_hal_init)
ym/mbed-hal-frdm-k64f/source/mbed-hal-frdm-k64f.a(PeripheralPins.c.o)
                              ym/mbed-hal-ksdk-mcu/source/mbed-hal-ksdk-mcu.a(pwmout_api.c.o) (PinMap_PWM)
ym/mbed-drivers/source/mbed-drivers.a(us_ticker_api.c.o)
                              ym/mbed-hal-ksdk-mcu/source/mbed-hal-ksdk-mcu.a(us_ticker.c.o) (us_ticker_irq_handler)
ym/mbed-drivers/source/mbed-drivers.a(pinmap_common.c.o)
                              ym/mbed-hal-ksdk-mcu/source/mbed-hal-ksdk-mcu.a(serial_api.c.o) (pinmap_pinout)
ym/mbed-drivers/source/mbed-drivers.a(ticker_api.c.o)
                              ym/mbed-drivers/source/mbed-drivers.a(us_ticker_api.c.o) (ticker_irq_handler)
ym/mbed-hal-ksdk-mcu/source/mbed-hal-ksdk-mcu.a(sleep.c.o)
                              ym/minar-platform-mbed/source/minar-platform-mbed.a(mbed_platform.cpp.o) (mbed_enter_sleep)
ym/mbed-hal-ksdk-mcu/source/mbed-hal-ksdk-mcu.a(fsl_smc_hal.c.o)
                              ym/mbed-hal-ksdk-mcu/source/mbed-hal-ksdk-mcu.a(sleep.c.o) (SMC_HAL_SetProtection)
ym/mbed-hal-ksdk-mcu/source/mbed-hal-ksdk-mcu.a(lp_ticker.c.o)
                              ym/minar-platform-mbed/source/minar-platform-mbed.a(mbed_platform.cpp.o) (lp_ticker_init)
ym/mbed-hal-ksdk-mcu/source/mbed-hal-ksdk-mcu.a(fsl_rtc_hal.c.o)
                              ym/mbed-hal-ksdk-mcu/source/mbed-hal-ksdk-mcu.a(lp_ticker.c.o) (RTC_HAL_Enable)
ym/ualloc/source/ualloc.a(ualloc.c.o)
                              ym/minar/source/minar.a(minar.cpp.o) (mbed_ualloc)
ym/dlmalloc/source/dlmalloc.a(dlmalloc.c.o)
                              ym/ualloc/source/ualloc.a(ualloc.c.o) (dlmalloc)
ym/cmsis-core-k64f/source/cmsis-core-k64f.a(system_MK64F12.c.o)
                              ym/mbed-hal-k64f/source/mbed-hal-k64f.a(startup_MK64F12.S.obj) (SystemInit)
ym/uvisor-lib/source/uvisor-lib.a(uvisor.o)
                              ym/mbed-hal-k64f/source/mbed-hal-k64f.a(startup_MK64F12.S.obj) (uvisor_init)
ym/uvisor-lib/source/uvisor-lib.a(interrupts.cpp.o)
                              ym/mbed-hal-ksdk-mcu/source/mbed-hal-ksdk-mcu.a(serial_api.c.o) (vIRQ_SetVector)
ym/uvisor-lib/source/uvisor-lib.a(disabled.cpp.o)
                              ym/uvisor-lib/source/uvisor-lib.a(interrupts.cpp.o) (uvisor_disabled_set_vector)
ym/uvisor-lib/source/uvisor-lib.a(error.cpp.o)
                              ym/uvisor-lib/source/uvisor-lib.a(disabled.cpp.o) (uvisor_error)
/usr/bin/../lib/gcc/arm-none-eabi/4.9.3/../../../../arm-none-eabi/lib/armv7e-m/libstdc++_nano.a(del_op.o)
                              source/CMakeFiles/robotcode.dir/home/boogle/Final_Year/robotCode/source/app.cpp.o (operator delete(void*))
/usr/bin/../lib/gcc/arm-none-eabi/4.9.3/../../../../arm-none-eabi/lib/armv7e-m/libstdc++_nano.a(new_op.o)
                              ym/mbed-drivers/source/mbed-drivers.a(NRF2401P.cpp.o) (operator new(unsigned int))
/usr/bin/../lib/gcc/arm-none-eabi/4.9.3/../../../../arm-none-eabi/lib/armv7e-m/libstdc++_nano.a(atexit_arm.o)
                              source/CMakeFiles/robotcode.dir/home/boogle/Final_Year/robotCode/source/app.cpp.o (__aeabi_atexit)
/usr/bin/../lib/gcc/arm-none-eabi/4.9.3/../../../../arm-none-eabi/lib/armv7e-m/libstdc++_nano.a(new_handler.o)
                              /usr/bin/../lib/gcc/arm-none-eabi/4.9.3/../../../../arm-none-eabi/lib/armv7e-m/libstdc++_nano.a(new_op.o) (std::get_new_handler())
/usr/bin/../lib/gcc/arm-none-eabi/4.9.3/armv7e-m/libgcc.a(_arm_addsubsf3.o)
                              ym/mbed-hal-ksdk-mcu/source/mbed-hal-ksdk-mcu.a(pwmout_api.c.o) (__aeabi_ui2f)
/usr/bin/../lib/gcc/arm-none-eabi/4.9.3/armv7e-m/libgcc.a(_arm_muldivsf3.o)
                              ym/mbed-drivers/source/mbed-drivers.a(wait_api.c.o) (__aeabi_fmul)
/usr/bin/../lib/gcc/arm-none-eabi/4.9.3/armv7e-m/libgcc.a(_arm_cmpsf2.o)
                              ym/mbed-drivers/source/mbed-drivers.a(Motor.cpp.o) (__aeabi_fcmplt)
/usr/bin/../lib/gcc/arm-none-eabi/4.9.3/armv7e-m/libgcc.a(_arm_fixsfsi.o)
                              ym/mbed-drivers/source/mbed-drivers.a(wait_api.c.o) (__aeabi_f2iz)
/usr/bin/../lib/gcc/arm-none-eabi/4.9.3/armv7e-m/libgcc.a(_arm_fixunssfsi.o)
                              ym/mbed-hal-ksdk-mcu/source/mbed-hal-ksdk-mcu.a(pwmout_api.c.o) (__aeabi_f2uiz)
/usr/bin/../lib/gcc/arm-none-eabi/4.9.3/armv7e-m/libgcc.a(_aeabi_uldivmod.o)
                              ym/minar/source/minar.a(minar.cpp.o) (__aeabi_uldivmod)
/usr/bin/../lib/gcc/arm-none-eabi/4.9.3/armv7e-m/libgcc.a(bpabi.o)
                              /usr/bin/../lib/gcc/arm-none-eabi/4.9.3/armv7e-m/libgcc.a(_aeabi_uldivmod.o) (__gnu_uldivmod_helper)
/usr/bin/../lib/gcc/arm-none-eabi/4.9.3/armv7e-m/libgcc.a(_dvmd_tls.o)
                              /usr/bin/../lib/gcc/arm-none-eabi/4.9.3/armv7e-m/libgcc.a(_aeabi_uldivmod.o) (__aeabi_ldiv0)
/usr/bin/../lib/gcc/arm-none-eabi/4.9.3/armv7e-m/libgcc.a(_divdi3.o)
                              /usr/bin/../lib/gcc/arm-none-eabi/4.9.3/armv7e-m/libgcc.a(bpabi.o) (__divdi3)
/usr/bin/../lib/gcc/arm-none-eabi/4.9.3/armv7e-m/libgcc.a(_udivdi3.o)
                              /usr/bin/../lib/gcc/arm-none-eabi/4.9.3/armv7e-m/libgcc.a(bpabi.o) (__udivdi3)
/usr/bin/../lib/gcc/arm-none-eabi/4.9.3/../../../../arm-none-eabi/lib/armv7e-m/libc_nano.a(lib_a-abort.o)
                              ym/dlmalloc/source/dlmalloc.a(dlmalloc.c.o) (abort)
/usr/bin/../lib/gcc/arm-none-eabi/4.9.3/../../../../arm-none-eabi/lib/armv7e-m/libc_nano.a(lib_a-cxa_atexit.o)
                              /usr/bin/../lib/gcc/arm-none-eabi/4.9.3/../../../../arm-none-eabi/lib/armv7e-m/libstdc++_nano.a(atexit_arm.o) (__cxa_atexit)
/usr/bin/../lib/gcc/arm-none-eabi/4.9.3/../../../../arm-none-eabi/lib/armv7e-m/libc_nano.a(lib_a-errno.o)
                              ym/mbed-drivers/source/mbed-drivers.a(retarget.cpp.o) (__errno)
/usr/bin/../lib/gcc/arm-none-eabi/4.9.3/../../../../arm-none-eabi/lib/armv7e-m/libc_nano.a(lib_a-fclose.o)
                              ym/mbed-drivers/source/mbed-drivers.a(Stream.cpp.o) (fclose)
/usr/bin/../lib/gcc/arm-none-eabi/4.9.3/../../../../arm-none-eabi/lib/armv7e-m/libc_nano.a(lib_a-fflush.o)
                              /usr/bin/../lib/gcc/arm-none-eabi/4.9.3/../../../../arm-none-eabi/lib/armv7e-m/libc_nano.a(lib_a-fclose.o) (__sflush_r)
/usr/bin/../lib/gcc/arm-none-eabi/4.9.3/../../../../arm-none-eabi/lib/armv7e-m/libc_nano.a(lib_a-fgetc.o)
                              ym/mbed-drivers/source/mbed-drivers.a(Stream.cpp.o) (fgetc)
/usr/bin/../lib/gcc/arm-none-eabi/4.9.3/../../../../arm-none-eabi/lib/armv7e-m/libc_nano.a(lib_a-fgets.o)
                              ym/mbed-drivers/source/mbed-drivers.a(Stream.cpp.o) (fgets)
/usr/bin/../lib/gcc/arm-none-eabi/4.9.3/../../../../arm-none-eabi/lib/armv7e-m/libc_nano.a(lib_a-findfp.o)
                              /usr/bin/../lib/gcc/arm-none-eabi/4.9.3/../../../../arm-none-eabi/lib/armv7e-m/libc_nano.a(lib_a-fclose.o) (__sinit)
/usr/bin/../lib/gcc/arm-none-eabi/4.9.3/../../../../arm-none-eabi/lib/armv7e-m/libc_nano.a(lib_a-fopen.o)
                              ym/mbed-drivers/source/mbed-drivers.a(Stream.cpp.o) (fopen)
/usr/bin/../lib/gcc/arm-none-eabi/4.9.3/../../../../arm-none-eabi/lib/armv7e-m/libc_nano.a(lib_a-fprintf.o)
                              ym/core-util/source/core-util.a(assert_mbed.c.o) (fprintf)
/usr/bin/../lib/gcc/arm-none-eabi/4.9.3/../../../../arm-none-eabi/lib/armv7e-m/libc_nano.a(lib_a-fputc.o)
                              ym/mbed-drivers/source/mbed-drivers.a(Stream.cpp.o) (fputc)
/usr/bin/../lib/gcc/arm-none-eabi/4.9.3/../../../../arm-none-eabi/lib/armv7e-m/libc_nano.a(lib_a-fputs.o)
                              ym/mbed-drivers/source/mbed-drivers.a(Stream.cpp.o) (fputs)
/usr/bin/../lib/gcc/arm-none-eabi/4.9.3/../../../../arm-none-eabi/lib/armv7e-m/libc_nano.a(lib_a-fseek.o)
                              /usr/bin/../lib/gcc/arm-none-eabi/4.9.3/../../../../arm-none-eabi/lib/armv7e-m/libc_nano.a(lib_a-fopen.o) (_fseek_r)
/usr/bin/../lib/gcc/arm-none-eabi/4.9.3/../../../../arm-none-eabi/lib/armv7e-m/libc_nano.a(lib_a-fseeko.o)
                              /usr/bin/../lib/gcc/arm-none-eabi/4.9.3/../../../../arm-none-eabi/lib/armv7e-m/libc_nano.a(lib_a-fseek.o) (_fseeko_r)
/usr/bin/../lib/gcc/arm-none-eabi/4.9.3/../../../../arm-none-eabi/lib/armv7e-m/libc_nano.a(lib_a-fwalk.o)
                              /usr/bin/../lib/gcc/arm-none-eabi/4.9.3/../../../../arm-none-eabi/lib/armv7e-m/libc_nano.a(lib_a-findfp.o) (_fwalk)
/usr/bin/../lib/gcc/arm-none-eabi/4.9.3/../../../../arm-none-eabi/lib/armv7e-m/libc_nano.a(lib_a-impure.o)
                              /usr/bin/../lib/gcc/arm-none-eabi/4.9.3/../../../../arm-none-eabi/lib/armv7e-m/libc_nano.a(lib_a-fflush.o) (_global_impure_ptr)
/usr/bin/../lib/gcc/arm-none-eabi/4.9.3/../../../../arm-none-eabi/lib/armv7e-m/libc_nano.a(lib_a-init.o)
                              /usr/bin/../lib/gcc/arm-none-eabi/4.9.3/../../../../arm-none-eabi/lib/armv7e-m/crt0.o (__libc_init_array)
/usr/bin/../lib/gcc/arm-none-eabi/4.9.3/../../../../arm-none-eabi/lib/armv7e-m/libc_nano.a(lib_a-makebuf.o)
                              /usr/bin/../lib/gcc/arm-none-eabi/4.9.3/../../../../arm-none-eabi/lib/armv7e-m/libc_nano.a(lib_a-fseeko.o) (__smakebuf_r)
/usr/bin/../lib/gcc/arm-none-eabi/4.9.3/../../../../arm-none-eabi/lib/armv7e-m/libc_nano.a(lib_a-malloc.o)
                              /usr/bin/../lib/gcc/arm-none-eabi/4.9.3/../../../../arm-none-eabi/lib/armv7e-m/libstdc++_nano.a(new_op.o) (malloc)
/usr/bin/../lib/gcc/arm-none-eabi/4.9.3/../../../../arm-none-eabi/lib/armv7e-m/libc_nano.a(lib_a-memchr.o)
                              /usr/bin/../lib/gcc/arm-none-eabi/4.9.3/../../../../arm-none-eabi/lib/armv7e-m/libc_nano.a(lib_a-fgets.o) (memchr)
/usr/bin/../lib/gcc/arm-none-eabi/4.9.3/../../../../arm-none-eabi/lib/armv7e-m/libc_nano.a(lib_a-memcpy.o)
                              ym/mbed-drivers/source/mbed-drivers.a(NRF2401P.cpp.o) (memcpy)
/usr/bin/../lib/gcc/arm-none-eabi/4.9.3/../../../../arm-none-eabi/lib/armv7e-m/libc_nano.a(lib_a-memset.o)
                              /usr/bin/../lib/gcc/arm-none-eabi/4.9.3/../../../../arm-none-eabi/lib/armv7e-m/crt0.o (memset)
/usr/bin/../lib/gcc/arm-none-eabi/4.9.3/../../../../arm-none-eabi/lib/armv7e-m/libc_nano.a(lib_a-nano-vfprintf.o)
                              /usr/bin/../lib/gcc/arm-none-eabi/4.9.3/../../../../arm-none-eabi/lib/armv7e-m/libc_nano.a(lib_a-fprintf.o) (_vfprintf_r)
/usr/bin/../lib/gcc/arm-none-eabi/4.9.3/../../../../arm-none-eabi/lib/armv7e-m/libc_nano.a(lib_a-nano-vfprintf_i.o)
                              /usr/bin/../lib/gcc/arm-none-eabi/4.9.3/../../../../arm-none-eabi/lib/armv7e-m/libc_nano.a(lib_a-nano-vfprintf.o) (_printf_i)
/usr/bin/../lib/gcc/arm-none-eabi/4.9.3/../../../../arm-none-eabi/lib/armv7e-m/libc_nano.a(lib_a-nano-vfscanf.o)
                              ym/mbed-drivers/source/mbed-drivers.a(Stream.cpp.o) (vfscanf)
/usr/bin/../lib/gcc/arm-none-eabi/4.9.3/../../../../arm-none-eabi/lib/armv7e-m/libc_nano.a(lib_a-nano-vfscanf_i.o)
                              /usr/bin/../lib/gcc/arm-none-eabi/4.9.3/../../../../arm-none-eabi/lib/armv7e-m/libc_nano.a(lib_a-nano-vfscanf.o) (_scanf_chars)
/usr/bin/../lib/gcc/arm-none-eabi/4.9.3/../../../../arm-none-eabi/lib/armv7e-m/libc_nano.a(lib_a-openr.o)
                              /usr/bin/../lib/gcc/arm-none-eabi/4.9.3/../../../../arm-none-eabi/lib/armv7e-m/libc_nano.a(lib_a-fopen.o) (_open_r)
/usr/bin/../lib/gcc/arm-none-eabi/4.9.3/../../../../arm-none-eabi/lib/armv7e-m/libc_nano.a(lib_a-printf.o)
                              source/CMakeFiles/robotcode.dir/home/boogle/Final_Year/robotCode/source/app.cpp.o (printf)
/usr/bin/../lib/gcc/arm-none-eabi/4.9.3/../../../../arm-none-eabi/lib/armv7e-m/libc_nano.a(lib_a-putc.o)
                              /usr/bin/../lib/gcc/arm-none-eabi/4.9.3/../../../../arm-none-eabi/lib/armv7e-m/libc_nano.a(lib_a-fputc.o) (_putc_r)
/usr/bin/../lib/gcc/arm-none-eabi/4.9.3/../../../../arm-none-eabi/lib/armv7e-m/libc_nano.a(lib_a-puts.o)
                              ym/mbed-drivers/source/mbed-drivers.a(NRF2401P.cpp.o) (puts)
/usr/bin/../lib/gcc/arm-none-eabi/4.9.3/../../../../arm-none-eabi/lib/armv7e-m/libc_nano.a(lib_a-reent.o)
                              /usr/bin/../lib/gcc/arm-none-eabi/4.9.3/../../../../arm-none-eabi/lib/armv7e-m/libc_nano.a(lib_a-openr.o) (errno)
/usr/bin/../lib/gcc/arm-none-eabi/4.9.3/../../../../arm-none-eabi/lib/armv7e-m/libc_nano.a(lib_a-refill.o)
                              /usr/bin/../lib/gcc/arm-none-eabi/4.9.3/../../../../arm-none-eabi/lib/armv7e-m/libc_nano.a(lib_a-fgets.o) (__srefill_r)
/usr/bin/../lib/gcc/arm-none-eabi/4.9.3/../../../../arm-none-eabi/lib/armv7e-m/libc_nano.a(lib_a-rget.o)
                              /usr/bin/../lib/gcc/arm-none-eabi/4.9.3/../../../../arm-none-eabi/lib/armv7e-m/libc_nano.a(lib_a-fgetc.o) (__srget_r)
/usr/bin/../lib/gcc/arm-none-eabi/4.9.3/../../../../arm-none-eabi/lib/armv7e-m/libc_nano.a(lib_a-sccl.o)
                              /usr/bin/../lib/gcc/arm-none-eabi/4.9.3/../../../../arm-none-eabi/lib/armv7e-m/libc_nano.a(lib_a-nano-vfscanf.o) (__sccl)
/usr/bin/../lib/gcc/arm-none-eabi/4.9.3/../../../../arm-none-eabi/lib/armv7e-m/libc_nano.a(lib_a-setbuf.o)
                              ym/mbed-drivers/source/mbed-drivers.a(Stream.cpp.o) (setbuf)
/usr/bin/../lib/gcc/arm-none-eabi/4.9.3/../../../../arm-none-eabi/lib/armv7e-m/libc_nano.a(lib_a-setvbuf.o)
                              /usr/bin/../lib/gcc/arm-none-eabi/4.9.3/../../../../arm-none-eabi/lib/armv7e-m/libc_nano.a(lib_a-setbuf.o) (setvbuf)
/usr/bin/../lib/gcc/arm-none-eabi/4.9.3/../../../../arm-none-eabi/lib/armv7e-m/libc_nano.a(lib_a-signal.o)
                              /usr/bin/../lib/gcc/arm-none-eabi/4.9.3/../../../../arm-none-eabi/lib/armv7e-m/libc_nano.a(lib_a-abort.o) (raise)
/usr/bin/../lib/gcc/arm-none-eabi/4.9.3/../../../../arm-none-eabi/lib/armv7e-m/libc_nano.a(lib_a-signalr.o)
                              /usr/bin/../lib/gcc/arm-none-eabi/4.9.3/../../../../arm-none-eabi/lib/armv7e-m/libc_nano.a(lib_a-signal.o) (_kill_r)
/usr/bin/../lib/gcc/arm-none-eabi/4.9.3/../../../../arm-none-eabi/lib/armv7e-m/libc_nano.a(lib_a-sprintf.o)
                              source/CMakeFiles/robotcode.dir/home/boogle/Final_Year/robotCode/source/app.cpp.o (sprintf)
/usr/bin/../lib/gcc/arm-none-eabi/4.9.3/../../../../arm-none-eabi/lib/armv7e-m/libc_nano.a(lib_a-sscanf.o)
                              ym/mbed-drivers/source/mbed-drivers.a(retarget.cpp.o) (sscanf)
/usr/bin/../lib/gcc/arm-none-eabi/4.9.3/../../../../arm-none-eabi/lib/armv7e-m/libc_nano.a(lib_a-stdio.o)
                              /usr/bin/../lib/gcc/arm-none-eabi/4.9.3/../../../../arm-none-eabi/lib/armv7e-m/libc_nano.a(lib_a-findfp.o) (__sread)
/usr/bin/../lib/gcc/arm-none-eabi/4.9.3/../../../../arm-none-eabi/lib/armv7e-m/libc_nano.a(lib_a-strcat.o)
                              ym/mbed-drivers/source/mbed-drivers.a(NRF2401P.cpp.o) (strcat)
/usr/bin/../lib/gcc/arm-none-eabi/4.9.3/../../../../arm-none-eabi/lib/armv7e-m/libc_nano.a(lib_a-strcmp.o)
                              ym/mbed-drivers/source/mbed-drivers.a(retarget.cpp.o) (strcmp)
/usr/bin/../lib/gcc/arm-none-eabi/4.9.3/../../../../arm-none-eabi/lib/armv7e-m/libc_nano.a(lib_a-strcpy.o)
                              ym/mbed-drivers/source/mbed-drivers.a(NRF2401P.cpp.o) (strcpy)
/usr/bin/../lib/gcc/arm-none-eabi/4.9.3/../../../../arm-none-eabi/lib/armv7e-m/libc_nano.a(lib_a-strlen.o)
                              source/CMakeFiles/robotcode.dir/home/boogle/Final_Year/robotCode/source/app.cpp.o (strlen)
/usr/bin/../lib/gcc/arm-none-eabi/4.9.3/../../../../arm-none-eabi/lib/armv7e-m/libc_nano.a(lib_a-strncmp.o)
                              ym/mbed-drivers/source/mbed-drivers.a(FileBase.cpp.o) (strncmp)
/usr/bin/../lib/gcc/arm-none-eabi/4.9.3/../../../../arm-none-eabi/lib/armv7e-m/libc_nano.a(lib_a-strncpy.o)
                              ym/mbed-drivers/source/mbed-drivers.a(FileSystemLike.cpp.o) (strncpy)
/usr/bin/../lib/gcc/arm-none-eabi/4.9.3/../../../../arm-none-eabi/lib/armv7e-m/libc_nano.a(lib_a-strtol.o)
                              /usr/bin/../lib/gcc/arm-none-eabi/4.9.3/../../../../arm-none-eabi/lib/armv7e-m/libc_nano.a(lib_a-nano-vfscanf_i.o) (_strtol_r)
/usr/bin/../lib/gcc/arm-none-eabi/4.9.3/../../../../arm-none-eabi/lib/armv7e-m/libc_nano.a(lib_a-strtoul.o)
                              /usr/bin/../lib/gcc/arm-none-eabi/4.9.3/../../../../arm-none-eabi/lib/armv7e-m/libc_nano.a(lib_a-nano-vfscanf_i.o) (_strtoul_r)
/usr/bin/../lib/gcc/arm-none-eabi/4.9.3/../../../../arm-none-eabi/lib/armv7e-m/libc_nano.a(lib_a-ungetc.o)
                              /usr/bin/../lib/gcc/arm-none-eabi/4.9.3/../../../../arm-none-eabi/lib/armv7e-m/libc_nano.a(lib_a-nano-vfscanf.o) (_ungetc_r)
/usr/bin/../lib/gcc/arm-none-eabi/4.9.3/../../../../arm-none-eabi/lib/armv7e-m/libc_nano.a(lib_a-wbuf.o)
                              /usr/bin/../lib/gcc/arm-none-eabi/4.9.3/../../../../arm-none-eabi/lib/armv7e-m/libc_nano.a(lib_a-fputs.o) (__swbuf_r)
/usr/bin/../lib/gcc/arm-none-eabi/4.9.3/../../../../arm-none-eabi/lib/armv7e-m/libc_nano.a(lib_a-writer.o)
                              /usr/bin/../lib/gcc/arm-none-eabi/4.9.3/../../../../arm-none-eabi/lib/armv7e-m/libc_nano.a(lib_a-stdio.o) (_write_r)
/usr/bin/../lib/gcc/arm-none-eabi/4.9.3/../../../../arm-none-eabi/lib/armv7e-m/libc_nano.a(lib_a-wsetup.o)
                              /usr/bin/../lib/gcc/arm-none-eabi/4.9.3/../../../../arm-none-eabi/lib/armv7e-m/libc_nano.a(lib_a-fputs.o) (__swsetup_r)
/usr/bin/../lib/gcc/arm-none-eabi/4.9.3/../../../../arm-none-eabi/lib/armv7e-m/libc_nano.a(lib_a-closer.o)
                              /usr/bin/../lib/gcc/arm-none-eabi/4.9.3/../../../../arm-none-eabi/lib/armv7e-m/libc_nano.a(lib_a-stdio.o) (_close_r)
/usr/bin/../lib/gcc/arm-none-eabi/4.9.3/../../../../arm-none-eabi/lib/armv7e-m/libc_nano.a(lib_a-ctype_.o)
                              /usr/bin/../lib/gcc/arm-none-eabi/4.9.3/../../../../arm-none-eabi/lib/armv7e-m/libc_nano.a(lib_a-nano-vfscanf.o) (__ctype_ptr__)
/usr/bin/../lib/gcc/arm-none-eabi/4.9.3/../../../../arm-none-eabi/lib/armv7e-m/libc_nano.a(lib_a-flags.o)
                              /usr/bin/../lib/gcc/arm-none-eabi/4.9.3/../../../../arm-none-eabi/lib/armv7e-m/libc_nano.a(lib_a-fopen.o) (__sflags)
/usr/bin/../lib/gcc/arm-none-eabi/4.9.3/../../../../arm-none-eabi/lib/armv7e-m/libc_nano.a(lib_a-fstatr.o)
                              /usr/bin/../lib/gcc/arm-none-eabi/4.9.3/../../../../arm-none-eabi/lib/armv7e-m/libc_nano.a(lib_a-makebuf.o) (_fstat_r)
/usr/bin/../lib/gcc/arm-none-eabi/4.9.3/../../../../arm-none-eabi/lib/armv7e-m/libc_nano.a(lib_a-fvwrite.o)
                              /usr/bin/../lib/gcc/arm-none-eabi/4.9.3/../../../../arm-none-eabi/lib/armv7e-m/libc_nano.a(lib_a-nano-vfprintf.o) (__sfvwrite_r)
/usr/bin/../lib/gcc/arm-none-eabi/4.9.3/../../../../arm-none-eabi/lib/armv7e-m/libc_nano.a(lib_a-isattyr.o)
                              /usr/bin/../lib/gcc/arm-none-eabi/4.9.3/../../../../arm-none-eabi/lib/armv7e-m/libc_nano.a(lib_a-makebuf.o) (_isatty_r)
/usr/bin/../lib/gcc/arm-none-eabi/4.9.3/../../../../arm-none-eabi/lib/armv7e-m/libc_nano.a(lib_a-lseekr.o)
                              /usr/bin/../lib/gcc/arm-none-eabi/4.9.3/../../../../arm-none-eabi/lib/armv7e-m/libc_nano.a(lib_a-stdio.o) (_lseek_r)
/usr/bin/../lib/gcc/arm-none-eabi/4.9.3/../../../../arm-none-eabi/lib/armv7e-m/libc_nano.a(lib_a-memmove.o)
                              /usr/bin/../lib/gcc/arm-none-eabi/4.9.3/../../../../arm-none-eabi/lib/armv7e-m/libc_nano.a(lib_a-fvwrite.o) (memmove)
/usr/bin/../lib/gcc/arm-none-eabi/4.9.3/../../../../arm-none-eabi/lib/armv7e-m/libc_nano.a(lib_a-nano-svfprintf.o)
                              /usr/bin/../lib/gcc/arm-none-eabi/4.9.3/../../../../arm-none-eabi/lib/armv7e-m/libc_nano.a(lib_a-sprintf.o) (_svfprintf_r)
/usr/bin/../lib/gcc/arm-none-eabi/4.9.3/../../../../arm-none-eabi/lib/armv7e-m/libc_nano.a(lib_a-nano-svfscanf.o)
                              /usr/bin/../lib/gcc/arm-none-eabi/4.9.3/../../../../arm-none-eabi/lib/armv7e-m/libc_nano.a(lib_a-sscanf.o) (__ssvfscanf_r)
/usr/bin/../lib/gcc/arm-none-eabi/4.9.3/../../../../arm-none-eabi/lib/armv7e-m/libc_nano.a(lib_a-readr.o)
                              /usr/bin/../lib/gcc/arm-none-eabi/4.9.3/../../../../arm-none-eabi/lib/armv7e-m/libc_nano.a(lib_a-stdio.o) (_read_r)
ym/core-util/source/core-util.a(sbrk.cpp.o)
                              ym/dlmalloc/source/dlmalloc.a(dlmalloc.c.o) (mbed_sbrk)
ym/core-util/source/core-util.a(atomic_ops.cpp.o)
                              ym/core-util/source/core-util.a(sbrk.cpp.o) (bool mbed::util::atomic_cas<unsigned long>(unsigned long*, unsigned long*, unsigned long))
ym/ualloc/source/ualloc.a(malloc.c.o)
                              /usr/bin/../lib/gcc/arm-none-eabi/4.9.3/../../../../arm-none-eabi/lib/armv7e-m/libc_nano.a(lib_a-findfp.o) (__wrap__malloc_r)
ym/cmsis-core/source/cmsis-core.a(cmsis_nvic.c.o)
                              ym/uvisor-lib/source/uvisor-lib.a(disabled.cpp.o) (NVIC_SetVector)

Allocating common symbols
Common symbol       size              file

errno               0x4               /usr/bin/../lib/gcc/arm-none-eabi/4.9.3/../../../../arm-none-eabi/lib/armv7e-m/libc_nano.a(lib_a-reent.o)

Discarded input sections

 .text          0x0000000000000000        0x0 /usr/bin/../lib/gcc/arm-none-eabi/4.9.3/armv7e-m/crti.o
 .data          0x0000000000000000        0x0 /usr/bin/../lib/gcc/arm-none-eabi/4.9.3/armv7e-m/crti.o
 .bss           0x0000000000000000        0x0 /usr/bin/../lib/gcc/arm-none-eabi/4.9.3/armv7e-m/crti.o
 .data          0x0000000000000000        0x0 /usr/bin/../lib/gcc/arm-none-eabi/4.9.3/../../../../arm-none-eabi/lib/armv7e-m/crt0.o
 .bss           0x0000000000000000        0x0 /usr/bin/../lib/gcc/arm-none-eabi/4.9.3/../../../../arm-none-eabi/lib/armv7e-m/crt0.o
 .ARM.extab     0x0000000000000000        0x0 /usr/bin/../lib/gcc/arm-none-eabi/4.9.3/../../../../arm-none-eabi/lib/armv7e-m/crt0.o
 .group         0x0000000000000000        0xc source/CMakeFiles/robotcode.dir/home/boogle/Final_Year/robotCode/source/app.cpp.o
 .group         0x0000000000000000        0xc source/CMakeFiles/robotcode.dir/home/boogle/Final_Year/robotCode/source/app.cpp.o
 .group         0x0000000000000000        0x8 source/CMakeFiles/robotcode.dir/home/boogle/Final_Year/robotCode/source/app.cpp.o
 .group         0x0000000000000000        0x8 source/CMakeFiles/robotcode.dir/home/boogle/Final_Year/robotCode/source/app.cpp.o
 .group         0x0000000000000000        0xc source/CMakeFiles/robotcode.dir/home/boogle/Final_Year/robotCode/source/app.cpp.o
 .group         0x0000000000000000        0x8 source/CMakeFiles/robotcode.dir/home/boogle/Final_Year/robotCode/source/app.cpp.o
 .group         0x0000000000000000        0xc source/CMakeFiles/robotcode.dir/home/boogle/Final_Year/robotCode/source/app.cpp.o
 .group         0x0000000000000000        0x8 source/CMakeFiles/robotcode.dir/home/boogle/Final_Year/robotCode/source/app.cpp.o
 .group         0x0000000000000000        0xc source/CMakeFiles/robotcode.dir/home/boogle/Final_Year/robotCode/source/app.cpp.o
 .group         0x0000000000000000        0xc source/CMakeFiles/robotcode.dir/home/boogle/Final_Year/robotCode/source/app.cpp.o
 .group         0x0000000000000000        0x8 source/CMakeFiles/robotcode.dir/home/boogle/Final_Year/robotCode/source/app.cpp.o
 .group         0x0000000000000000        0x8 source/CMakeFiles/robotcode.dir/home/boogle/Final_Year/robotCode/source/app.cpp.o
Memory Configuration

Name             Origin             Length             Attributes
VECTORS          0x0000000000000000 0x0000000000000400 xr
FLASH_PROTECTION 0x0000000000000400 0x0000000000000010 xr
FLASH            0x0000000000000410 0x00000000000ffbf0 xr
RAM              0x000000001fff0200 0x000000000003fe00 xrw
*default*        0x0000000000000000 0xffffffffffffffff

Linker script and memory map

LOAD /usr/bin/../lib/gcc/arm-none-eabi/4.9.3/armv7e-m/crti.o
LOAD /usr/bin/../lib/gcc/arm-none-eabi/4.9.3/armv7e-m/crtbegin.o
LOAD /usr/bin/../lib/gcc/arm-none-eabi/4.9.3/../../../../arm-none-eabi/lib/armv7e-m/crt0.o
START GROUP
LOAD source/CMakeFiles/robotcode.dir/home/boogle/Final_Year/robotCode/source/app.cpp.o
LOAD ym/mbed-drivers/source/mbed-drivers.a
LOAD ym/mbed-hal/source/mbed-hal.a
LOAD ym/minar/source/minar.a
LOAD ym/core-util/source/core-util.a
LOAD ym/mbed-hal-freescale/yotta_dummy_lib_mbed_hal_freescale/mbed-hal-freescale.a
LOAD ym/minar-platform/yotta_dummy_lib_minar_platform/minar-platform.a
LOAD ym/mbed-hal-ksdk-mcu/source/mbed-hal-ksdk-mcu.a
LOAD ym/minar-platform-mbed/source/minar-platform-mbed.a
LOAD ym/mbed-hal-k64f/source/mbed-hal-k64f.a
LOAD ym/mbed-hal-frdm-k64f/source/mbed-hal-frdm-k64f.a
LOAD ym/mbed-drivers/source/mbed-drivers.a
LOAD ym/mbed-hal/source/mbed-hal.a
LOAD ym/minar/source/minar.a
LOAD ym/core-util/source/core-util.a
LOAD ym/mbed-hal-freescale/yotta_dummy_lib_mbed_hal_freescale/mbed-hal-freescale.a
LOAD ym/minar-platform/yotta_dummy_lib_minar_platform/minar-platform.a
LOAD ym/mbed-hal-ksdk-mcu/source/mbed-hal-ksdk-mcu.a
LOAD ym/minar-platform-mbed/source/minar-platform-mbed.a
LOAD ym/mbed-hal-k64f/source/mbed-hal-k64f.a
LOAD ym/mbed-hal-frdm-k64f/source/mbed-hal-frdm-k64f.a
LOAD ym/compiler-polyfill/yotta_dummy_lib_compiler_polyfill/compiler-polyfill.a
LOAD ym/ualloc/source/ualloc.a
LOAD ym/dlmalloc/source/dlmalloc.a
LOAD ym/cmsis-core/source/cmsis-core.a
LOAD ym/cmsis-core-freescale/yotta_dummy_lib_cmsis_core_freescale/cmsis-core-freescale.a
LOAD ym/cmsis-core-k64f/source/cmsis-core-k64f.a
LOAD ym/cmsis-core/source/cmsis-core.a
LOAD ym/cmsis-core-freescale/yotta_dummy_lib_cmsis_core_freescale/cmsis-core-freescale.a
LOAD ym/cmsis-core-k64f/source/cmsis-core-k64f.a
LOAD ym/uvisor-lib/source/uvisor-lib.a
LOAD /usr/bin/../lib/gcc/arm-none-eabi/4.9.3/../../../../arm-none-eabi/lib/armv7e-m/libstdc++_nano.a
LOAD /usr/bin/../lib/gcc/arm-none-eabi/4.9.3/../../../../arm-none-eabi/lib/armv7e-m/libsupc++_nano.a
LOAD /usr/bin/../lib/gcc/arm-none-eabi/4.9.3/armv7e-m/libgcc.a
LOAD /usr/bin/../lib/gcc/arm-none-eabi/4.9.3/../../../../arm-none-eabi/lib/armv7e-m/libstdc++_nano.a
LOAD /usr/bin/../lib/gcc/arm-none-eabi/4.9.3/../../../../arm-none-eabi/lib/armv7e-m/libsupc++_nano.a
LOAD /usr/bin/../lib/gcc/arm-none-eabi/4.9.3/../../../../arm-none-eabi/lib/armv7e-m/libm.a
LOAD /usr/bin/../lib/gcc/arm-none-eabi/4.9.3/../../../../arm-none-eabi/lib/armv7e-m/libc_nano.a
LOAD /usr/bin/../lib/gcc/arm-none-eabi/4.9.3/armv7e-m/libgcc.a
END GROUP
LOAD /usr/bin/../lib/gcc/arm-none-eabi/4.9.3/../../../../arm-none-eabi/lib/armv7e-m/libstdc++_nano.a
LOAD /usr/bin/../lib/gcc/arm-none-eabi/4.9.3/../../../../arm-none-eabi/lib/armv7e-m/libm.a
LOAD /usr/bin/../lib/gcc/arm-none-eabi/4.9.3/../../../../arm-none-eabi/lib/armv7e-m/libc_nano.a
START GROUP
LOAD /usr/bin/../lib/gcc/arm-none-eabi/4.9.3/armv7e-m/libgcc.a
LOAD /usr/bin/../lib/gcc/arm-none-eabi/4.9.3/../../../../arm-none-eabi/lib/armv7e-m/libc_nano.a
END GROUP
START GROUP
LOAD /usr/bin/../lib/gcc/arm-none-eabi/4.9.3/armv7e-m/libgcc.a
LOAD /usr/bin/../lib/gcc/arm-none-eabi/4.9.3/../../../../arm-none-eabi/lib/armv7e-m/libc_nano.a
END GROUP
LOAD /usr/bin/../lib/gcc/arm-none-eabi/4.9.3/armv7e-m/crtend.o
LOAD /usr/bin/../lib/gcc/arm-none-eabi/4.9.3/armv7e-m/crtn.o

.isr_vector     0x0000000000000000      0x198
                0x0000000000000000                __vector_table = .
 *(SORT(.vector_table))
 .vector_table  0x0000000000000000      0x198 ym/mbed-hal-k64f/source/mbed-hal-k64f.a(startup_MK64F12.S.obj)
                0x0000000000000000                __isr_vector
                0x0000000000000198                . = ALIGN (0x4)

.flash_protect  0x0000000000000400       0x10
 *(SORT(.kinetis_flash_config_field))
 .kinetis_flash_config_field
                0x0000000000000400       0x10 ym/mbed-hal-k64f/source/mbed-hal-k64f.a(startup_MK64F12.S.obj)
                0x0000000000000410                . = ALIGN (0x4)

.uvisor.bss     0x000000001fff0200     0x2000
                0x000000001fff0200                . = ALIGN (0x20)
                0x000000001fff0200                __uvisor_bss_start = .
                0x000000001fff0200                . = ALIGN (0x20)
                0x000000001fff0200                __uvisor_bss_main_start = .
 *(SORT(.keep.uvisor.bss.main))
 .keep.uvisor.bss.main
                0x000000001fff0200     0x2000 ym/uvisor-lib/source/uvisor-lib.a(uvisor.o)
                0x000000001fff2200                . = ALIGN (0x20)
                0x000000001fff2200                __uvisor_bss_main_end = .
                0x000000001fff2200                . = ALIGN (0x20)
                0x000000001fff2200                __uvisor_bss_boxes_start = .
 *(SORT(.keep.uvisor.bss.boxes))
                0x000000001fff2200                . = ALIGN (0x20)
                0x000000001fff2200                __uvisor_bss_boxes_end = .
                0x000000001fff2200                . = ALIGN (0x20)
                0x000000001fff2200                __uvisor_bss_end = .

.text           0x0000000000000410     0xcac0
                0x0000000000000410                . = ALIGN (0x4)
                0x0000000000000410                __uvisor_main_start = .
 *(SORT(.uvisor.main))
 .uvisor.main   0x0000000000000410     0x1824 ym/uvisor-lib/source/uvisor-lib.a(uvisor.o)
                0x0000000000000410                uvisor_init
                0x0000000000001bd8                uvisor_config
                0x0000000000001c30                __uvisor_mode
                0x0000000000001c34                __uvisor_main_end = .
 *(SORT(.text*))
 .text          0x0000000000001c34       0x5c /usr/bin/../lib/gcc/arm-none-eabi/4.9.3/armv7e-m/crtbegin.o
 .text          0x0000000000001c90       0x74 /usr/bin/../lib/gcc/arm-none-eabi/4.9.3/../../../../arm-none-eabi/lib/armv7e-m/crt0.o
                0x0000000000001c90                _mainCRTStartup
                0x0000000000001c90                _start
 .text._ZN4mbed10SerialBaseD2Ev
                0x0000000000001d04       0x28 source/CMakeFiles/robotcode.dir/home/boogle/Final_Year/robotCode/source/app.cpp.o
                0x0000000000001d04                mbed::SerialBase::~SerialBase()
                0x0000000000001d04                mbed::SerialBase::~SerialBase()
 .text._ZN4mbed4util19FunctionPointerBindIvED2Ev
                0x0000000000001d2c       0x18 source/CMakeFiles/robotcode.dir/home/boogle/Final_Year/robotCode/source/app.cpp.o
                0x0000000000001d2c                mbed::util::FunctionPointerBind<void>::~FunctionPointerBind()
                0x0000000000001d2c                mbed::util::FunctionPointerBind<void>::~FunctionPointerBind()
 .text._Z5accelv
                0x0000000000001d44       0x90 source/CMakeFiles/robotcode.dir/home/boogle/Final_Year/robotCode/source/app.cpp.o
                0x0000000000001d44                accel()
 .text._ZN4mbed4util19FunctionPointerBindIvE5clearEv
                0x0000000000001dd4       0x24 source/CMakeFiles/robotcode.dir/home/boogle/Final_Year/robotCode/source/app.cpp.o
                0x0000000000001dd4                mbed::util::FunctionPointerBind<void>::clear()
 .text._ZN22FXOS8700QAccelerometerD2Ev
                0x0000000000001df8       0x14 source/CMakeFiles/robotcode.dir/home/boogle/Final_Year/robotCode/source/app.cpp.o
                0x0000000000001df8                FXOS8700QAccelerometer::~FXOS8700QAccelerometer()
                0x0000000000001df8                FXOS8700QAccelerometer::~FXOS8700QAccelerometer()
 .text._ZN4mbed6SerialD2Ev
                0x0000000000001e0c       0x2c source/CMakeFiles/robotcode.dir/home/boogle/Final_Year/robotCode/source/app.cpp.o
                0x0000000000001e0c                mbed::Serial::~Serial()
                0x0000000000001e0c                mbed::Serial::~Serial()
 .text.gpio_write.constprop.3
                0x0000000000001e38       0x38 source/CMakeFiles/robotcode.dir/home/boogle/Final_Year/robotCode/source/app.cpp.o
 .text._ZN5minar9Scheduler12postCallbackEPFvvE
                0x0000000000001e70       0x48 source/CMakeFiles/robotcode.dir/home/boogle/Final_Year/robotCode/source/app.cpp.o
                0x0000000000001e70                minar::Scheduler::postCallback(void (*)())
 .text._ZL6listenv
                0x0000000000001eb8      0x108 source/CMakeFiles/robotcode.dir/home/boogle/Final_Year/robotCode/source/app.cpp.o
 .text._Z9app_startiPPc
                0x0000000000001fc0       0x2c source/CMakeFiles/robotcode.dir/home/boogle/Final_Year/robotCode/source/app.cpp.o
                0x0000000000001fc0                app_start(int, char**)
 .text.startup._GLOBAL__sub_I_m
                0x0000000000001fec       0xd8 source/CMakeFiles/robotcode.dir/home/boogle/Final_Year/robotCode/source/app.cpp.o
 .text.wait     0x00000000000020c4       0x18 ym/mbed-drivers/source/mbed-drivers.a(wait_api.c.o)
                0x00000000000020c4                wait
 .text._ZN4mbed6SerialC2E7PinNameS1_PKc
                0x00000000000020dc       0x34 ym/mbed-drivers/source/mbed-drivers.a(Serial.cpp.o)
                0x00000000000020dc                mbed::Serial::Serial(PinName, PinName, char const*)
                0x00000000000020dc                mbed::Serial::Serial(PinName, PinName, char const*)
 .text.gpio_write
                0x0000000000002110       0x34 ym/mbed-drivers/source/mbed-drivers.a(gpio.c.o)
 .text._ZN4mbed6StreamC2EPKc
                0x0000000000002144       0x48 ym/mbed-drivers/source/mbed-drivers.a(Stream.cpp.o)
                0x0000000000002144                mbed::Stream::Stream(char const*)
                0x0000000000002144                mbed::Stream::Stream(char const*)
 .text._ZN4mbed6StreamD2Ev
                0x000000000000218c       0x24 ym/mbed-drivers/source/mbed-drivers.a(Stream.cpp.o)
                0x000000000000218c                mbed::Stream::~Stream()
                0x000000000000218c                mbed::Stream::~Stream()
 .text._ZN4mbed10FileHandleD2Ev
                0x00000000000021b0       0x28 ym/mbed-drivers/source/mbed-drivers.a(retarget.cpp.o)
                0x00000000000021b0                mbed::FileHandle::~FileHandle()
                0x00000000000021b0                mbed::FileHandle::~FileHandle()
 .text._ZN4mbed16get_stdio_serialEv
                0x00000000000021d8       0x54 ym/mbed-drivers/source/mbed-drivers.a(retarget.cpp.o)
                0x00000000000021d8                mbed::get_stdio_serial()
 .text._open    0x000000000000222c       0xd0 ym/mbed-drivers/source/mbed-drivers.a(retarget.cpp.o)
                0x000000000000222c                _open
 .text._close   0x00000000000022fc       0x2c ym/mbed-drivers/source/mbed-drivers.a(retarget.cpp.o)
                0x00000000000022fc                _close
 .text._write   0x0000000000002328       0x44 ym/mbed-drivers/source/mbed-drivers.a(retarget.cpp.o)
                0x0000000000002328                _write
 .text._read    0x000000000000236c       0x38 ym/mbed-drivers/source/mbed-drivers.a(retarget.cpp.o)
                0x000000000000236c                _read
 .text._isatty  0x00000000000023a4       0x24 ym/mbed-drivers/source/mbed-drivers.a(retarget.cpp.o)
                0x00000000000023a4                _isatty
 .text._lseek   0x00000000000023c8       0x24 ym/mbed-drivers/source/mbed-drivers.a(retarget.cpp.o)
                0x00000000000023c8                _lseek
 .text.startup.main
                0x00000000000023ec       0x58 ym/mbed-drivers/source/mbed-drivers.a(retarget.cpp.o)
                0x00000000000023ec                main
 .text.error    0x0000000000002444       0x20 ym/mbed-drivers/source/mbed-drivers.a(error.c.o)
                0x0000000000002444                error
 .text._ZN4mbed3I2CC2E7PinNameS1_
                0x0000000000002464       0x98 ym/mbed-drivers/source/mbed-drivers.a(I2C.cpp.o)
                0x0000000000002464                mbed::I2C::I2C(PinName, PinName)
                0x0000000000002464                mbed::I2C::I2C(PinName, PinName)
 .text._ZN4mbed3I2C9frequencyEi
                0x00000000000024fc       0x18 ym/mbed-drivers/source/mbed-drivers.a(I2C.cpp.o)
                0x00000000000024fc                mbed::I2C::frequency(int)
 .text._ZN4mbed3I2C6aquireEv
                0x0000000000002514       0x20 ym/mbed-drivers/source/mbed-drivers.a(I2C.cpp.o)
                0x0000000000002514                mbed::I2C::aquire()
 .text.exit     0x0000000000002534       0x24 ym/mbed-drivers/source/mbed-drivers.a(exit.c.o)
                0x0000000000002534                exit
 .text.gpio_write
                0x0000000000002558       0x34 ym/mbed-drivers/source/mbed-drivers.a(Motor.cpp.o)
 .text._ZN5MotorC2E7PinNameS0_S0_
                0x000000000000258c       0x58 ym/mbed-drivers/source/mbed-drivers.a(Motor.cpp.o)
                0x000000000000258c                Motor::Motor(PinName, PinName, PinName)
                0x000000000000258c                Motor::Motor(PinName, PinName, PinName)
 .text.gpio_write
                0x00000000000025e4       0x34 ym/mbed-drivers/source/mbed-drivers.a(NRF2401P.cpp.o)
 .text._ZN8NRF2401P12statusStringEv
                0x0000000000002618       0x74 ym/mbed-drivers/source/mbed-drivers.a(NRF2401P.cpp.o)
                0x0000000000002618                NRF2401P::statusString()
 .text._ZN8NRF2401P3logEPc
                0x000000000000268c       0x2c ym/mbed-drivers/source/mbed-drivers.a(NRF2401P.cpp.o)
                0x000000000000268c                NRF2401P::log(char*)
 .text._ZN8NRF2401PC2E7PinNameS0_S0_S0_S0_
                0x00000000000026b8       0xb4 ym/mbed-drivers/source/mbed-drivers.a(NRF2401P.cpp.o)
                0x00000000000026b8                NRF2401P::NRF2401P(PinName, PinName, PinName, PinName, PinName)
                0x00000000000026b8                NRF2401P::NRF2401P(PinName, PinName, PinName, PinName, PinName)
 .text._ZN8NRF2401P15acknowledgeDataEPccc
                0x000000000000276c       0x98 ym/mbed-drivers/source/mbed-drivers.a(NRF2401P.cpp.o)
                0x000000000000276c                NRF2401P::acknowledgeData(char*, char, char)
 .text._ZN8NRF2401P8writeRegEcc
                0x0000000000002804       0x68 ym/mbed-drivers/source/mbed-drivers.a(NRF2401P.cpp.o)
                0x0000000000002804                NRF2401P::writeReg(char, char)
 .text._ZN8NRF2401P8writeRegEcPcc
                0x000000000000286c       0x90 ym/mbed-drivers/source/mbed-drivers.a(NRF2401P.cpp.o)
                0x000000000000286c                NRF2401P::writeReg(char, char*, char)
 .text._ZN8NRF2401P7readRegEcPc
                0x00000000000028fc       0x70 ym/mbed-drivers/source/mbed-drivers.a(NRF2401P.cpp.o)
                0x00000000000028fc                NRF2401P::readReg(char, char*)
 .text._ZN8NRF2401P8setRadioEcc
                0x000000000000296c       0x80 ym/mbed-drivers/source/mbed-drivers.a(NRF2401P.cpp.o)
                0x000000000000296c                NRF2401P::setRadio(char, char)
 .text._ZN8NRF2401P10setChannelEc
                0x00000000000029ec       0x5c ym/mbed-drivers/source/mbed-drivers.a(NRF2401P.cpp.o)
                0x00000000000029ec                NRF2401P::setChannel(char)
 .text._ZN8NRF2401P11clearStatusEv
                0x0000000000002a48       0x34 ym/mbed-drivers/source/mbed-drivers.a(NRF2401P.cpp.o)
                0x0000000000002a48                NRF2401P::clearStatus()
 .text._ZN8NRF2401P7flushTxEv
                0x0000000000002a7c       0x54 ym/mbed-drivers/source/mbed-drivers.a(NRF2401P.cpp.o)
                0x0000000000002a7c                NRF2401P::flushTx()
 .text._ZN8NRF2401P7flushRxEv
                0x0000000000002ad0       0x54 ym/mbed-drivers/source/mbed-drivers.a(NRF2401P.cpp.o)
                0x0000000000002ad0                NRF2401P::flushRx()
 .text._ZN8NRF2401P10getRxWidthEv
                0x0000000000002b24       0x64 ym/mbed-drivers/source/mbed-drivers.a(NRF2401P.cpp.o)
                0x0000000000002b24                NRF2401P::getRxWidth()
 .text._ZN8NRF2401P9setTxModeEv
                0x0000000000002b88       0x9c ym/mbed-drivers/source/mbed-drivers.a(NRF2401P.cpp.o)
                0x0000000000002b88                NRF2401P::setTxMode()
 .text._ZN8NRF2401P12setRxAddressEPcc
                0x0000000000002c24       0x74 ym/mbed-drivers/source/mbed-drivers.a(NRF2401P.cpp.o)
                0x0000000000002c24                NRF2401P::setRxAddress(char*, char)
 .text._ZN8NRF2401P9getRxDataEPc
                0x0000000000002c98       0xac ym/mbed-drivers/source/mbed-drivers.a(NRF2401P.cpp.o)
                0x0000000000002c98                NRF2401P::getRxData(char*)
 .text._ZN8NRF2401P8setPwrUpEv
                0x0000000000002d44       0x80 ym/mbed-drivers/source/mbed-drivers.a(NRF2401P.cpp.o)
                0x0000000000002d44                NRF2401P::setPwrUp()
 .text._ZN8NRF2401P9setRxModeEv
                0x0000000000002dc4       0xb0 ym/mbed-drivers/source/mbed-drivers.a(NRF2401P.cpp.o)
                0x0000000000002dc4                NRF2401P::setRxMode()
 .text._ZN8NRF2401P12quickRxSetupEix
                0x0000000000002e74       0x50 ym/mbed-drivers/source/mbed-drivers.a(NRF2401P.cpp.o)
                0x0000000000002e74                NRF2401P::quickRxSetup(int, long long)
 .text._ZN9FXOS8700QC2ERN4mbed3I2CEh
                0x0000000000002ec4       0x8c ym/mbed-drivers/source/mbed-drivers.a(FXOS8700Q.cpp.o)
                0x0000000000002ec4                FXOS8700Q::FXOS8700Q(mbed::I2C&, unsigned char)
                0x0000000000002ec4                FXOS8700Q::FXOS8700Q(mbed::I2C&, unsigned char)
 .text._ZN4mbed4util19FunctionPointerBaseIvEC2Ev
                0x0000000000002f50       0x20 ym/mbed-drivers/source/mbed-drivers.a(SerialBase.cpp.o)
                0x0000000000002f50                mbed::util::FunctionPointerBase<void>::FunctionPointerBase()
                0x0000000000002f50                mbed::util::FunctionPointerBase<void>::FunctionPointerBase()
 .text._ZN4mbed10SerialBaseC2E7PinNameS1_
                0x0000000000002f70       0xec ym/mbed-drivers/source/mbed-drivers.a(SerialBase.cpp.o)
                0x0000000000002f70                mbed::SerialBase::SerialBase(PinName, PinName)
                0x0000000000002f70                mbed::SerialBase::SerialBase(PinName, PinName)
 .text._ZN4mbed8FileLikeC2EPKc
                0x000000000000305c       0x28 ym/mbed-drivers/source/mbed-drivers.a(FileLike.cpp.o)
                0x000000000000305c                mbed::FileLike::FileLike(char const*)
                0x000000000000305c                mbed::FileLike::FileLike(char const*)
 .text._ZN4mbed8FileLikeD2Ev
                0x0000000000003084       0x24 ym/mbed-drivers/source/mbed-drivers.a(FileLike.cpp.o)
                0x0000000000003084                mbed::FileLike::~FileLike()
                0x0000000000003084                mbed::FileLike::~FileLike()
 .text._ZN4mbed8FileBaseD2Ev
                0x00000000000030a8       0x30 ym/mbed-drivers/source/mbed-drivers.a(FileBase.cpp.o)
                0x00000000000030a8                mbed::FileBase::~FileBase()
                0x00000000000030a8                mbed::FileBase::~FileBase()
 .text._ZN4mbed8FileBaseC2EPKcNS_8PathTypeE
                0x00000000000030d8       0x20 ym/mbed-drivers/source/mbed-drivers.a(FileBase.cpp.o)
                0x00000000000030d8                mbed::FileBase::FileBase(char const*, mbed::PathType)
                0x00000000000030d8                mbed::FileBase::FileBase(char const*, mbed::PathType)
 .text._ZN4mbed8FileBase6lookupEPKcj
                0x00000000000030f8       0x34 ym/mbed-drivers/source/mbed-drivers.a(FileBase.cpp.o)
                0x00000000000030f8                mbed::FileBase::lookup(char const*, unsigned int)
 .text._ZN4mbed17TwoWayTransactionINS_4util16FunctionPointer3IvNS_6BufferES3_iEEEC2Ev
                0x000000000000312c       0x2c ym/mbed-drivers/source/mbed-drivers.a(SPI.cpp.o)
                0x000000000000312c                mbed::TwoWayTransaction<mbed::util::FunctionPointer3<void, mbed::Buffer, mbed::Buffer, int> >::TwoWayTransaction()
                0x000000000000312c                mbed::TwoWayTransaction<mbed::util::FunctionPointer3<void, mbed::Buffer, mbed::Buffer, int> >::TwoWayTransaction()
 .text._ZN4mbed3SPIC2E7PinNameS1_S1_
                0x0000000000003158       0xa8 ym/mbed-drivers/source/mbed-drivers.a(SPI.cpp.o)
                0x0000000000003158                mbed::SPI::SPI(PinName, PinName, PinName)
                0x0000000000003158                mbed::SPI::SPI(PinName, PinName, PinName)
 .text._ZN4mbed3SPI6aquireEv
                0x0000000000003200       0x34 ym/mbed-drivers/source/mbed-drivers.a(SPI.cpp.o)
                0x0000000000003200                mbed::SPI::aquire()
 .text._ZN4mbed3SPI6formatEii14spi_bitorder_t
                0x0000000000003234       0x20 ym/mbed-drivers/source/mbed-drivers.a(SPI.cpp.o)
                0x0000000000003234                mbed::SPI::format(int, int, spi_bitorder_t)
 .text._ZN4mbed3SPI9frequencyEi
                0x0000000000003254       0x14 ym/mbed-drivers/source/mbed-drivers.a(SPI.cpp.o)
                0x0000000000003254                mbed::SPI::frequency(int)
 .text.startup._GLOBAL__sub_I__ZN4mbed3SPI19_transaction_bufferE
                0x0000000000003268       0x3c ym/mbed-drivers/source/mbed-drivers.a(SPI.cpp.o)
 .text.gpio_write
                0x00000000000032a4       0x34 ym/mbed-drivers/source/mbed-drivers.a(board.c.o)
 .text._ZN5minar12CallbackNode13get_allocatorEv
                0x00000000000032d8       0x48 ym/minar/source/minar.a(minar.cpp.o)
                0x00000000000032d8                minar::CallbackNode::get_allocator()
 .text._ZN4mbed4util19FunctionPointerBindIvEC2ERKS2_
                0x0000000000003320       0x50 ym/minar/source/minar.a(minar.cpp.o)
                0x0000000000003320                mbed::util::FunctionPointerBind<void>::FunctionPointerBind(mbed::util::FunctionPointerBind<void> const&)
                0x0000000000003320                mbed::util::FunctionPointerBind<void>::FunctionPointerBind(mbed::util::FunctionPointerBind<void> const&)
 .text._ZNK4mbed4util10BinaryHeapIPN5minar12CallbackNodeENS2_13SchedulerData19CallbackNodeCompareEE8get_rootEv
                0x0000000000003370       0x28 ym/minar/source/minar.a(minar.cpp.o)
                0x0000000000003370                mbed::util::BinaryHeap<minar::CallbackNode*, minar::SchedulerData::CallbackNodeCompare>::get_root() const
 .text._ZN5minar13SchedulerDataC2Ev
                0x0000000000003398       0x6c ym/minar/source/minar.a(minar.cpp.o)
                0x0000000000003398                minar::SchedulerData::SchedulerData()
                0x0000000000003398                minar::SchedulerData::SchedulerData()
 .text._ZN5minar9Scheduler8instanceEv
                0x0000000000003404       0x34 ym/minar/source/minar.a(minar.cpp.o)
                0x0000000000003404                minar::Scheduler::instance()
 .text._ZN5minar9Scheduler12postCallbackERKN4mbed4util19FunctionPointerBindIvEE
                0x0000000000003438       0x34 ym/minar/source/minar.a(minar.cpp.o)
                0x0000000000003438                minar::Scheduler::postCallback(mbed::util::FunctionPointerBind<void> const&)
 .text._ZN5minar13SchedulerData5startEv
                0x000000000000346c      0x174 ym/minar/source/minar.a(minar.cpp.o)
                0x000000000000346c                minar::SchedulerData::start()
 .text._ZN5minar9Scheduler5startEv
                0x00000000000035e0       0x18 ym/minar/source/minar.a(minar.cpp.o)
                0x00000000000035e0                minar::Scheduler::start()
 .text._ZN5minar13SchedulerData11postGenericEN4mbed4util19FunctionPointerBindIvEEmmm
                0x00000000000035f8       0x5c ym/minar/source/minar.a(minar.cpp.o)
                0x00000000000035f8                minar::SchedulerData::postGeneric(mbed::util::FunctionPointerBind<void>, unsigned long, unsigned long, unsigned long)
 .text.core_util_runtime_error_internal
                0x0000000000003654       0x40 ym/core-util/source/core-util.a(assert_mbed.c.o)
                0x0000000000003654                core_util_runtime_error_internal
 .text.uart_irq
                0x0000000000003694       0x38 ym/mbed-hal-ksdk-mcu/source/mbed-hal-ksdk-mcu.a(serial_api.c.o)
 .text.uart1_irq
                0x00000000000036cc       0x34 ym/mbed-hal-ksdk-mcu/source/mbed-hal-ksdk-mcu.a(serial_api.c.o)
                0x00000000000036cc                uart1_irq
 .text.uart2_irq
                0x0000000000003700       0x34 ym/mbed-hal-ksdk-mcu/source/mbed-hal-ksdk-mcu.a(serial_api.c.o)
                0x0000000000003700                uart2_irq
 .text.uart3_irq
                0x0000000000003734       0x34 ym/mbed-hal-ksdk-mcu/source/mbed-hal-ksdk-mcu.a(serial_api.c.o)
                0x0000000000003734                uart3_irq
 .text.uart4_irq
                0x0000000000003768       0x34 ym/mbed-hal-ksdk-mcu/source/mbed-hal-ksdk-mcu.a(serial_api.c.o)
                0x0000000000003768                uart4_irq
 .text.uart0_irq
                0x000000000000379c       0x48 ym/mbed-hal-ksdk-mcu/source/mbed-hal-ksdk-mcu.a(serial_api.c.o)
                0x000000000000379c                uart0_irq
 .text.serial_init
                0x00000000000037e4      0x170 ym/mbed-hal-ksdk-mcu/source/mbed-hal-ksdk-mcu.a(serial_api.c.o)
                0x00000000000037e4                serial_init
 .text.serial_irq_handler
                0x0000000000003954       0x18 ym/mbed-hal-ksdk-mcu/source/mbed-hal-ksdk-mcu.a(serial_api.c.o)
                0x0000000000003954                serial_irq_handler
 .text.CLOCK_SYS_GetFreq
                0x000000000000396c       0x90 ym/mbed-hal-ksdk-mcu/source/mbed-hal-ksdk-mcu.a(fsl_clock_manager.c.o)
                0x000000000000396c                CLOCK_SYS_GetFreq
 .text.CLOCK_SYS_GetSysClkFreq
                0x00000000000039fc       0x5c ym/mbed-hal-ksdk-mcu/source/mbed-hal-ksdk-mcu.a(fsl_clock_manager.c.o)
                0x00000000000039fc                CLOCK_SYS_GetSysClkFreq
 .text.CLOCK_HAL_SetSource
                0x0000000000003a58      0x10c ym/mbed-hal-ksdk-mcu/source/mbed-hal-ksdk-mcu.a(fsl_sim_hal.c.o)
                0x0000000000003a58                CLOCK_HAL_SetSource
 .text.CLOCK_HAL_GetDivider
                0x0000000000003b64       0xb8 ym/mbed-hal-ksdk-mcu/source/mbed-hal-ksdk-mcu.a(fsl_sim_hal.c.o)
                0x0000000000003b64                CLOCK_HAL_GetDivider
 .text.CLOCK_HAL_GetFllRefClk
                0x0000000000003c1c       0x8c ym/mbed-hal-ksdk-mcu/source/mbed-hal-ksdk-mcu.a(fsl_mcg_hal.c.o)
                0x0000000000003c1c                CLOCK_HAL_GetFllRefClk
 .text.CLOCK_HAL_GetPll0Clk
                0x0000000000003ca8       0x58 ym/mbed-hal-ksdk-mcu/source/mbed-hal-ksdk-mcu.a(fsl_mcg_hal.c.o)
                0x0000000000003ca8                CLOCK_HAL_GetPll0Clk
 .text.CLOCK_HAL_GetInternalRefClk
                0x0000000000003d00       0x40 ym/mbed-hal-ksdk-mcu/source/mbed-hal-ksdk-mcu.a(fsl_mcg_hal.c.o)
                0x0000000000003d00                CLOCK_HAL_GetInternalRefClk
 .text.CLOCK_HAL_GetOutClk
                0x0000000000003d40       0x78 ym/mbed-hal-ksdk-mcu/source/mbed-hal-ksdk-mcu.a(fsl_mcg_hal.c.o)
                0x0000000000003d40                CLOCK_HAL_GetOutClk
 .text.timeout_status_poll.isra.0
                0x0000000000003db8       0x24 ym/mbed-hal-ksdk-mcu/source/mbed-hal-ksdk-mcu.a(i2c_api.c.o)
 .text.i2c_init
                0x0000000000003ddc       0xe4 ym/mbed-hal-ksdk-mcu/source/mbed-hal-ksdk-mcu.a(i2c_api.c.o)
                0x0000000000003ddc                i2c_init
 .text.pin_function
                0x0000000000003ec0       0x6c ym/mbed-hal-ksdk-mcu/source/mbed-hal-ksdk-mcu.a(pinmap.c.o)
                0x0000000000003ec0                pin_function
 .text.pin_mode
                0x0000000000003f2c       0x80 ym/mbed-hal-ksdk-mcu/source/mbed-hal-ksdk-mcu.a(pinmap.c.o)
                0x0000000000003f2c                pin_mode
 .text.PIT_HAL_StartTimer.constprop.5
                0x0000000000003fac       0x1c ym/mbed-hal-ksdk-mcu/source/mbed-hal-ksdk-mcu.a(us_ticker.c.o)
 .text.PIT_HAL_SetTimerPeriodByCount.constprop.7
                0x0000000000003fc8       0x18 ym/mbed-hal-ksdk-mcu/source/mbed-hal-ksdk-mcu.a(us_ticker.c.o)
 .text.us_ticker_init
                0x0000000000003fe0       0xb4 ym/mbed-hal-ksdk-mcu/source/mbed-hal-ksdk-mcu.a(us_ticker.c.o)
                0x0000000000003fe0                us_ticker_init
 .text.us_ticker_read
                0x0000000000004094       0x28 ym/mbed-hal-ksdk-mcu/source/mbed-hal-ksdk-mcu.a(us_ticker.c.o)
                0x0000000000004094                us_ticker_read
 .text.us_ticker_disable_interrupt
                0x00000000000040bc       0x18 ym/mbed-hal-ksdk-mcu/source/mbed-hal-ksdk-mcu.a(us_ticker.c.o)
                0x00000000000040bc                us_ticker_disable_interrupt
 .text.us_ticker_clear_interrupt
                0x00000000000040d4       0x18 ym/mbed-hal-ksdk-mcu/source/mbed-hal-ksdk-mcu.a(us_ticker.c.o)
                0x00000000000040d4                us_ticker_clear_interrupt
 .text.us_ticker_set_interrupt
                0x00000000000040ec       0x60 ym/mbed-hal-ksdk-mcu/source/mbed-hal-ksdk-mcu.a(us_ticker.c.o)
                0x00000000000040ec                us_ticker_set_interrupt
 .text.gpio_init
                0x000000000000414c       0x68 ym/mbed-hal-ksdk-mcu/source/mbed-hal-ksdk-mcu.a(gpio_api.c.o)
                0x000000000000414c                gpio_init
 .text.gpio_dir
                0x00000000000041b4       0x44 ym/mbed-hal-ksdk-mcu/source/mbed-hal-ksdk-mcu.a(gpio_api.c.o)
                0x00000000000041b4                gpio_dir
 .text.pwmout_write
                0x00000000000041f8       0x84 ym/mbed-hal-ksdk-mcu/source/mbed-hal-ksdk-mcu.a(pwmout_api.c.o)
                0x00000000000041f8                pwmout_write
 .text.pwmout_read
                0x000000000000427c       0x78 ym/mbed-hal-ksdk-mcu/source/mbed-hal-ksdk-mcu.a(pwmout_api.c.o)
                0x000000000000427c                pwmout_read
 .text.pwmout_period_us
                0x00000000000042f4       0x8c ym/mbed-hal-ksdk-mcu/source/mbed-hal-ksdk-mcu.a(pwmout_api.c.o)
                0x00000000000042f4                pwmout_period_us
 .text.pwmout_period
                0x0000000000004380       0x20 ym/mbed-hal-ksdk-mcu/source/mbed-hal-ksdk-mcu.a(pwmout_api.c.o)
                0x0000000000004380                pwmout_period
 .text.pwmout_init
                0x00000000000043a0      0x124 ym/mbed-hal-ksdk-mcu/source/mbed-hal-ksdk-mcu.a(pwmout_api.c.o)
                0x00000000000043a0                pwmout_init
 .text.spi_format
                0x00000000000044c4       0x58 ym/mbed-hal-ksdk-mcu/source/mbed-hal-ksdk-mcu.a(spi_api.c.o)
                0x00000000000044c4                spi_format
 .text.spi_frequency
                0x000000000000451c       0x3c ym/mbed-hal-ksdk-mcu/source/mbed-hal-ksdk-mcu.a(spi_api.c.o)
                0x000000000000451c                spi_frequency
 .text.spi_init
                0x0000000000004558      0x10c ym/mbed-hal-ksdk-mcu/source/mbed-hal-ksdk-mcu.a(spi_api.c.o)
                0x0000000000004558                spi_init
 .text.DSPI_HAL_SetBaudRate
                0x0000000000004664      0x114 ym/mbed-hal-ksdk-mcu/source/mbed-hal-ksdk-mcu.a(fsl_dspi_hal.c.o)
                0x0000000000004664                DSPI_HAL_SetBaudRate
 .text.DSPI_HAL_Init
                0x0000000000004778       0xa8 ym/mbed-hal-ksdk-mcu/source/mbed-hal-ksdk-mcu.a(fsl_dspi_hal.c.o)
                0x0000000000004778                DSPI_HAL_Init
 .text.DSPI_HAL_CalculateDelay
                0x0000000000004820       0xa8 ym/mbed-hal-ksdk-mcu/source/mbed-hal-ksdk-mcu.a(fsl_dspi_hal.c.o)
                0x0000000000004820                DSPI_HAL_CalculateDelay
 .text.I2C_HAL_SetBaudRate
                0x00000000000048c8       0x90 ym/mbed-hal-ksdk-mcu/source/mbed-hal-ksdk-mcu.a(fsl_i2c_hal.c.o)
                0x00000000000048c8                I2C_HAL_SetBaudRate
 .text          0x0000000000004958       0x14 ym/mbed-hal-k64f/source/mbed-hal-k64f.a(startup_MK64F12.S.obj)
                0x0000000000004958                NMI_Handler
                0x000000000000495a                HardFault_Handler
                0x000000000000495c                MemManage_Handler
                0x000000000000495e                BusFault_Handler
                0x0000000000004960                UsageFault_Handler
                0x0000000000004962                SVC_Handler
                0x0000000000004964                DebugMon_Handler
                0x0000000000004966                PendSV_Handler
                0x0000000000004968                SysTick_Handler
                0x000000000000496a                CAN0_Rx_Warning_IRQHandler
                0x000000000000496a                I2C0_IRQHandler
                0x000000000000496a                UART3_RX_TX_IRQHandler
                0x000000000000496a                UART0_RX_TX_IRQHandler
                0x000000000000496a                I2C1_IRQHandler
                0x000000000000496a                DMA2_IRQHandler
                0x000000000000496a                ENET_Error_IRQHandler
                0x000000000000496a                CAN0_Tx_Warning_IRQHandler
                0x000000000000496a                PIT0_IRQHandler
                0x000000000000496a                CAN0_ORed_Message_buffer_IRQHandler
                0x000000000000496a                Watchdog_IRQHandler
                0x000000000000496a                CMP2_IRQHandler
                0x000000000000496a                ENET_Receive_IRQHandler
                0x000000000000496a                ENET_1588_Timer_IRQHandler
                0x000000000000496a                UART2_RX_TX_IRQHandler
                0x000000000000496a                SWI_IRQHandler
                0x000000000000496a                ADC0_IRQHandler
                0x000000000000496a                I2S0_Tx_IRQHandler
                0x000000000000496a                CMT_IRQHandler
                0x000000000000496a                UART4_RX_TX_IRQHandler
                0x000000000000496a                SPI1_IRQHandler
                0x000000000000496a                DefaultISR
                0x000000000000496a                DMA9_IRQHandler
                0x000000000000496a                DMA14_IRQHandler
                0x000000000000496a                CMP1_IRQHandler
                0x000000000000496a                Reserved71_IRQHandler
                0x000000000000496a                PORTD_IRQHandler
                0x000000000000496a                PORTB_IRQHandler
                0x000000000000496a                UART4_ERR_IRQHandler
                0x000000000000496a                ADC1_IRQHandler
                0x000000000000496a                I2C2_IRQHandler
                0x000000000000496a                PIT2_IRQHandler
                0x000000000000496a                I2S0_Rx_IRQHandler
                0x000000000000496a                LPTimer_IRQHandler
                0x000000000000496a                DMA5_IRQHandler
                0x000000000000496a                RTC_IRQHandler
                0x000000000000496a                PDB0_IRQHandler
                0x000000000000496a                FTM1_IRQHandler
                0x000000000000496a                UART5_RX_TX_IRQHandler
                0x000000000000496a                UART3_ERR_IRQHandler
                0x000000000000496a                PIT3_IRQHandler
                0x000000000000496a                SDHC_IRQHandler
                0x000000000000496a                RTC_Seconds_IRQHandler
                0x000000000000496a                MCG_IRQHandler
                0x000000000000496a                FTFE_IRQHandler
                0x000000000000496a                UART2_ERR_IRQHandler
                0x000000000000496a                DMA11_IRQHandler
                0x000000000000496a                UART5_ERR_IRQHandler
                0x000000000000496a                Read_Collision_IRQHandler
                0x000000000000496a                Default_Handler
                0x000000000000496a                DMA7_IRQHandler
                0x000000000000496a                ENET_Transmit_IRQHandler
                0x000000000000496a                USBDCD_IRQHandler
                0x000000000000496a                USB0_IRQHandler
                0x000000000000496a                LLW_IRQHandler
                0x000000000000496a                SPI2_IRQHandler
                0x000000000000496a                DMA13_IRQHandler
                0x000000000000496a                DMA3_IRQHandler
                0x000000000000496a                UART0_LON_IRQHandler
                0x000000000000496a                RNG_IRQHandler
                0x000000000000496a                DMA0_IRQHandler
                0x000000000000496a                DMA15_IRQHandler
                0x000000000000496a                DAC0_IRQHandler
                0x000000000000496a                CAN0_Error_IRQHandler
                0x000000000000496a                DMA4_IRQHandler
                0x000000000000496a                PIT1_IRQHandler
                0x000000000000496a                UART0_ERR_IRQHandler
                0x000000000000496a                DMA_Error_IRQHandler
                0x000000000000496a                LVD_LVW_IRQHandler
                0x000000000000496a                SPI0_IRQHandler
                0x000000000000496a                FTM0_IRQHandler
                0x000000000000496a                PORTA_IRQHandler
                0x000000000000496a                DAC1_IRQHandler
                0x000000000000496a                MCM_IRQHandler
                0x000000000000496a                DMA12_IRQHandler
                0x000000000000496a                CAN0_Bus_Off_IRQHandler
                0x000000000000496a                FTM3_IRQHandler
                0x000000000000496a                PORTE_IRQHandler
                0x000000000000496a                FTM2_IRQHandler
                0x000000000000496a                DMA8_IRQHandler
                0x000000000000496a                DMA10_IRQHandler
                0x000000000000496a                CAN0_Wake_Up_IRQHandler
                0x000000000000496a                UART1_ERR_IRQHandler
                0x000000000000496a                UART1_RX_TX_IRQHandler
                0x000000000000496a                CMP0_IRQHandler
                0x000000000000496a                PORTC_IRQHandler
                0x000000000000496a                DMA6_IRQHandler
                0x000000000000496a                DMA1_IRQHandler
 .text.Reset_Handler
                0x000000000000496c       0x60 ym/mbed-hal-k64f/source/mbed-hal-k64f.a(startup_MK64F12.S.obj)
                0x000000000000496c                Reset_Handler
 .text.SIM_HAL_EnablePortClock
                0x00000000000049cc       0x50 ym/mbed-hal-k64f/source/mbed-hal-k64f.a(fsl_sim_hal_K64F12.c.o)
                0x00000000000049cc                SIM_HAL_EnablePortClock
 .text.SIM_HAL_EnableFtmClock
                0x0000000000004a1c       0x48 ym/mbed-hal-k64f/source/mbed-hal-k64f.a(fsl_sim_hal_K64F12.c.o)
                0x0000000000004a1c                SIM_HAL_EnableFtmClock
 .text.SIM_HAL_EnablePitClock
                0x0000000000004a64       0x1c ym/mbed-hal-k64f/source/mbed-hal-k64f.a(fsl_sim_hal_K64F12.c.o)
                0x0000000000004a64                SIM_HAL_EnablePitClock
 .text.SIM_HAL_EnableLptimerClock
                0x0000000000004a80       0x1c ym/mbed-hal-k64f/source/mbed-hal-k64f.a(fsl_sim_hal_K64F12.c.o)
                0x0000000000004a80                SIM_HAL_EnableLptimerClock
 .text.SIM_HAL_EnableRtcClock
                0x0000000000004a9c       0x1c ym/mbed-hal-k64f/source/mbed-hal-k64f.a(fsl_sim_hal_K64F12.c.o)
                0x0000000000004a9c                SIM_HAL_EnableRtcClock
 .text.SIM_HAL_EnableSpiClock
                0x0000000000004ab8       0x3c ym/mbed-hal-k64f/source/mbed-hal-k64f.a(fsl_sim_hal_K64F12.c.o)
                0x0000000000004ab8                SIM_HAL_EnableSpiClock
 .text.SIM_HAL_EnableI2cClock
                0x0000000000004af4       0x3c ym/mbed-hal-k64f/source/mbed-hal-k64f.a(fsl_sim_hal_K64F12.c.o)
                0x0000000000004af4                SIM_HAL_EnableI2cClock
 .text.SIM_HAL_EnableUartClock
                0x0000000000004b30       0x5c ym/mbed-hal-k64f/source/mbed-hal-k64f.a(fsl_sim_hal_K64F12.c.o)
                0x0000000000004b30                SIM_HAL_EnableUartClock
 .text.us_ticker_irq_handler
                0x0000000000004b8c        0xc ym/mbed-drivers/source/mbed-drivers.a(us_ticker_api.c.o)
                0x0000000000004b8c                us_ticker_irq_handler
 .text.pinmap_pinout
                0x0000000000004b98       0x38 ym/mbed-drivers/source/mbed-drivers.a(pinmap_common.c.o)
                0x0000000000004b98                pinmap_pinout
 .text.pinmap_merge
                0x0000000000004bd0       0x24 ym/mbed-drivers/source/mbed-drivers.a(pinmap_common.c.o)
                0x0000000000004bd0                pinmap_merge
 .text.pinmap_peripheral
                0x0000000000004bf4       0x20 ym/mbed-drivers/source/mbed-drivers.a(pinmap_common.c.o)
                0x0000000000004bf4                pinmap_peripheral
 .text.mbed_enter_sleep
                0x0000000000004c14       0x50 ym/mbed-hal-ksdk-mcu/source/mbed-hal-ksdk-mcu.a(sleep.c.o)
                0x0000000000004c14                mbed_enter_sleep
 .text.RTC_HAL_GetPrescaler.constprop.1
                0x0000000000004c64       0x18 ym/mbed-hal-ksdk-mcu/source/mbed-hal-ksdk-mcu.a(lp_ticker.c.o)
 .text.LPTMR_HAL_SetCompareValue.constprop.2
                0x0000000000004c7c       0x30 ym/mbed-hal-ksdk-mcu/source/mbed-hal-ksdk-mcu.a(lp_ticker.c.o)
 .text.lptmr_isr
                0x0000000000004cac       0x1c ym/mbed-hal-ksdk-mcu/source/mbed-hal-ksdk-mcu.a(lp_ticker.c.o)
 .text.RTC_HAL_EnableCounter.constprop.11
                0x0000000000004cc8       0x18 ym/mbed-hal-ksdk-mcu/source/mbed-hal-ksdk-mcu.a(lp_ticker.c.o)
 .text.RTC_HAL_SetAlarmReg.constprop.12
                0x0000000000004ce0       0x18 ym/mbed-hal-ksdk-mcu/source/mbed-hal-ksdk-mcu.a(lp_ticker.c.o)
 .text.RTC_HAL_SetAlarmIntCmd.constprop.14
                0x0000000000004cf8       0x18 ym/mbed-hal-ksdk-mcu/source/mbed-hal-ksdk-mcu.a(lp_ticker.c.o)
 .text.rct_isr  0x0000000000004d10       0x38 ym/mbed-hal-ksdk-mcu/source/mbed-hal-ksdk-mcu.a(lp_ticker.c.o)
 .text.lp_ticker_init
                0x0000000000004d48      0x120 ym/mbed-hal-ksdk-mcu/source/mbed-hal-ksdk-mcu.a(lp_ticker.c.o)
                0x0000000000004d48                lp_ticker_init
 .text.lp_ticker_read
                0x0000000000004e68       0x3c ym/mbed-hal-ksdk-mcu/source/mbed-hal-ksdk-mcu.a(lp_ticker.c.o)
                0x0000000000004e68                lp_ticker_read
 .text.lp_ticker_get_compare_match
                0x0000000000004ea4        0xc ym/mbed-hal-ksdk-mcu/source/mbed-hal-ksdk-mcu.a(lp_ticker.c.o)
                0x0000000000004ea4                lp_ticker_get_compare_match
 .text.lp_ticker_set_interrupt
                0x0000000000004eb0       0x7c ym/mbed-hal-ksdk-mcu/source/mbed-hal-ksdk-mcu.a(lp_ticker.c.o)
                0x0000000000004eb0                lp_ticker_set_interrupt
 .text.lp_ticker_sleep_until
                0x0000000000004f2c       0x38 ym/mbed-hal-ksdk-mcu/source/mbed-hal-ksdk-mcu.a(lp_ticker.c.o)
                0x0000000000004f2c                lp_ticker_sleep_until
 .text.mbed_urealloc
                0x0000000000004f64       0x38 ym/ualloc/source/ualloc.a(ualloc.c.o)
                0x0000000000004f64                mbed_urealloc
 .text.mbed_ufree
                0x0000000000004f9c       0x1c ym/ualloc/source/ualloc.a(ualloc.c.o)
                0x0000000000004f9c                mbed_ufree
 .text.init_mparams
                0x0000000000004fb8       0x40 ym/dlmalloc/source/dlmalloc.a(dlmalloc.c.o)
 .text.init_top.constprop.16
                0x0000000000004ff8       0x38 ym/dlmalloc/source/dlmalloc.a(dlmalloc.c.o)
 .text.dispose_chunk.constprop.17
                0x0000000000005030      0x3e4 ym/dlmalloc/source/dlmalloc.a(dlmalloc.c.o)
 .text.try_realloc_chunk.isra.3.constprop.6
                0x0000000000005414      0x2cc ym/dlmalloc/source/dlmalloc.a(dlmalloc.c.o)
 .text.segment_holding.constprop.18
                0x00000000000056e0       0x20 ym/dlmalloc/source/dlmalloc.a(dlmalloc.c.o)
 .text.dlmalloc
                0x0000000000005700      0xe2c ym/dlmalloc/source/dlmalloc.a(dlmalloc.c.o)
                0x0000000000005700                dlmalloc
 .text.dlfree   0x000000000000652c      0x438 ym/dlmalloc/source/dlmalloc.a(dlmalloc.c.o)
                0x000000000000652c                dlfree
 .text.SystemInit
                0x0000000000006964      0x138 ym/cmsis-core-k64f/source/cmsis-core-k64f.a(system_MK64F12.c.o)
                0x0000000000006964                SystemInit
 .text.vIRQ_SetVectorX
                0x0000000000006a9c       0x14 ym/uvisor-lib/source/uvisor-lib.a(interrupts.cpp.o)
                0x0000000000006a9c                vIRQ_SetVectorX
 .text.vIRQ_EnableIRQ
                0x0000000000006ab0       0x28 ym/uvisor-lib/source/uvisor-lib.a(interrupts.cpp.o)
                0x0000000000006ab0                vIRQ_EnableIRQ
 .text.vIRQ_ClearPendingIRQ
                0x0000000000006ad8       0x2c ym/uvisor-lib/source/uvisor-lib.a(interrupts.cpp.o)
                0x0000000000006ad8                vIRQ_ClearPendingIRQ
 .text.uvisor_disabled_switch_in
                0x0000000000006b04       0xb4 ym/uvisor-lib/source/uvisor-lib.a(disabled.cpp.o)
                0x0000000000006b04                uvisor_disabled_switch_in
 .text.uvisor_disabled_switch_out
                0x0000000000006bb8       0x38 ym/uvisor-lib/source/uvisor-lib.a(disabled.cpp.o)
                0x0000000000006bb8                uvisor_disabled_switch_out
 .text._ZL30uvisor_disabled_default_vectorv
                0x0000000000006bf0       0x4c ym/uvisor-lib/source/uvisor-lib.a(disabled.cpp.o)
 .text.uvisor_disabled_set_vector
                0x0000000000006c3c       0x48 ym/uvisor-lib/source/uvisor-lib.a(disabled.cpp.o)
                0x0000000000006c3c                uvisor_disabled_set_vector
 .text._ZSt15get_new_handlerv
                0x0000000000006c84       0x10 /usr/bin/../lib/gcc/arm-none-eabi/4.9.3/../../../../arm-none-eabi/lib/armv7e-m/libstdc++_nano.a(new_handler.o)
                0x0000000000006c84                std::get_new_handler()
 .text          0x0000000000006c94      0x21c /usr/bin/../lib/gcc/arm-none-eabi/4.9.3/armv7e-m/libgcc.a(_arm_addsubsf3.o)
                0x0000000000006c94                __aeabi_frsub
                0x0000000000006c9c                __subsf3
                0x0000000000006c9c                __aeabi_fsub
                0x0000000000006ca0                __aeabi_fadd
                0x0000000000006ca0                __addsf3
                0x0000000000006e00                __aeabi_ui2f
                0x0000000000006e00                __floatunsisf
                0x0000000000006e08                __aeabi_i2f
                0x0000000000006e08                __floatsisf
                0x0000000000006e24                __floatundisf
                0x0000000000006e24                __aeabi_ul2f
                0x0000000000006e34                __floatdisf
                0x0000000000006e34                __aeabi_l2f
 .text          0x0000000000006eb0      0x2a0 /usr/bin/../lib/gcc/arm-none-eabi/4.9.3/armv7e-m/libgcc.a(_arm_muldivsf3.o)
                0x0000000000006eb0                __mulsf3
                0x0000000000006eb0                __aeabi_fmul
                0x0000000000007018                __divsf3
                0x0000000000007018                __aeabi_fdiv
 .text          0x0000000000007150       0xec /usr/bin/../lib/gcc/arm-none-eabi/4.9.3/armv7e-m/libgcc.a(_arm_cmpsf2.o)
                0x0000000000007150                __gtsf2
                0x0000000000007150                __gesf2
                0x0000000000007158                __lesf2
                0x0000000000007158                __ltsf2
                0x0000000000007160                __nesf2
                0x0000000000007160                __eqsf2
                0x0000000000007160                __cmpsf2
                0x00000000000071c0                __aeabi_cfrcmple
                0x00000000000071c8                __aeabi_cfcmple
                0x00000000000071c8                __aeabi_cfcmpeq
                0x00000000000071d8                __aeabi_fcmpeq
                0x00000000000071ec                __aeabi_fcmplt
                0x0000000000007200                __aeabi_fcmple
                0x0000000000007214                __aeabi_fcmpge
                0x0000000000007228                __aeabi_fcmpgt
 .text          0x000000000000723c       0x4c /usr/bin/../lib/gcc/arm-none-eabi/4.9.3/armv7e-m/libgcc.a(_arm_fixsfsi.o)
                0x000000000000723c                __fixsfsi
                0x000000000000723c                __aeabi_f2iz
 .text          0x0000000000007288       0x40 /usr/bin/../lib/gcc/arm-none-eabi/4.9.3/armv7e-m/libgcc.a(_arm_fixunssfsi.o)
                0x0000000000007288                __aeabi_f2uiz
                0x0000000000007288                __fixunssfsi
 .text          0x00000000000072c8       0x30 /usr/bin/../lib/gcc/arm-none-eabi/4.9.3/armv7e-m/libgcc.a(_aeabi_uldivmod.o)
                0x00000000000072c8                __aeabi_uldivmod
 .text          0x00000000000072f8       0x60 /usr/bin/../lib/gcc/arm-none-eabi/4.9.3/armv7e-m/libgcc.a(bpabi.o)
                0x00000000000072f8                __gnu_ldivmod_helper
                0x0000000000007328                __gnu_uldivmod_helper
 .text          0x0000000000007358        0x4 /usr/bin/../lib/gcc/arm-none-eabi/4.9.3/armv7e-m/libgcc.a(_dvmd_tls.o)
                0x0000000000007358                __aeabi_ldiv0
                0x0000000000007358                __aeabi_idiv0
 .text          0x000000000000735c      0x29c /usr/bin/../lib/gcc/arm-none-eabi/4.9.3/armv7e-m/libgcc.a(_divdi3.o)
                0x000000000000735c                __divdi3
 .text          0x00000000000075f8      0x26c /usr/bin/../lib/gcc/arm-none-eabi/4.9.3/armv7e-m/libgcc.a(_udivdi3.o)
                0x00000000000075f8                __udivdi3
 .text.__cxa_atexit
                0x0000000000007864       0x1c /usr/bin/../lib/gcc/arm-none-eabi/4.9.3/../../../../arm-none-eabi/lib/armv7e-m/libc_nano.a(lib_a-cxa_atexit.o)
                0x0000000000007864                __cxa_atexit
 .text.__errno  0x0000000000007880        0xc /usr/bin/../lib/gcc/arm-none-eabi/4.9.3/../../../../arm-none-eabi/lib/armv7e-m/libc_nano.a(lib_a-errno.o)
                0x0000000000007880                __errno
 .text._fclose_r
                0x000000000000788c       0xa4 /usr/bin/../lib/gcc/arm-none-eabi/4.9.3/../../../../arm-none-eabi/lib/armv7e-m/libc_nano.a(lib_a-fclose.o)
                0x000000000000788c                _fclose_r
 .text.fclose   0x0000000000007930       0x10 /usr/bin/../lib/gcc/arm-none-eabi/4.9.3/../../../../arm-none-eabi/lib/armv7e-m/libc_nano.a(lib_a-fclose.o)
                0x0000000000007930                fclose
 .text._fflush_r
                0x0000000000007940       0x54 /usr/bin/../lib/gcc/arm-none-eabi/4.9.3/../../../../arm-none-eabi/lib/armv7e-m/libc_nano.a(lib_a-fflush.o)
                0x0000000000007940                _fflush_r
 .text.fflush   0x0000000000007994       0x24 /usr/bin/../lib/gcc/arm-none-eabi/4.9.3/../../../../arm-none-eabi/lib/armv7e-m/libc_nano.a(lib_a-fflush.o)
                0x0000000000007994                fflush
 .text._fgetc_r
                0x00000000000079b8       0x58 /usr/bin/../lib/gcc/arm-none-eabi/4.9.3/../../../../arm-none-eabi/lib/armv7e-m/libc_nano.a(lib_a-fgetc.o)
                0x00000000000079b8                _fgetc_r
 .text.fgetc    0x0000000000007a10       0x10 /usr/bin/../lib/gcc/arm-none-eabi/4.9.3/../../../../arm-none-eabi/lib/armv7e-m/libc_nano.a(lib_a-fgetc.o)
                0x0000000000007a10                fgetc
 .text._cleanup_r
                0x0000000000007a20        0xc /usr/bin/../lib/gcc/arm-none-eabi/4.9.3/../../../../arm-none-eabi/lib/armv7e-m/libc_nano.a(lib_a-findfp.o)
                0x0000000000007a20                _cleanup_r
 .text.std.isra.0
                0x0000000000007a2c       0x48 /usr/bin/../lib/gcc/arm-none-eabi/4.9.3/../../../../arm-none-eabi/lib/armv7e-m/libc_nano.a(lib_a-findfp.o)
 .text.__sinit  0x0000000000007a74       0x60 /usr/bin/../lib/gcc/arm-none-eabi/4.9.3/../../../../arm-none-eabi/lib/armv7e-m/libc_nano.a(lib_a-findfp.o)
                0x0000000000007a74                __sinit
 .text.__sfp    0x0000000000007ad4       0x74 /usr/bin/../lib/gcc/arm-none-eabi/4.9.3/../../../../arm-none-eabi/lib/armv7e-m/libc_nano.a(lib_a-findfp.o)
                0x0000000000007ad4                __sfp
 .text._fopen_r
                0x0000000000007b48       0x80 /usr/bin/../lib/gcc/arm-none-eabi/4.9.3/../../../../arm-none-eabi/lib/armv7e-m/libc_nano.a(lib_a-fopen.o)
                0x0000000000007b48                _fopen_r
 .text.fopen    0x0000000000007bc8       0x14 /usr/bin/../lib/gcc/arm-none-eabi/4.9.3/../../../../arm-none-eabi/lib/armv7e-m/libc_nano.a(lib_a-fopen.o)
                0x0000000000007bc8                fopen
 .text.fprintf  0x0000000000007bdc       0x24 /usr/bin/../lib/gcc/arm-none-eabi/4.9.3/../../../../arm-none-eabi/lib/armv7e-m/libc_nano.a(lib_a-fprintf.o)
                0x0000000000007bdc                fprintf
                0x0000000000007bdc                fiprintf
 .text._fputc_r
                0x0000000000007c00       0x48 /usr/bin/../lib/gcc/arm-none-eabi/4.9.3/../../../../arm-none-eabi/lib/armv7e-m/libc_nano.a(lib_a-fputc.o)
                0x0000000000007c00                _fputc_r
 .text.fputc    0x0000000000007c48       0x14 /usr/bin/../lib/gcc/arm-none-eabi/4.9.3/../../../../arm-none-eabi/lib/armv7e-m/libc_nano.a(lib_a-fputc.o)
                0x0000000000007c48                fputc
 .text._fseeko_r
                0x0000000000007c5c      0x118 /usr/bin/../lib/gcc/arm-none-eabi/4.9.3/../../../../arm-none-eabi/lib/armv7e-m/libc_nano.a(lib_a-fseeko.o)
                0x0000000000007c5c                _fseeko_r
 .text.__libc_init_array
                0x0000000000007d74       0x4c /usr/bin/../lib/gcc/arm-none-eabi/4.9.3/../../../../arm-none-eabi/lib/armv7e-m/libc_nano.a(lib_a-init.o)
                0x0000000000007d74                __libc_init_array
 .text.__smakebuf_r
                0x0000000000007dc0       0x9c /usr/bin/../lib/gcc/arm-none-eabi/4.9.3/../../../../arm-none-eabi/lib/armv7e-m/libc_nano.a(lib_a-makebuf.o)
                0x0000000000007dc0                __smakebuf_r
 .text.malloc   0x0000000000007e5c       0x10 /usr/bin/../lib/gcc/arm-none-eabi/4.9.3/../../../../arm-none-eabi/lib/armv7e-m/libc_nano.a(lib_a-malloc.o)
                0x0000000000007e5c                malloc
 .text.free     0x0000000000007e6c       0x10 /usr/bin/../lib/gcc/arm-none-eabi/4.9.3/../../../../arm-none-eabi/lib/armv7e-m/libc_nano.a(lib_a-malloc.o)
                0x0000000000007e6c                free
 .text._vfprintf_r
                0x0000000000007e7c      0x210 /usr/bin/../lib/gcc/arm-none-eabi/4.9.3/../../../../arm-none-eabi/lib/armv7e-m/libc_nano.a(lib_a-nano-vfprintf.o)
                0x0000000000007e7c                _vfiprintf_r
                0x0000000000007e7c                _vfprintf_r
 .text.vfprintf
                0x000000000000808c       0x1c /usr/bin/../lib/gcc/arm-none-eabi/4.9.3/../../../../arm-none-eabi/lib/armv7e-m/libc_nano.a(lib_a-nano-vfprintf.o)
                0x000000000000808c                vfiprintf
                0x000000000000808c                vfprintf
 .text._printf_i
                0x00000000000080a8      0x240 /usr/bin/../lib/gcc/arm-none-eabi/4.9.3/../../../../arm-none-eabi/lib/armv7e-m/libc_nano.a(lib_a-nano-vfprintf_i.o)
                0x00000000000080a8                _printf_i
 .text._scanf_chars
                0x00000000000082e8       0xc0 /usr/bin/../lib/gcc/arm-none-eabi/4.9.3/../../../../arm-none-eabi/lib/armv7e-m/libc_nano.a(lib_a-nano-vfscanf_i.o)
                0x00000000000082e8                _scanf_chars
 .text._scanf_i
                0x00000000000083a8      0x1e4 /usr/bin/../lib/gcc/arm-none-eabi/4.9.3/../../../../arm-none-eabi/lib/armv7e-m/libc_nano.a(lib_a-nano-vfscanf_i.o)
                0x00000000000083a8                _scanf_i
 .text._open_r  0x000000000000858c       0x24 /usr/bin/../lib/gcc/arm-none-eabi/4.9.3/../../../../arm-none-eabi/lib/armv7e-m/libc_nano.a(lib_a-openr.o)
                0x000000000000858c                _open_r
 .text.printf   0x00000000000085b0       0x30 /usr/bin/../lib/gcc/arm-none-eabi/4.9.3/../../../../arm-none-eabi/lib/armv7e-m/libc_nano.a(lib_a-printf.o)
                0x00000000000085b0                printf
                0x00000000000085b0                iprintf
 .text._putc_r  0x00000000000085e0       0x78 /usr/bin/../lib/gcc/arm-none-eabi/4.9.3/../../../../arm-none-eabi/lib/armv7e-m/libc_nano.a(lib_a-putc.o)
                0x00000000000085e0                _putc_r
 .text.__srefill_r
                0x0000000000008658      0x10c /usr/bin/../lib/gcc/arm-none-eabi/4.9.3/../../../../arm-none-eabi/lib/armv7e-m/libc_nano.a(lib_a-refill.o)
                0x0000000000008658                __srefill_r
 .text.__srget_r
                0x0000000000008764       0x58 /usr/bin/../lib/gcc/arm-none-eabi/4.9.3/../../../../arm-none-eabi/lib/armv7e-m/libc_nano.a(lib_a-rget.o)
                0x0000000000008764                __srget_r
 .text.setvbuf  0x00000000000087bc      0x110 /usr/bin/../lib/gcc/arm-none-eabi/4.9.3/../../../../arm-none-eabi/lib/armv7e-m/libc_nano.a(lib_a-setvbuf.o)
                0x00000000000087bc                setvbuf
 .text.raise    0x00000000000088cc       0x10 /usr/bin/../lib/gcc/arm-none-eabi/4.9.3/../../../../arm-none-eabi/lib/armv7e-m/libc_nano.a(lib_a-signal.o)
                0x00000000000088cc                raise
 .text._kill_r  0x00000000000088dc       0x24 /usr/bin/../lib/gcc/arm-none-eabi/4.9.3/../../../../arm-none-eabi/lib/armv7e-m/libc_nano.a(lib_a-signalr.o)
                0x00000000000088dc                _kill_r
 .text.sprintf  0x0000000000008900       0x48 /usr/bin/../lib/gcc/arm-none-eabi/4.9.3/../../../../arm-none-eabi/lib/armv7e-m/libc_nano.a(lib_a-sprintf.o)
                0x0000000000008900                sprintf
                0x0000000000008900                siprintf
 .text.sscanf   0x0000000000008948       0x54 /usr/bin/../lib/gcc/arm-none-eabi/4.9.3/../../../../arm-none-eabi/lib/armv7e-m/libc_nano.a(lib_a-sscanf.o)
                0x0000000000008948                sscanf
                0x0000000000008948                siscanf
 .text._strtol_r
                0x000000000000899c      0x10c /usr/bin/../lib/gcc/arm-none-eabi/4.9.3/../../../../arm-none-eabi/lib/armv7e-m/libc_nano.a(lib_a-strtol.o)
                0x000000000000899c                _strtol_r
 .text._strtoul_r
                0x0000000000008aa8       0xf8 /usr/bin/../lib/gcc/arm-none-eabi/4.9.3/../../../../arm-none-eabi/lib/armv7e-m/libc_nano.a(lib_a-strtoul.o)
                0x0000000000008aa8                _strtoul_r
 .text.__swbuf_r
                0x0000000000008ba0       0xa8 /usr/bin/../lib/gcc/arm-none-eabi/4.9.3/../../../../arm-none-eabi/lib/armv7e-m/libc_nano.a(lib_a-wbuf.o)
                0x0000000000008ba0                __swbuf_r
 .text._write_r
                0x0000000000008c48       0x24 /usr/bin/../lib/gcc/arm-none-eabi/4.9.3/../../../../arm-none-eabi/lib/armv7e-m/libc_nano.a(lib_a-writer.o)
                0x0000000000008c48                _write_r
 .text.__swsetup_r
                0x0000000000008c6c       0xd8 /usr/bin/../lib/gcc/arm-none-eabi/4.9.3/../../../../arm-none-eabi/lib/armv7e-m/libc_nano.a(lib_a-wsetup.o)
                0x0000000000008c6c                __swsetup_r
 .text._close_r
                0x0000000000008d44       0x20 /usr/bin/../lib/gcc/arm-none-eabi/4.9.3/../../../../arm-none-eabi/lib/armv7e-m/libc_nano.a(lib_a-closer.o)
                0x0000000000008d44                _close_r
 .text._fstat_r
                0x0000000000008d64       0x24 /usr/bin/../lib/gcc/arm-none-eabi/4.9.3/../../../../arm-none-eabi/lib/armv7e-m/libc_nano.a(lib_a-fstatr.o)
                0x0000000000008d64                _fstat_r
 .text._isatty_r
                0x0000000000008d88       0x20 /usr/bin/../lib/gcc/arm-none-eabi/4.9.3/../../../../arm-none-eabi/lib/armv7e-m/libc_nano.a(lib_a-isattyr.o)
                0x0000000000008d88                _isatty_r
 .text._lseek_r
                0x0000000000008da8       0x24 /usr/bin/../lib/gcc/arm-none-eabi/4.9.3/../../../../arm-none-eabi/lib/armv7e-m/libc_nano.a(lib_a-lseekr.o)
                0x0000000000008da8                _lseek_r
 .text._svfprintf_r
                0x0000000000008dcc      0x1e4 /usr/bin/../lib/gcc/arm-none-eabi/4.9.3/../../../../arm-none-eabi/lib/armv7e-m/libc_nano.a(lib_a-nano-svfprintf.o)
                0x0000000000008dcc                _svfprintf_r
                0x0000000000008dcc                _svfiprintf_r
 .text.__ssvfscanf_r
                0x0000000000008fb0      0x29c /usr/bin/../lib/gcc/arm-none-eabi/4.9.3/../../../../arm-none-eabi/lib/armv7e-m/libc_nano.a(lib_a-nano-svfscanf.o)
                0x0000000000008fb0                __ssvfscanf_r
                0x0000000000008fb0                __ssvfiscanf_r
 .text._read_r  0x000000000000924c       0x24 /usr/bin/../lib/gcc/arm-none-eabi/4.9.3/../../../../arm-none-eabi/lib/armv7e-m/libc_nano.a(lib_a-readr.o)
                0x000000000000924c                _read_r
 .text.mbed_sbrk
                0x0000000000009270       0x5c ym/core-util/source/core-util.a(sbrk.cpp.o)
                0x0000000000009270                mbed_sbrk
 .text.mbed_krbs_ex
                0x00000000000092cc       0x54 ym/core-util/source/core-util.a(sbrk.cpp.o)
                0x00000000000092cc                mbed_krbs_ex
 .text.NVIC_SetVector
                0x0000000000009320       0x38 ym/cmsis-core/source/cmsis-core.a(cmsis_nvic.c.o)
                0x0000000000009320                NVIC_SetVector
 .text._ZN4mbed4util19FunctionPointerBaseIvE15_null_copy_argsEPvS3_
                0x0000000000009358        0x2 source/CMakeFiles/robotcode.dir/home/boogle/Final_Year/robotCode/source/app.cpp.o
                0x0000000000009358                mbed::util::FunctionPointerBase<void>::_null_copy_args(void*, void*)
 .text._ZN4mbed4util19FunctionPointerBaseIvE16_null_destructorEPv
                0x000000000000935a        0x2 source/CMakeFiles/robotcode.dir/home/boogle/Final_Year/robotCode/source/app.cpp.o
                0x000000000000935a                mbed::util::FunctionPointerBase<void>::_null_destructor(void*)
 .text._ZN4mbed4util19FunctionPointerBaseIvED2Ev
                0x000000000000935c        0x2 source/CMakeFiles/robotcode.dir/home/boogle/Final_Year/robotCode/source/app.cpp.o
                0x000000000000935c                mbed::util::FunctionPointerBase<void>::~FunctionPointerBase()
                0x000000000000935c                mbed::util::FunctionPointerBase<void>::~FunctionPointerBase()
 .text._ZN4mbed4util16FunctionPointer0IvE12staticcallerEPvPcS3_
                0x000000000000935e        0x2 source/CMakeFiles/robotcode.dir/home/boogle/Final_Year/robotCode/source/app.cpp.o
                0x000000000000935e                mbed::util::FunctionPointer0<void>::staticcaller(void*, char*, void*)
 .text._ZN4mbed4util16FunctionPointer0IvED2Ev
                0x0000000000009360        0x2 source/CMakeFiles/robotcode.dir/home/boogle/Final_Year/robotCode/source/app.cpp.o
                0x0000000000009360                mbed::util::FunctionPointer0<void>::~FunctionPointer0()
                0x0000000000009360                mbed::util::FunctionPointer0<void>::~FunctionPointer0()
 .text._ZN4mbed3I2CD2Ev
                0x0000000000009362        0x2 source/CMakeFiles/robotcode.dir/home/boogle/Final_Year/robotCode/source/app.cpp.o
                0x0000000000009362                mbed::I2C::~I2C()
                0x0000000000009362                mbed::I2C::~I2C()
 .text._ZN4mbed4util16FunctionPointer2IvNS_6BufferEiED2Ev
                0x0000000000009364        0x2 source/CMakeFiles/robotcode.dir/home/boogle/Final_Year/robotCode/source/app.cpp.o
                0x0000000000009364                mbed::util::FunctionPointer2<void, mbed::Buffer, int>::~FunctionPointer2()
                0x0000000000009364                mbed::util::FunctionPointer2<void, mbed::Buffer, int>::~FunctionPointer2()
 .text._ZN4mbed4util16FunctionPointer3IvNS_6BufferES2_iED2Ev
                0x0000000000009366        0x2 source/CMakeFiles/robotcode.dir/home/boogle/Final_Year/robotCode/source/app.cpp.o
                0x0000000000009366                mbed::util::FunctionPointer3<void, mbed::Buffer, mbed::Buffer, int>::~FunctionPointer3()
                0x0000000000009366                mbed::util::FunctionPointer3<void, mbed::Buffer, mbed::Buffer, int>::~FunctionPointer3()
 .text._ZN4mbed4util16FunctionPointer0IvED0Ev
                0x0000000000009368        0xc source/CMakeFiles/robotcode.dir/home/boogle/Final_Year/robotCode/source/app.cpp.o
                0x0000000000009368                mbed::util::FunctionPointer0<void>::~FunctionPointer0()
 .text._ZN4mbed4util19FunctionPointerBaseIvED0Ev
                0x0000000000009374        0xc source/CMakeFiles/robotcode.dir/home/boogle/Final_Year/robotCode/source/app.cpp.o
                0x0000000000009374                mbed::util::FunctionPointerBase<void>::~FunctionPointerBase()
 .text._ZN4mbed4util19FunctionPointerBindIvED0Ev
                0x0000000000009380       0x12 source/CMakeFiles/robotcode.dir/home/boogle/Final_Year/robotCode/source/app.cpp.o
                0x0000000000009380                mbed::util::FunctionPointerBind<void>::~FunctionPointerBind()
 .text._ZN4mbed4util16FunctionPointer3IvNS_6BufferES2_iED0Ev
                0x0000000000009392        0xc source/CMakeFiles/robotcode.dir/home/boogle/Final_Year/robotCode/source/app.cpp.o
                0x0000000000009392                mbed::util::FunctionPointer3<void, mbed::Buffer, mbed::Buffer, int>::~FunctionPointer3()
 .text._ZN4mbed4util16FunctionPointer2IvNS_6BufferEiED0Ev
                0x000000000000939e        0xc source/CMakeFiles/robotcode.dir/home/boogle/Final_Year/robotCode/source/app.cpp.o
                0x000000000000939e                mbed::util::FunctionPointer2<void, mbed::Buffer, int>::~FunctionPointer2()
 .text._ZN4mbed10SerialBaseD0Ev
                0x00000000000093aa       0x12 source/CMakeFiles/robotcode.dir/home/boogle/Final_Year/robotCode/source/app.cpp.o
                0x00000000000093aa                mbed::SerialBase::~SerialBase()
 .text._ZN4mbed4util19FunctionPointerBaseIvE5clearEv
                0x00000000000093bc        0xe source/CMakeFiles/robotcode.dir/home/boogle/Final_Year/robotCode/source/app.cpp.o
                0x00000000000093bc                mbed::util::FunctionPointerBase<void>::clear()
 .text._ZN4mbed6SerialD1Ev
                0x00000000000093ca       0x10 source/CMakeFiles/robotcode.dir/home/boogle/Final_Year/robotCode/source/app.cpp.o
                0x00000000000093ca                non-virtual thunk to mbed::Serial::~Serial()
                0x00000000000093d2                non-virtual thunk to mbed::Serial::~Serial()
 .text._ZN4mbed6SerialD0Ev
                0x00000000000093da       0x1e source/CMakeFiles/robotcode.dir/home/boogle/Final_Year/robotCode/source/app.cpp.o
                0x00000000000093da                mbed::Serial::~Serial()
                0x00000000000093ec                non-virtual thunk to mbed::Serial::~Serial()
                0x00000000000093f2                non-virtual thunk to mbed::Serial::~Serial()
 .text.wait_us  0x00000000000093f8       0x16 ym/mbed-drivers/source/mbed-drivers.a(wait_api.c.o)
                0x00000000000093f8                wait_us
 .text.wait_ms  0x000000000000940e        0xa ym/mbed-drivers/source/mbed-drivers.a(wait_api.c.o)
                0x000000000000940e                wait_ms
 .text._ZN4mbed6Serial5_getcEv
                0x0000000000009418        0x4 ym/mbed-drivers/source/mbed-drivers.a(Serial.cpp.o)
                0x0000000000009418                mbed::Serial::_getc()
 .text._ZThn212_N4mbed6Serial5_getcEv
                0x000000000000941c        0x8 ym/mbed-drivers/source/mbed-drivers.a(Serial.cpp.o)
                0x000000000000941c                non-virtual thunk to mbed::Serial::_getc()
 .text._ZN4mbed6Serial5_putcEi
                0x0000000000009424        0x4 ym/mbed-drivers/source/mbed-drivers.a(Serial.cpp.o)
                0x0000000000009424                mbed::Serial::_putc(int)
 .text._ZThn212_N4mbed6Serial5_putcEi
                0x0000000000009428        0x8 ym/mbed-drivers/source/mbed-drivers.a(Serial.cpp.o)
                0x0000000000009428                non-virtual thunk to mbed::Serial::_putc(int)
 .text.gpio_init_out_ex
                0x0000000000009430       0x2e ym/mbed-drivers/source/mbed-drivers.a(gpio.c.o)
                0x0000000000009430                gpio_init_out_ex
 .text.gpio_init_out
                0x000000000000945e        0x6 ym/mbed-drivers/source/mbed-drivers.a(gpio.c.o)
                0x000000000000945e                gpio_init_out
 .text._ZN4mbed6Stream5closeEv
                0x0000000000009464        0x4 ym/mbed-drivers/source/mbed-drivers.a(Stream.cpp.o)
                0x0000000000009464                mbed::Stream::close()
 .text._ZN4mbed6Stream5writeEPKvj
                0x0000000000009468       0x24 ym/mbed-drivers/source/mbed-drivers.a(Stream.cpp.o)
                0x0000000000009468                mbed::Stream::write(void const*, unsigned int)
 .text._ZN4mbed6Stream4readEPvj
                0x000000000000948c       0x24 ym/mbed-drivers/source/mbed-drivers.a(Stream.cpp.o)
                0x000000000000948c                mbed::Stream::read(void*, unsigned int)
 .text._ZN4mbed6Stream5lseekEli
                0x00000000000094b0        0x4 ym/mbed-drivers/source/mbed-drivers.a(Stream.cpp.o)
                0x00000000000094b0                mbed::Stream::lseek(long, int)
 .text._ZN4mbed6Stream6isattyEv
                0x00000000000094b4        0x4 ym/mbed-drivers/source/mbed-drivers.a(Stream.cpp.o)
                0x00000000000094b4                mbed::Stream::isatty()
 .text._ZN4mbed6Stream5fsyncEv
                0x00000000000094b8        0x4 ym/mbed-drivers/source/mbed-drivers.a(Stream.cpp.o)
                0x00000000000094b8                mbed::Stream::fsync()
 .text._ZN4mbed6Stream4flenEv
                0x00000000000094bc        0x4 ym/mbed-drivers/source/mbed-drivers.a(Stream.cpp.o)
                0x00000000000094bc                mbed::Stream::flen()
 .text._ZN4mbed6Stream4putcEi
                0x00000000000094c0       0x18 ym/mbed-drivers/source/mbed-drivers.a(Stream.cpp.o)
                0x00000000000094c0                mbed::Stream::putc(int)
 .text._ZN4mbed6Stream4getcEv
                0x00000000000094d8       0x14 ym/mbed-drivers/source/mbed-drivers.a(Stream.cpp.o)
                0x00000000000094d8                mbed::Stream::getc()
 .text._ZN4mbed6Stream6printfEPKcz
                0x00000000000094ec       0x28 ym/mbed-drivers/source/mbed-drivers.a(Stream.cpp.o)
                0x00000000000094ec                mbed::Stream::printf(char const*, ...)
 .text._ZN4mbed10FileHandle4flenEv
                0x0000000000009514       0x34 ym/mbed-drivers/source/mbed-drivers.a(retarget.cpp.o)
                0x0000000000009514                mbed::FileHandle::flen()
 .text._ZN4mbed4util16FunctionPointer2IviPPcE16copy_constructorEPvS5_
                0x0000000000009548        0xc ym/mbed-drivers/source/mbed-drivers.a(retarget.cpp.o)
                0x0000000000009548                mbed::util::FunctionPointer2<void, int, char**>::copy_constructor(void*, void*)
 .text._ZN4mbed4util16FunctionPointer2IviPPcE10destructorEPv
                0x0000000000009554        0x2 ym/mbed-drivers/source/mbed-drivers.a(retarget.cpp.o)
                0x0000000000009554                mbed::util::FunctionPointer2<void, int, char**>::destructor(void*)
 .text._ZN4mbed4util16FunctionPointer2IviPPcE12staticcallerEPvS2_S5_
                0x0000000000009556        0x8 ym/mbed-drivers/source/mbed-drivers.a(retarget.cpp.o)
                0x0000000000009556                mbed::util::FunctionPointer2<void, int, char**>::staticcaller(void*, char*, void*)
 .text._fstat   0x000000000000955e       0x1e ym/mbed-drivers/source/mbed-drivers.a(retarget.cpp.o)
                0x000000000000955e                _fstat
 .text.__cxa_pure_virtual
                0x000000000000957c        0x8 ym/mbed-drivers/source/mbed-drivers.a(retarget.cpp.o)
                0x000000000000957c                __cxa_pure_virtual
 .text.__wrap_main
                0x0000000000009584        0xe ym/mbed-drivers/source/mbed-drivers.a(retarget.cpp.o)
                0x0000000000009584                __wrap_main
 .text._exit    0x0000000000009592        0x4 ym/mbed-drivers/source/mbed-drivers.a(retarget.cpp.o)
                0x0000000000009592                _exit
 .text._kill    0x0000000000009596       0x10 ym/mbed-drivers/source/mbed-drivers.a(retarget.cpp.o)
                0x0000000000009596                _kill
 .text._getpid  0x00000000000095a6        0x4 ym/mbed-drivers/source/mbed-drivers.a(retarget.cpp.o)
                0x00000000000095a6                _getpid
 .text._ZN4mbed4util16FunctionPointer3IvNS_6BufferES2_iE12staticcallerEPvPcS4_
                0x00000000000095aa       0x16 ym/mbed-drivers/source/mbed-drivers.a(I2C.cpp.o)
                0x00000000000095aa                mbed::util::FunctionPointer3<void, mbed::Buffer, mbed::Buffer, int>::staticcaller(void*, char*, void*)
 .text._ZN6CThunkIN4mbed3I2CEE10trampolineEPS1_PvPMS1_FvS4_E
                0x00000000000095c0       0x28 ym/mbed-drivers/source/mbed-drivers.a(I2C.cpp.o)
                0x00000000000095c0                CThunk<mbed::I2C>::trampoline(mbed::I2C*, void*, void (mbed::I2C::**)(void*))
 .text._ZN4mbed3I2C5writeEiPKcib
                0x00000000000095e8       0x30 ym/mbed-drivers/source/mbed-drivers.a(I2C.cpp.o)
                0x00000000000095e8                mbed::I2C::write(int, char const*, int, bool)
 .text._ZN4mbed3I2C4readEiPcib
                0x0000000000009618       0x30 ym/mbed-drivers/source/mbed-drivers.a(I2C.cpp.o)
                0x0000000000009618                mbed::I2C::read(int, char*, int, bool)
 .text._ZN4mbed8FilePathC2EPKc
                0x0000000000009648       0x3c ym/mbed-drivers/source/mbed-drivers.a(FilePath.cpp.o)
                0x0000000000009648                mbed::FilePath::FilePath(char const*)
                0x0000000000009648                mbed::FilePath::FilePath(char const*)
 .text._ZN4mbed8FilePath8fileNameEv
                0x0000000000009684        0x4 ym/mbed-drivers/source/mbed-drivers.a(FilePath.cpp.o)
                0x0000000000009684                mbed::FilePath::fileName()
 .text._ZN4mbed8FilePath12isFileSystemEv
                0x0000000000009688       0x12 ym/mbed-drivers/source/mbed-drivers.a(FilePath.cpp.o)
                0x0000000000009688                mbed::FilePath::isFileSystem()
 .text._ZN4mbed8FilePath10fileSystemEv
                0x000000000000969a        0xe ym/mbed-drivers/source/mbed-drivers.a(FilePath.cpp.o)
                0x000000000000969a                mbed::FilePath::fileSystem()
 .text._ZN4mbed8FilePath6isFileEv
                0x00000000000096a8       0x12 ym/mbed-drivers/source/mbed-drivers.a(FilePath.cpp.o)
                0x00000000000096a8                mbed::FilePath::isFile()
 .text._ZN4mbed8FilePath4fileEv
                0x00000000000096ba       0x12 ym/mbed-drivers/source/mbed-drivers.a(FilePath.cpp.o)
                0x00000000000096ba                mbed::FilePath::file()
 .text._ZN4mbed8FilePath6existsEv
                0x00000000000096cc        0xa ym/mbed-drivers/source/mbed-drivers.a(FilePath.cpp.o)
                0x00000000000096cc                mbed::FilePath::exists()
 .text._ZN5Motor5speedEf
                0x00000000000096d6       0x42 ym/mbed-drivers/source/mbed-drivers.a(Motor.cpp.o)
                0x00000000000096d6                Motor::speed(float)
 .text._ZN8NRF2401P17setDynamicPayloadEv
                0x0000000000009718       0x2a ym/mbed-drivers/source/mbed-drivers.a(NRF2401P.cpp.o)
                0x0000000000009718                NRF2401P::setDynamicPayload()
 .text._ZN8NRF2401P10setTxRetryEcc
                0x0000000000009742       0x38 ym/mbed-drivers/source/mbed-drivers.a(NRF2401P.cpp.o)
                0x0000000000009742                NRF2401P::setTxRetry(char, char)
 .text._ZN8NRF2401P15setAddressWidthEc
                0x000000000000977a       0x44 ym/mbed-drivers/source/mbed-drivers.a(NRF2401P.cpp.o)
                0x000000000000977a                NRF2401P::setAddressWidth(char)
 .text._ZN8NRF2401P11checkStatusEv
                0x00000000000097be       0x14 ym/mbed-drivers/source/mbed-drivers.a(NRF2401P.cpp.o)
                0x00000000000097be                NRF2401P::checkStatus()
 .text._ZN8NRF2401P8isRxDataEv
                0x00000000000097d2       0x12 ym/mbed-drivers/source/mbed-drivers.a(NRF2401P.cpp.o)
                0x00000000000097d2                NRF2401P::isRxData()
 .text._ZN8NRF2401P12setRxAddressExc
                0x00000000000097e4       0x2c ym/mbed-drivers/source/mbed-drivers.a(NRF2401P.cpp.o)
                0x00000000000097e4                NRF2401P::setRxAddress(long long, char)
 .text._ZN8NRF2401P5startEv
                0x0000000000009810       0x52 ym/mbed-drivers/source/mbed-drivers.a(NRF2401P.cpp.o)
                0x0000000000009810                NRF2401P::start()
 .text._ZL16normalize_14bitsRs
                0x0000000000009862       0x16 ym/mbed-drivers/source/mbed-drivers.a(FXOS8700Q.cpp.o)
 .text._ZNK9FXOS8700Q10sampleRateEm
                0x0000000000009878        0x4 ym/mbed-drivers/source/mbed-drivers.a(FXOS8700Q.cpp.o)
                0x0000000000009878                FXOS8700Q::sampleRate(unsigned long) const
 .text._ZN9FXOS8700QD2Ev
                0x000000000000987c        0x2 ym/mbed-drivers/source/mbed-drivers.a(FXOS8700Q.cpp.o)
                0x000000000000987c                FXOS8700Q::~FXOS8700Q()
                0x000000000000987c                FXOS8700Q::~FXOS8700Q()
 .text._ZNK9FXOS8700Q8readRegsEhPhm
                0x000000000000987e       0x2e ym/mbed-drivers/source/mbed-drivers.a(FXOS8700Q.cpp.o)
                0x000000000000987e                FXOS8700Q::readRegs(unsigned char, unsigned char*, unsigned long) const
 .text._ZNK9FXOS8700Q9dataReadyEv
                0x00000000000098ac       0x1a ym/mbed-drivers/source/mbed-drivers.a(FXOS8700Q.cpp.o)
                0x00000000000098ac                FXOS8700Q::dataReady() const
 .text._ZNK22FXOS8700QAccelerometer7getAxisER20motion_data_counts_t
                0x00000000000098c6       0x5a ym/mbed-drivers/source/mbed-drivers.a(FXOS8700Q.cpp.o)
                0x00000000000098c6                FXOS8700QAccelerometer::getAxis(motion_data_counts_t&) const
 .text._ZNK22FXOS8700QAccelerometer7getAxisER19motion_data_units_t
                0x0000000000009920       0x44 ym/mbed-drivers/source/mbed-drivers.a(FXOS8700Q.cpp.o)
                0x0000000000009920                FXOS8700QAccelerometer::getAxis(motion_data_units_t&) const
 .text._ZNK9FXOS8700Q9writeRegsEPhm
                0x0000000000009964       0x18 ym/mbed-drivers/source/mbed-drivers.a(FXOS8700Q.cpp.o)
                0x0000000000009964                FXOS8700Q::writeRegs(unsigned char*, unsigned long) const
 .text._ZNK9FXOS8700Q6enableEv
                0x000000000000997c       0x30 ym/mbed-drivers/source/mbed-drivers.a(FXOS8700Q.cpp.o)
                0x000000000000997c                FXOS8700Q::enable() const
 .text._ZNK9FXOS8700Q7disableEv
                0x00000000000099ac       0x30 ym/mbed-drivers/source/mbed-drivers.a(FXOS8700Q.cpp.o)
                0x00000000000099ac                FXOS8700Q::disable() const
 .text._ZNK9FXOS8700Q13getSensorAxisEh
                0x00000000000099dc       0x1e ym/mbed-drivers/source/mbed-drivers.a(FXOS8700Q.cpp.o)
                0x00000000000099dc                FXOS8700Q::getSensorAxis(unsigned char) const
 .text._ZNK22FXOS8700QAccelerometer4getXERs
                0x00000000000099fa       0x1a ym/mbed-drivers/source/mbed-drivers.a(FXOS8700Q.cpp.o)
                0x00000000000099fa                FXOS8700QAccelerometer::getX(short&) const
 .text._ZNK22FXOS8700QAccelerometer4getYERs
                0x0000000000009a14       0x1a ym/mbed-drivers/source/mbed-drivers.a(FXOS8700Q.cpp.o)
                0x0000000000009a14                FXOS8700QAccelerometer::getY(short&) const
 .text._ZNK22FXOS8700QAccelerometer4getZERs
                0x0000000000009a2e       0x1a ym/mbed-drivers/source/mbed-drivers.a(FXOS8700Q.cpp.o)
                0x0000000000009a2e                FXOS8700QAccelerometer::getZ(short&) const
 .text._ZNK22FXOS8700QAccelerometer4getXERf
                0x0000000000009a48       0x2c ym/mbed-drivers/source/mbed-drivers.a(FXOS8700Q.cpp.o)
                0x0000000000009a48                FXOS8700QAccelerometer::getX(float&) const
 .text._ZNK22FXOS8700QAccelerometer4getYERf
                0x0000000000009a74       0x2c ym/mbed-drivers/source/mbed-drivers.a(FXOS8700Q.cpp.o)
                0x0000000000009a74                FXOS8700QAccelerometer::getY(float&) const
 .text._ZNK22FXOS8700QAccelerometer4getZERf
                0x0000000000009aa0       0x2c ym/mbed-drivers/source/mbed-drivers.a(FXOS8700Q.cpp.o)
                0x0000000000009aa0                FXOS8700QAccelerometer::getZ(float&) const
 .text._ZN4mbed10SerialBase12_irq_handlerEm9SerialIrq
                0x0000000000009acc       0x1e ym/mbed-drivers/source/mbed-drivers.a(SerialBase.cpp.o)
                0x0000000000009acc                mbed::SerialBase::_irq_handler(unsigned long, SerialIrq)
 .text._ZN6CThunkIN4mbed10SerialBaseEE10trampolineEPS1_PvPMS1_FvS4_E
                0x0000000000009aea       0x28 ym/mbed-drivers/source/mbed-drivers.a(SerialBase.cpp.o)
                0x0000000000009aea                CThunk<mbed::SerialBase>::trampoline(mbed::SerialBase*, void*, void (mbed::SerialBase::**)(void*))
 .text._ZN4mbed4util16FunctionPointer2IvNS_6BufferEiE12staticcallerEPvPcS4_
                0x0000000000009b12        0xa ym/mbed-drivers/source/mbed-drivers.a(SerialBase.cpp.o)
                0x0000000000009b12                mbed::util::FunctionPointer2<void, mbed::Buffer, int>::staticcaller(void*, char*, void*)
 .text._ZN4mbed10SerialBase4baudEi
                0x0000000000009b1c       0x12 ym/mbed-drivers/source/mbed-drivers.a(SerialBase.cpp.o)
                0x0000000000009b1c                mbed::SerialBase::baud(int)
 .text._ZN4mbed10SerialBase10_base_getcEv
                0x0000000000009b2e        0x6 ym/mbed-drivers/source/mbed-drivers.a(SerialBase.cpp.o)
                0x0000000000009b2e                mbed::SerialBase::_base_getc()
 .text._ZN4mbed10SerialBase10_base_putcEi
                0x0000000000009b34        0xe ym/mbed-drivers/source/mbed-drivers.a(SerialBase.cpp.o)
                0x0000000000009b34                mbed::SerialBase::_base_putc(int)
 .text._ZN4mbed8FileBaseD0Ev
                0x0000000000009b42       0x12 ym/mbed-drivers/source/mbed-drivers.a(FileBase.cpp.o)
                0x0000000000009b42                mbed::FileBase::~FileBase()
 .text._ZN4mbed8FileBase11getPathTypeEv
                0x0000000000009b54        0x4 ym/mbed-drivers/source/mbed-drivers.a(FileBase.cpp.o)
                0x0000000000009b54                mbed::FileBase::getPathType()
 .text._ZN4mbed3SPID2Ev
                0x0000000000009b58        0x2 ym/mbed-drivers/source/mbed-drivers.a(SPI.cpp.o)
                0x0000000000009b58                mbed::SPI::~SPI()
                0x0000000000009b58                mbed::SPI::~SPI()
 .text._ZN6CThunkIN4mbed3SPIEE10trampolineEPS1_PvPMS1_FvS4_E
                0x0000000000009b5a       0x28 ym/mbed-drivers/source/mbed-drivers.a(SPI.cpp.o)
                0x0000000000009b5a                CThunk<mbed::SPI>::trampoline(mbed::SPI*, void*, void (mbed::SPI::**)(void*))
 .text._ZN4mbed14CircularBufferINS_11TransactionINS_3SPIENS_17TwoWayTransactionINS_4util16FunctionPointer3IvNS_6BufferES6_iEEEEEELm16EmED2Ev
                0x0000000000009b82       0x10 ym/mbed-drivers/source/mbed-drivers.a(SPI.cpp.o)
                0x0000000000009b82                mbed::CircularBuffer<mbed::Transaction<mbed::SPI, mbed::TwoWayTransaction<mbed::util::FunctionPointer3<void, mbed::Buffer, mbed::Buffer, int> > >, 16ul, unsigned long>::~CircularBuffer()
                0x0000000000009b82                mbed::CircularBuffer<mbed::Transaction<mbed::SPI, mbed::TwoWayTransaction<mbed::util::FunctionPointer3<void, mbed::Buffer, mbed::Buffer, int> > >, 16ul, unsigned long>::~CircularBuffer()
 .text._ZN4mbed3SPID0Ev
                0x0000000000009b92        0xc ym/mbed-drivers/source/mbed-drivers.a(SPI.cpp.o)
                0x0000000000009b92                mbed::SPI::~SPI()
 .text._ZN4mbed3SPI5writeEi
                0x0000000000009b9e       0x16 ym/mbed-drivers/source/mbed-drivers.a(SPI.cpp.o)
                0x0000000000009b9e                mbed::SPI::write(int)
 .text._ZN4mbed11TransactionINS_3SPIENS_17TwoWayTransactionINS_4util16FunctionPointer3IvNS_6BufferES5_iEEEEEC2Ev
                0x0000000000009bb4       0x1e ym/mbed-drivers/source/mbed-drivers.a(SPI.cpp.o)
                0x0000000000009bb4                mbed::Transaction<mbed::SPI, mbed::TwoWayTransaction<mbed::util::FunctionPointer3<void, mbed::Buffer, mbed::Buffer, int> > >::Transaction()
                0x0000000000009bb4                mbed::Transaction<mbed::SPI, mbed::TwoWayTransaction<mbed::util::FunctionPointer3<void, mbed::Buffer, mbed::Buffer, int> > >::Transaction()
 .text.mbed_die
                0x0000000000009bd2       0x2c ym/mbed-drivers/source/mbed-drivers.a(board.c.o)
                0x0000000000009bd2                mbed_die
 .text._ZN5minarL21smallestTimeIncrementEmmm
                0x0000000000009bfe       0x26 ym/minar/source/minar.a(minar.cpp.o)
 .text._ZN4mbed4util19CriticalSectionLockC2Ev
                0x0000000000009c24        0xa ym/minar/source/minar.a(minar.cpp.o)
                0x0000000000009c24                mbed::util::CriticalSectionLock::CriticalSectionLock()
                0x0000000000009c24                mbed::util::CriticalSectionLock::CriticalSectionLock()
 .text._ZN5minar9Scheduler13CallbackAdder6periodEm
                0x0000000000009c2e        0x4 ym/minar/source/minar.a(minar.cpp.o)
                0x0000000000009c2e                minar::Scheduler::CallbackAdder::period(unsigned long)
 .text._ZNK5minar13SchedulerData19CallbackNodeCompareclERKPNS_12CallbackNodeES5_
                0x0000000000009c32       0x1c ym/minar/source/minar.a(minar.cpp.o)
                0x0000000000009c32                minar::SchedulerData::CallbackNodeCompare::operator()(minar::CallbackNode* const&, minar::CallbackNode* const&) const
 .text._ZN5minar12millisecondsEm
                0x0000000000009c4e       0x14 ym/minar/source/minar.a(minar.cpp.o)
                0x0000000000009c4e                minar::milliseconds(unsigned long)
 .text._ZN5minar9Scheduler13CallbackAdderC2ERS0_N4mbed4util19FunctionPointerBindIvEE
                0x0000000000009c62       0x22 ym/minar/source/minar.a(minar.cpp.o)
                0x0000000000009c62                minar::Scheduler::CallbackAdder::CallbackAdder(minar::Scheduler&, mbed::util::FunctionPointerBind<void>)
                0x0000000000009c62                minar::Scheduler::CallbackAdder::CallbackAdder(minar::Scheduler&, mbed::util::FunctionPointerBind<void>)
 .text._ZNK4mbed4util5ArrayIPN5minar12CallbackNodeEE19get_element_addressEj
                0x0000000000009c84       0x18 ym/minar/source/minar.a(minar.cpp.o)
                0x0000000000009c84                mbed::util::Array<minar::CallbackNode*>::get_element_address(unsigned int) const
 .text._ZN4mbed4util10BinaryHeapIPN5minar12CallbackNodeENS2_13SchedulerData19CallbackNodeCompareEE5_swapEjj
                0x0000000000009c9c       0x34 ym/minar/source/minar.a(minar.cpp.o)
                0x0000000000009c9c                mbed::util::BinaryHeap<minar::CallbackNode*, minar::SchedulerData::CallbackNodeCompare>::_swap(unsigned int, unsigned int)
 .text._ZN4mbed4util5ArrayIPN5minar12CallbackNodeEE8pop_backEv
                0x0000000000009cd0       0x28 ym/minar/source/minar.a(minar.cpp.o)
                0x0000000000009cd0                mbed::util::Array<minar::CallbackNode*>::pop_back()
 .text._ZN4mbed4util10BinaryHeapIPN5minar12CallbackNodeENS2_13SchedulerData19CallbackNodeCompareEE15_propagate_downEj
                0x0000000000009cf8       0xb0 ym/minar/source/minar.a(minar.cpp.o)
                0x0000000000009cf8                mbed::util::BinaryHeap<minar::CallbackNode*, minar::SchedulerData::CallbackNodeCompare>::_propagate_down(unsigned int)
 .text._ZNK4mbed4util5ArrayIPN5minar12CallbackNodeEE16create_new_arrayEjjPNS5_10array_linkE
                0x0000000000009da8       0x26 ym/minar/source/minar.a(minar.cpp.o)
                0x0000000000009da8                mbed::util::Array<minar::CallbackNode*>::create_new_array(unsigned int, unsigned int, mbed::util::Array<minar::CallbackNode*>::array_link*) const
 .text._ZN5minar9SchedulerC2Ev
                0x0000000000009dce       0x16 ym/minar/source/minar.a(minar.cpp.o)
                0x0000000000009dce                minar::Scheduler::Scheduler()
                0x0000000000009dce                minar::Scheduler::Scheduler()
 .text._ZN4mbed4util10BinaryHeapIPN5minar12CallbackNodeENS2_13SchedulerData19CallbackNodeCompareEE6insertERKS4_
                0x0000000000009de4       0xcc ym/minar/source/minar.a(minar.cpp.o)
                0x0000000000009de4                mbed::util::BinaryHeap<minar::CallbackNode*, minar::SchedulerData::CallbackNodeCompare>::insert(minar::CallbackNode* const&)
 .text._ZN5minar9Scheduler13CallbackAdder9getHandleEv
                0x0000000000009eb0       0x50 ym/minar/source/minar.a(minar.cpp.o)
                0x0000000000009eb0                minar::Scheduler::CallbackAdder::getHandle()
 .text._ZN5minar9Scheduler13CallbackAdderD2Ev
                0x0000000000009f00       0x12 ym/minar/source/minar.a(minar.cpp.o)
                0x0000000000009f00                minar::Scheduler::CallbackAdder::~CallbackAdder()
                0x0000000000009f00                minar::Scheduler::CallbackAdder::~CallbackAdder()
 .text._ZN4mbed4util23ExtendablePoolAllocatorC2Ev
                0x0000000000009f12        0x6 ym/core-util/source/core-util.a(ExtendablePoolAllocator.cpp.o)
                0x0000000000009f12                mbed::util::ExtendablePoolAllocator::ExtendablePoolAllocator()
                0x0000000000009f12                mbed::util::ExtendablePoolAllocator::ExtendablePoolAllocator()
 .text._ZN4mbed4util23ExtendablePoolAllocator4freeEPv
                0x0000000000009f18       0x26 ym/core-util/source/core-util.a(ExtendablePoolAllocator.cpp.o)
                0x0000000000009f18                mbed::util::ExtendablePoolAllocator::free(void*)
 .text._ZNK4mbed4util23ExtendablePoolAllocator15create_new_poolEjPNS1_9pool_linkE
                0x0000000000009f3e       0x44 ym/core-util/source/core-util.a(ExtendablePoolAllocator.cpp.o)
                0x0000000000009f3e                mbed::util::ExtendablePoolAllocator::create_new_pool(unsigned int, mbed::util::ExtendablePoolAllocator::pool_link*) const
 .text._ZN4mbed4util23ExtendablePoolAllocator4initEjjj12UAllocTraitsj
                0x0000000000009f82       0x38 ym/core-util/source/core-util.a(ExtendablePoolAllocator.cpp.o)
                0x0000000000009f82                mbed::util::ExtendablePoolAllocator::init(unsigned int, unsigned int, unsigned int, UAllocTraits, unsigned int)
 .text._ZN4mbed4util23ExtendablePoolAllocator5allocEv
                0x0000000000009fba       0x58 ym/core-util/source/core-util.a(ExtendablePoolAllocator.cpp.o)
                0x0000000000009fba                mbed::util::ExtendablePoolAllocator::alloc()
 .text._ZN4mbed4util13PoolAllocator5allocEv
                0x000000000000a012       0x2c ym/core-util/source/core-util.a(PoolAllocator.cpp.o)
                0x000000000000a012                mbed::util::PoolAllocator::alloc()
 .text._ZNK4mbed4util13PoolAllocator4ownsEPKv
                0x000000000000a03e       0x16 ym/core-util/source/core-util.a(PoolAllocator.cpp.o)
                0x000000000000a03e                mbed::util::PoolAllocator::owns(void const*) const
 .text._ZN4mbed4util13PoolAllocator4freeEPv
                0x000000000000a054       0x2c ym/core-util/source/core-util.a(PoolAllocator.cpp.o)
                0x000000000000a054                mbed::util::PoolAllocator::free(void*)
 .text._ZN4mbed4util13PoolAllocator13get_pool_sizeEjjj
                0x000000000000a080        0xc ym/core-util/source/core-util.a(PoolAllocator.cpp.o)
                0x000000000000a080                mbed::util::PoolAllocator::get_pool_size(unsigned int, unsigned int, unsigned int)
 .text._ZN4mbed4util13PoolAllocator8align_upEmm
                0x000000000000a08c        0xa ym/core-util/source/core-util.a(PoolAllocator.cpp.o)
                0x000000000000a08c                mbed::util::PoolAllocator::align_up(unsigned long, unsigned long)
 .text._ZN4mbed4util13PoolAllocator5_initEv
                0x000000000000a096       0x1e ym/core-util/source/core-util.a(PoolAllocator.cpp.o)
                0x000000000000a096                mbed::util::PoolAllocator::_init()
 .text._ZN4mbed4util13PoolAllocatorC2EPvjjj
                0x000000000000a0b4       0x20 ym/core-util/source/core-util.a(PoolAllocator.cpp.o)
                0x000000000000a0b4                mbed::util::PoolAllocator::PoolAllocator(void*, unsigned int, unsigned int, unsigned int)
                0x000000000000a0b4                mbed::util::PoolAllocator::PoolAllocator(void*, unsigned int, unsigned int, unsigned int)
 .text.UART_HAL_EnableTransmitter
                0x000000000000a0d4       0x18 ym/mbed-hal-ksdk-mcu/source/mbed-hal-ksdk-mcu.a(serial_api.c.o)
 .text.UART_HAL_EnableReceiver
                0x000000000000a0ec       0x18 ym/mbed-hal-ksdk-mcu/source/mbed-hal-ksdk-mcu.a(serial_api.c.o)
 .text.UART_HAL_SetBitCountPerChar
                0x000000000000a104       0x16 ym/mbed-hal-ksdk-mcu/source/mbed-hal-ksdk-mcu.a(serial_api.c.o)
 .text.UART_HAL_SetParityMode
                0x000000000000a11a       0x46 ym/mbed-hal-ksdk-mcu/source/mbed-hal-ksdk-mcu.a(serial_api.c.o)
 .text.UART_HAL_SetStopBitCount
                0x000000000000a160       0x16 ym/mbed-hal-ksdk-mcu/source/mbed-hal-ksdk-mcu.a(serial_api.c.o)
 .text.UART_HAL_GetTxDataRegEmptyIntCmd
                0x000000000000a176       0x1e ym/mbed-hal-ksdk-mcu/source/mbed-hal-ksdk-mcu.a(serial_api.c.o)
 .text.UART_HAL_GetRxDataRegFullIntCmd
                0x000000000000a194       0x1e ym/mbed-hal-ksdk-mcu/source/mbed-hal-ksdk-mcu.a(serial_api.c.o)
 .text.UART_HAL_IsTxDataRegEmpty
                0x000000000000a1b2       0x1e ym/mbed-hal-ksdk-mcu/source/mbed-hal-ksdk-mcu.a(serial_api.c.o)
 .text.UART_HAL_IsRxDataRegFull
                0x000000000000a1d0       0x1e ym/mbed-hal-ksdk-mcu/source/mbed-hal-ksdk-mcu.a(serial_api.c.o)
 .text.UART_HAL_IsRxFifoEmpty
                0x000000000000a1ee       0x20 ym/mbed-hal-ksdk-mcu/source/mbed-hal-ksdk-mcu.a(serial_api.c.o)
 .text.UART_HAL_GetTxDatawordCountInFifo
                0x000000000000a20e       0x12 ym/mbed-hal-ksdk-mcu/source/mbed-hal-ksdk-mcu.a(serial_api.c.o)
 .text.serial_baud
                0x000000000000a220       0x18 ym/mbed-hal-ksdk-mcu/source/mbed-hal-ksdk-mcu.a(serial_api.c.o)
                0x000000000000a220                serial_baud
 .text.serial_readable
                0x000000000000a238       0x24 ym/mbed-hal-ksdk-mcu/source/mbed-hal-ksdk-mcu.a(serial_api.c.o)
                0x000000000000a238                serial_readable
 .text.serial_getc
                0x000000000000a25c       0x20 ym/mbed-hal-ksdk-mcu/source/mbed-hal-ksdk-mcu.a(serial_api.c.o)
                0x000000000000a25c                serial_getc
 .text.serial_writable
                0x000000000000a27c        0xe ym/mbed-hal-ksdk-mcu/source/mbed-hal-ksdk-mcu.a(serial_api.c.o)
                0x000000000000a27c                serial_writable
 .text.serial_putc
                0x000000000000a28a       0x1c ym/mbed-hal-ksdk-mcu/source/mbed-hal-ksdk-mcu.a(serial_api.c.o)
                0x000000000000a28a                serial_putc
 .text.CLOCK_HAL_GetClkSrcMode
                0x000000000000a2a6       0x12 ym/mbed-hal-ksdk-mcu/source/mbed-hal-ksdk-mcu.a(fsl_mcg_hal.c.o)
 .text.CLOCK_HAL_GetOscselMode
                0x000000000000a2b8       0x14 ym/mbed-hal-ksdk-mcu/source/mbed-hal-ksdk-mcu.a(fsl_mcg_hal.c.o)
 .text.CLOCK_HAL_GetFllClk
                0x000000000000a2cc       0x8a ym/mbed-hal-ksdk-mcu/source/mbed-hal-ksdk-mcu.a(fsl_mcg_hal.c.o)
                0x000000000000a2cc                CLOCK_HAL_GetFllClk
 .text.I2C_HAL_SendAck
                0x000000000000a356       0x18 ym/mbed-hal-ksdk-mcu/source/mbed-hal-ksdk-mcu.a(i2c_api.c.o)
 .text.I2C_HAL_SendNak
                0x000000000000a36e       0x18 ym/mbed-hal-ksdk-mcu/source/mbed-hal-ksdk-mcu.a(i2c_api.c.o)
 .text.I2C_HAL_SetDirMode
                0x000000000000a386       0x16 ym/mbed-hal-ksdk-mcu/source/mbed-hal-ksdk-mcu.a(i2c_api.c.o)
 .text.I2C_HAL_ReadByte
                0x000000000000a39c       0x12 ym/mbed-hal-ksdk-mcu/source/mbed-hal-ksdk-mcu.a(i2c_api.c.o)
 .text.I2C_HAL_WriteByte
                0x000000000000a3ae       0x10 ym/mbed-hal-ksdk-mcu/source/mbed-hal-ksdk-mcu.a(i2c_api.c.o)
 .text.I2C_HAL_GetStatusFlag
                0x000000000000a3be       0x18 ym/mbed-hal-ksdk-mcu/source/mbed-hal-ksdk-mcu.a(i2c_api.c.o)
 .text.I2C_HAL_ClearInt
                0x000000000000a3d6       0x18 ym/mbed-hal-ksdk-mcu/source/mbed-hal-ksdk-mcu.a(i2c_api.c.o)
 .text.i2c_do_write
                0x000000000000a3ee       0x3a ym/mbed-hal-ksdk-mcu/source/mbed-hal-ksdk-mcu.a(i2c_api.c.o)
 .text.i2c_do_read
                0x000000000000a428       0x3a ym/mbed-hal-ksdk-mcu/source/mbed-hal-ksdk-mcu.a(i2c_api.c.o)
 .text.PORT_HAL_SetOpenDrainCmd.constprop.1
                0x000000000000a462       0x1c ym/mbed-hal-ksdk-mcu/source/mbed-hal-ksdk-mcu.a(i2c_api.c.o)
 .text.i2c_stop
                0x000000000000a47e       0x5e ym/mbed-hal-ksdk-mcu/source/mbed-hal-ksdk-mcu.a(i2c_api.c.o)
                0x000000000000a47e                i2c_stop
 .text.i2c_frequency
                0x000000000000a4dc       0x26 ym/mbed-hal-ksdk-mcu/source/mbed-hal-ksdk-mcu.a(i2c_api.c.o)
                0x000000000000a4dc                i2c_frequency
 .text.i2c_read
                0x000000000000a502       0x80 ym/mbed-hal-ksdk-mcu/source/mbed-hal-ksdk-mcu.a(i2c_api.c.o)
                0x000000000000a502                i2c_read
 .text.i2c_write
                0x000000000000a582       0x54 ym/mbed-hal-ksdk-mcu/source/mbed-hal-ksdk-mcu.a(i2c_api.c.o)
                0x000000000000a582                i2c_write
 .text.UART_HAL_Init
                0x000000000000a5d6      0x110 ym/mbed-hal-ksdk-mcu/source/mbed-hal-ksdk-mcu.a(fsl_uart_hal.c.o)
                0x000000000000a5d6                UART_HAL_Init
 .text.UART_HAL_SetBaudRate
                0x000000000000a6e6       0x86 ym/mbed-hal-ksdk-mcu/source/mbed-hal-ksdk-mcu.a(fsl_uart_hal.c.o)
                0x000000000000a6e6                UART_HAL_SetBaudRate
 .text.UART_HAL_Putchar
                0x000000000000a76c       0x20 ym/mbed-hal-ksdk-mcu/source/mbed-hal-ksdk-mcu.a(fsl_uart_hal.c.o)
                0x000000000000a76c                UART_HAL_Putchar
 .text.UART_HAL_Getchar
                0x000000000000a78c       0x22 ym/mbed-hal-ksdk-mcu/source/mbed-hal-ksdk-mcu.a(fsl_uart_hal.c.o)
                0x000000000000a78c                UART_HAL_Getchar
 .text.UART_HAL_GetStatusFlag
                0x000000000000a7ae       0x38 ym/mbed-hal-ksdk-mcu/source/mbed-hal-ksdk-mcu.a(fsl_uart_hal.c.o)
                0x000000000000a7ae                UART_HAL_GetStatusFlag
 .text.UART_HAL_ClearStatusFlag
                0x000000000000a7e6       0xd2 ym/mbed-hal-ksdk-mcu/source/mbed-hal-ksdk-mcu.a(fsl_uart_hal.c.o)
                0x000000000000a7e6                UART_HAL_ClearStatusFlag
 .text.UART_HAL_ClearAllNonAutoclearStatusFlags
                0x000000000000a8b8       0x56 ym/mbed-hal-ksdk-mcu/source/mbed-hal-ksdk-mcu.a(fsl_uart_hal.c.o)
                0x000000000000a8b8                UART_HAL_ClearAllNonAutoclearStatusFlags
 .text.UART_HAL_SetTxFifoCmd
                0x000000000000a90e       0x4a ym/mbed-hal-ksdk-mcu/source/mbed-hal-ksdk-mcu.a(fsl_uart_hal.c.o)
                0x000000000000a90e                UART_HAL_SetTxFifoCmd
 .text.UART_HAL_SetRxFifoCmd
                0x000000000000a958       0x4a ym/mbed-hal-ksdk-mcu/source/mbed-hal-ksdk-mcu.a(fsl_uart_hal.c.o)
                0x000000000000a958                UART_HAL_SetRxFifoCmd
 .text.UART_HAL_FlushTxFifo
                0x000000000000a9a2       0x36 ym/mbed-hal-ksdk-mcu/source/mbed-hal-ksdk-mcu.a(fsl_uart_hal.c.o)
                0x000000000000a9a2                UART_HAL_FlushTxFifo
 .text.UART_HAL_FlushRxFifo
                0x000000000000a9d8       0x36 ym/mbed-hal-ksdk-mcu/source/mbed-hal-ksdk-mcu.a(fsl_uart_hal.c.o)
                0x000000000000a9d8                UART_HAL_FlushRxFifo
 .text.PORT_HAL_SetPullMode
                0x000000000000aa0e       0x1a ym/mbed-hal-ksdk-mcu/source/mbed-hal-ksdk-mcu.a(pinmap.c.o)
 .text.PORT_HAL_SetPullCmd
                0x000000000000aa28       0x1c ym/mbed-hal-ksdk-mcu/source/mbed-hal-ksdk-mcu.a(pinmap.c.o)
 .text.gpio_mode
                0x000000000000aa44        0x6 ym/mbed-hal-ksdk-mcu/source/mbed-hal-ksdk-mcu.a(gpio_api.c.o)
                0x000000000000aa44                gpio_mode
 .text.FTM_HAL_SetClockSource
                0x000000000000aa4a       0x2c ym/mbed-hal-ksdk-mcu/source/mbed-hal-ksdk-mcu.a(pwmout_api.c.o)
 .text.FTM_HAL_GetMod
                0x000000000000aa76       0x12 ym/mbed-hal-ksdk-mcu/source/mbed-hal-ksdk-mcu.a(pwmout_api.c.o)
 .text.FTM_HAL_SetChnCountVal
                0x000000000000aa88       0x16 ym/mbed-hal-ksdk-mcu/source/mbed-hal-ksdk-mcu.a(pwmout_api.c.o)
 .text.FTM_HAL_SetCounter.constprop.1
                0x000000000000aa9e       0x26 ym/mbed-hal-ksdk-mcu/source/mbed-hal-ksdk-mcu.a(pwmout_api.c.o)
 .text.GPIO_HAL_SetPinDir
                0x000000000000aac4       0x42 ym/mbed-hal-ksdk-mcu/source/mbed-hal-ksdk-mcu.a(fsl_gpio_hal.c.o)
                0x000000000000aac4                GPIO_HAL_SetPinDir
 .text.GPIO_HAL_WritePinOutput
                0x000000000000ab06       0x1c ym/mbed-hal-ksdk-mcu/source/mbed-hal-ksdk-mcu.a(fsl_gpio_hal.c.o)
                0x000000000000ab06                GPIO_HAL_WritePinOutput
 .text.DSPI_HAL_GetStatusFlag
                0x000000000000ab22       0x16 ym/mbed-hal-ksdk-mcu/source/mbed-hal-ksdk-mcu.a(spi_api.c.o)
 .text.DSPI_HAL_ClearStatusFlag
                0x000000000000ab38       0x2c ym/mbed-hal-ksdk-mcu/source/mbed-hal-ksdk-mcu.a(spi_api.c.o)
 .text.DSPI_HAL_ReadData
                0x000000000000ab64       0x10 ym/mbed-hal-ksdk-mcu/source/mbed-hal-ksdk-mcu.a(spi_api.c.o)
 .text.spi_master_write
                0x000000000000ab74       0x52 ym/mbed-hal-ksdk-mcu/source/mbed-hal-ksdk-mcu.a(spi_api.c.o)
                0x000000000000ab74                spi_master_write
 .text.FTM_HAL_SetCpwms
                0x000000000000abc6       0x16 ym/mbed-hal-ksdk-mcu/source/mbed-hal-ksdk-mcu.a(fsl_ftm_hal.c.o)
 .text.FTM_HAL_SetChnMSnBAMode
                0x000000000000abdc       0x36 ym/mbed-hal-ksdk-mcu/source/mbed-hal-ksdk-mcu.a(fsl_ftm_hal.c.o)
 .text.FTM_HAL_SetChnEdgeLevel
                0x000000000000ac12       0x36 ym/mbed-hal-ksdk-mcu/source/mbed-hal-ksdk-mcu.a(fsl_ftm_hal.c.o)
 .text.FTM_HAL_GetChnPairIndex
                0x000000000000ac48       0x1e ym/mbed-hal-ksdk-mcu/source/mbed-hal-ksdk-mcu.a(fsl_ftm_hal.c.o)
                0x000000000000ac48                FTM_HAL_GetChnPairIndex
 .text.FTM_HAL_SetDualChnCombineCmd.part.0
                0x000000000000ac66       0x36 ym/mbed-hal-ksdk-mcu/source/mbed-hal-ksdk-mcu.a(fsl_ftm_hal.c.o)
 .text.FTM_HAL_SetDualChnCombineCmd
                0x000000000000ac9c       0x40 ym/mbed-hal-ksdk-mcu/source/mbed-hal-ksdk-mcu.a(fsl_ftm_hal.c.o)
 .text.FTM_HAL_EnablePwmMode
                0x000000000000acdc       0xa8 ym/mbed-hal-ksdk-mcu/source/mbed-hal-ksdk-mcu.a(fsl_ftm_hal.c.o)
                0x000000000000acdc                FTM_HAL_EnablePwmMode
 .text.DSPI_HAL_Enable
                0x000000000000ad84       0x18 ym/mbed-hal-ksdk-mcu/source/mbed-hal-ksdk-mcu.a(fsl_dspi_hal.c.o)
 .text.DSPI_HAL_IsMaster
                0x000000000000ad9c       0x1c ym/mbed-hal-ksdk-mcu/source/mbed-hal-ksdk-mcu.a(fsl_dspi_hal.c.o)
 .text.DSPI_HAL_SetFlushFifoCmd
                0x000000000000adb8       0x2a ym/mbed-hal-ksdk-mcu/source/mbed-hal-ksdk-mcu.a(fsl_dspi_hal.c.o)
                0x000000000000adb8                DSPI_HAL_SetFlushFifoCmd
 .text.DSPI_HAL_SetDataFormat
                0x000000000000ade2       0xf6 ym/mbed-hal-ksdk-mcu/source/mbed-hal-ksdk-mcu.a(fsl_dspi_hal.c.o)
                0x000000000000ade2                DSPI_HAL_SetDataFormat
 .text.DSPI_HAL_SetDelay
                0x000000000000aed8      0x11c ym/mbed-hal-ksdk-mcu/source/mbed-hal-ksdk-mcu.a(fsl_dspi_hal.c.o)
                0x000000000000aed8                DSPI_HAL_SetDelay
 .text.DSPI_HAL_WriteDataMastermode
                0x000000000000aff4       0x42 ym/mbed-hal-ksdk-mcu/source/mbed-hal-ksdk-mcu.a(fsl_dspi_hal.c.o)
                0x000000000000aff4                DSPI_HAL_WriteDataMastermode
 .text.I2C_HAL_Init
                0x000000000000b036       0xb8 ym/mbed-hal-ksdk-mcu/source/mbed-hal-ksdk-mcu.a(fsl_i2c_hal.c.o)
                0x000000000000b036                I2C_HAL_Init
 .text.I2C_HAL_SendStart
                0x000000000000b0ee       0x4e ym/mbed-hal-ksdk-mcu/source/mbed-hal-ksdk-mcu.a(fsl_i2c_hal.c.o)
                0x000000000000b0ee                I2C_HAL_SendStart
 .text._ZN5minar8platform4initEv
                0x000000000000b13c        0x4 ym/minar-platform-mbed/source/minar-platform-mbed.a(mbed_platform.cpp.o)
                0x000000000000b13c                minar::platform::init()
 .text._ZN5minar8platform5sleepEv
                0x000000000000b140       0x14 ym/minar-platform-mbed/source/minar-platform-mbed.a(mbed_platform.cpp.o)
                0x000000000000b140                minar::platform::sleep()
 .text._ZN5minar8platform7getTimeEv
                0x000000000000b154        0x4 ym/minar-platform-mbed/source/minar-platform-mbed.a(mbed_platform.cpp.o)
                0x000000000000b154                minar::platform::getTime()
 .text._ZN5minar8platform14sleepFromUntilEmm
                0x000000000000b158       0x56 ym/minar-platform-mbed/source/minar-platform-mbed.a(mbed_platform.cpp.o)
                0x000000000000b158                minar::platform::sleepFromUntil(unsigned long, unsigned long)
 .text.CLOCK_SYS_GetUartFreq
                0x000000000000b1ae       0x28 ym/mbed-hal-k64f/source/mbed-hal-k64f.a(fsl_clock_K64F12.c.o)
                0x000000000000b1ae                CLOCK_SYS_GetUartFreq
 .text.mbed_hal_init
                0x000000000000b1d6        0x2 ym/mbed-hal-frdm-k64f/source/mbed-hal-frdm-k64f.a(init_api.c.o)
                0x000000000000b1d6                mbed_hal_init
 .text.pinmap_find_peripheral
                0x000000000000b1d8       0x16 ym/mbed-drivers/source/mbed-drivers.a(pinmap_common.c.o)
                0x000000000000b1d8                pinmap_find_peripheral
 .text.ticker_irq_handler
                0x000000000000b1ee       0x48 ym/mbed-drivers/source/mbed-drivers.a(ticker_api.c.o)
                0x000000000000b1ee                ticker_irq_handler
 .text.mbed_exit_sleep
                0x000000000000b236        0x2 ym/mbed-hal-ksdk-mcu/source/mbed-hal-ksdk-mcu.a(sleep.c.o)
                0x000000000000b236                mbed_exit_sleep
 .text.SMC_HAL_SetProtection
                0x000000000000b238       0x40 ym/mbed-hal-ksdk-mcu/source/mbed-hal-ksdk-mcu.a(fsl_smc_hal.c.o)
                0x000000000000b238                SMC_HAL_SetProtection
 .text.LPTMR_HAL_Disable.constprop.5
                0x000000000000b278       0x14 ym/mbed-hal-ksdk-mcu/source/mbed-hal-ksdk-mcu.a(lp_ticker.c.o)
 .text.LPTMR_HAL_Enable.constprop.6
                0x000000000000b28c       0x14 ym/mbed-hal-ksdk-mcu/source/mbed-hal-ksdk-mcu.a(lp_ticker.c.o)
 .text.RTC_HAL_SetSecsReg
                0x000000000000b2a0       0x26 ym/mbed-hal-ksdk-mcu/source/mbed-hal-ksdk-mcu.a(fsl_rtc_hal.c.o)
 .text.RTC_HAL_SetOscillatorCmd
                0x000000000000b2c6       0x16 ym/mbed-hal-ksdk-mcu/source/mbed-hal-ksdk-mcu.a(fsl_rtc_hal.c.o)
 .text.RTC_HAL_Enable
                0x000000000000b2dc        0x6 ym/mbed-hal-ksdk-mcu/source/mbed-hal-ksdk-mcu.a(fsl_rtc_hal.c.o)
                0x000000000000b2dc                RTC_HAL_Enable
 .text.RTC_HAL_Init
                0x000000000000b2e2       0x76 ym/mbed-hal-ksdk-mcu/source/mbed-hal-ksdk-mcu.a(fsl_rtc_hal.c.o)
                0x000000000000b2e2                RTC_HAL_Init
 .text.mbed_ualloc
                0x000000000000b358       0x4e ym/ualloc/source/ualloc.a(ualloc.c.o)
                0x000000000000b358                mbed_ualloc
 .text.dlcalloc
                0x000000000000b3a6       0x40 ym/dlmalloc/source/dlmalloc.a(dlmalloc.c.o)
                0x000000000000b3a6                dlcalloc
 .text.dlrealloc
                0x000000000000b3e6       0x72 ym/dlmalloc/source/dlmalloc.a(dlmalloc.c.o)
                0x000000000000b3e6                dlrealloc
 .text.vIRQ_SetVector
                0x000000000000b458        0x6 ym/uvisor-lib/source/uvisor-lib.a(interrupts.cpp.o)
                0x000000000000b458                vIRQ_SetVector
 .text.uvisor_error
                0x000000000000b45e        0x4 ym/uvisor-lib/source/uvisor-lib.a(error.cpp.o)
                0x000000000000b45e                uvisor_error
 .text._ZdlPv   0x000000000000b462        0x4 /usr/bin/../lib/gcc/arm-none-eabi/4.9.3/../../../../arm-none-eabi/lib/armv7e-m/libstdc++_nano.a(del_op.o)
                0x000000000000b462                operator delete(void*)
 .text._Znwj    0x000000000000b466       0x22 /usr/bin/../lib/gcc/arm-none-eabi/4.9.3/../../../../arm-none-eabi/lib/armv7e-m/libstdc++_nano.a(new_op.o)
                0x000000000000b466                operator new(unsigned int)
 .text.__aeabi_atexit
                0x000000000000b488        0xa /usr/bin/../lib/gcc/arm-none-eabi/4.9.3/../../../../arm-none-eabi/lib/armv7e-m/libstdc++_nano.a(atexit_arm.o)
                0x000000000000b488                __aeabi_atexit
 .text.abort    0x000000000000b492        0xe /usr/bin/../lib/gcc/arm-none-eabi/4.9.3/../../../../arm-none-eabi/lib/armv7e-m/libc_nano.a(lib_a-abort.o)
                0x000000000000b492                abort
 .text.__sflush_r
                0x000000000000b4a0      0x108 /usr/bin/../lib/gcc/arm-none-eabi/4.9.3/../../../../arm-none-eabi/lib/armv7e-m/libc_nano.a(lib_a-fflush.o)
                0x000000000000b4a0                __sflush_r
 .text.__sfmoreglue
                0x000000000000b5a8       0x2c /usr/bin/../lib/gcc/arm-none-eabi/4.9.3/../../../../arm-none-eabi/lib/armv7e-m/libc_nano.a(lib_a-findfp.o)
                0x000000000000b5a8                __sfmoreglue
 .text.__sfp_lock_acquire
                0x000000000000b5d4        0x2 /usr/bin/../lib/gcc/arm-none-eabi/4.9.3/../../../../arm-none-eabi/lib/armv7e-m/libc_nano.a(lib_a-findfp.o)
                0x000000000000b5d4                __sfp_lock_acquire
 .text.__sfp_lock_release
                0x000000000000b5d6        0x2 /usr/bin/../lib/gcc/arm-none-eabi/4.9.3/../../../../arm-none-eabi/lib/armv7e-m/libc_nano.a(lib_a-findfp.o)
                0x000000000000b5d6                __sfp_lock_release
 .text._fseek_r
                0x000000000000b5d8        0x4 /usr/bin/../lib/gcc/arm-none-eabi/4.9.3/../../../../arm-none-eabi/lib/armv7e-m/libc_nano.a(lib_a-fseek.o)
                0x000000000000b5d8                _fseek_r
 .text._fwalk   0x000000000000b5dc       0x38 /usr/bin/../lib/gcc/arm-none-eabi/4.9.3/../../../../arm-none-eabi/lib/armv7e-m/libc_nano.a(lib_a-fwalk.o)
                0x000000000000b5dc                _fwalk
 .text._fwalk_reent
                0x000000000000b614       0x3c /usr/bin/../lib/gcc/arm-none-eabi/4.9.3/../../../../arm-none-eabi/lib/armv7e-m/libc_nano.a(lib_a-fwalk.o)
                0x000000000000b614                _fwalk_reent
 .text.memchr   0x000000000000b650       0x1e /usr/bin/../lib/gcc/arm-none-eabi/4.9.3/../../../../arm-none-eabi/lib/armv7e-m/libc_nano.a(lib_a-memchr.o)
                0x000000000000b650                memchr
 .text.memcpy   0x000000000000b66e       0x16 /usr/bin/../lib/gcc/arm-none-eabi/4.9.3/../../../../arm-none-eabi/lib/armv7e-m/libc_nano.a(lib_a-memcpy.o)
                0x000000000000b66e                memcpy
 .text.memset   0x000000000000b684       0x10 /usr/bin/../lib/gcc/arm-none-eabi/4.9.3/../../../../arm-none-eabi/lib/armv7e-m/libc_nano.a(lib_a-memset.o)
                0x000000000000b684                memset
 .text.__sfputc_r
                0x000000000000b694       0x2c /usr/bin/../lib/gcc/arm-none-eabi/4.9.3/../../../../arm-none-eabi/lib/armv7e-m/libc_nano.a(lib_a-nano-vfprintf.o)
 .text.__sfputs_r
                0x000000000000b6c0       0x24 /usr/bin/../lib/gcc/arm-none-eabi/4.9.3/../../../../arm-none-eabi/lib/armv7e-m/libc_nano.a(lib_a-nano-vfprintf.o)
                0x000000000000b6c0                __sfputs_r
 .text._printf_common
                0x000000000000b6e4       0xea /usr/bin/../lib/gcc/arm-none-eabi/4.9.3/../../../../arm-none-eabi/lib/armv7e-m/libc_nano.a(lib_a-nano-vfprintf_i.o)
                0x000000000000b6e4                _printf_common
 .text.lflush   0x000000000000b7ce       0x12 /usr/bin/../lib/gcc/arm-none-eabi/4.9.3/../../../../arm-none-eabi/lib/armv7e-m/libc_nano.a(lib_a-refill.o)
 .text.__sccl   0x000000000000b7e0       0x64 /usr/bin/../lib/gcc/arm-none-eabi/4.9.3/../../../../arm-none-eabi/lib/armv7e-m/libc_nano.a(lib_a-sccl.o)
                0x000000000000b7e0                __sccl
 .text.setbuf   0x000000000000b844       0x10 /usr/bin/../lib/gcc/arm-none-eabi/4.9.3/../../../../arm-none-eabi/lib/armv7e-m/libc_nano.a(lib_a-setbuf.o)
                0x000000000000b844                setbuf
 .text._raise_r
                0x000000000000b854       0x50 /usr/bin/../lib/gcc/arm-none-eabi/4.9.3/../../../../arm-none-eabi/lib/armv7e-m/libc_nano.a(lib_a-signal.o)
                0x000000000000b854                _raise_r
 .text._getpid_r
                0x000000000000b8a4        0x4 /usr/bin/../lib/gcc/arm-none-eabi/4.9.3/../../../../arm-none-eabi/lib/armv7e-m/libc_nano.a(lib_a-signalr.o)
                0x000000000000b8a4                _getpid_r
 .text.__sread  0x000000000000b8a8       0x22 /usr/bin/../lib/gcc/arm-none-eabi/4.9.3/../../../../arm-none-eabi/lib/armv7e-m/libc_nano.a(lib_a-stdio.o)
                0x000000000000b8a8                __sread
 .text.__seofread
                0x000000000000b8ca        0x4 /usr/bin/../lib/gcc/arm-none-eabi/4.9.3/../../../../arm-none-eabi/lib/armv7e-m/libc_nano.a(lib_a-stdio.o)
                0x000000000000b8ca                __seofread
 .text.__swrite
                0x000000000000b8ce       0x38 /usr/bin/../lib/gcc/arm-none-eabi/4.9.3/../../../../arm-none-eabi/lib/armv7e-m/libc_nano.a(lib_a-stdio.o)
                0x000000000000b8ce                __swrite
 .text.__sseek  0x000000000000b906       0x24 /usr/bin/../lib/gcc/arm-none-eabi/4.9.3/../../../../arm-none-eabi/lib/armv7e-m/libc_nano.a(lib_a-stdio.o)
                0x000000000000b906                __sseek
 .text.__sclose
                0x000000000000b92a        0x8 /usr/bin/../lib/gcc/arm-none-eabi/4.9.3/../../../../arm-none-eabi/lib/armv7e-m/libc_nano.a(lib_a-stdio.o)
                0x000000000000b92a                __sclose
 .text.strcat   0x000000000000b932       0x1e /usr/bin/../lib/gcc/arm-none-eabi/4.9.3/../../../../arm-none-eabi/lib/armv7e-m/libc_nano.a(lib_a-strcat.o)
                0x000000000000b932                strcat
 .text          0x000000000000b950       0x14 /usr/bin/../lib/gcc/arm-none-eabi/4.9.3/../../../../arm-none-eabi/lib/armv7e-m/libc_nano.a(lib_a-strcmp.o)
                0x000000000000b950                strcmp
 .text.strcpy   0x000000000000b964       0x10 /usr/bin/../lib/gcc/arm-none-eabi/4.9.3/../../../../arm-none-eabi/lib/armv7e-m/libc_nano.a(lib_a-strcpy.o)
                0x000000000000b964                strcpy
 .text.strlen   0x000000000000b974       0x10 /usr/bin/../lib/gcc/arm-none-eabi/4.9.3/../../../../arm-none-eabi/lib/armv7e-m/libc_nano.a(lib_a-strlen.o)
                0x000000000000b974                strlen
 .text.strncmp  0x000000000000b984       0x34 /usr/bin/../lib/gcc/arm-none-eabi/4.9.3/../../../../arm-none-eabi/lib/armv7e-m/libc_nano.a(lib_a-strncmp.o)
                0x000000000000b984                strncmp
 .text.__submore
                0x000000000000b9b8       0x76 /usr/bin/../lib/gcc/arm-none-eabi/4.9.3/../../../../arm-none-eabi/lib/armv7e-m/libc_nano.a(lib_a-ungetc.o)
                0x000000000000b9b8                __submore
 .text.__sflags
                0x000000000000ba2e       0x6e /usr/bin/../lib/gcc/arm-none-eabi/4.9.3/../../../../arm-none-eabi/lib/armv7e-m/libc_nano.a(lib_a-flags.o)
                0x000000000000ba2e                __sflags
 .text.memmove  0x000000000000ba9c       0x36 /usr/bin/../lib/gcc/arm-none-eabi/4.9.3/../../../../arm-none-eabi/lib/armv7e-m/libc_nano.a(lib_a-memmove.o)
                0x000000000000ba9c                memmove
 .text.__ssputs_r
                0x000000000000bad2       0xb2 /usr/bin/../lib/gcc/arm-none-eabi/4.9.3/../../../../arm-none-eabi/lib/armv7e-m/libc_nano.a(lib_a-nano-svfprintf.o)
                0x000000000000bad2                __ssputs_r
 .text._sungetc_r
                0x000000000000bb84       0x7a /usr/bin/../lib/gcc/arm-none-eabi/4.9.3/../../../../arm-none-eabi/lib/armv7e-m/libc_nano.a(lib_a-nano-svfscanf.o)
                0x000000000000bb84                _sungetc_r
 .text.__ssrefill_r
                0x000000000000bbfe       0x3a /usr/bin/../lib/gcc/arm-none-eabi/4.9.3/../../../../arm-none-eabi/lib/armv7e-m/libc_nano.a(lib_a-nano-svfscanf.o)
                0x000000000000bbfe                __ssrefill_r
 .text.mbed_krbs
                0x000000000000bc38        0x6 ym/core-util/source/core-util.a(sbrk.cpp.o)
                0x000000000000bc38                mbed_krbs
 .text._ZN4mbed4util10atomic_casImEEbPT_S3_S2_
                0x000000000000bc3e       0x22 ym/core-util/source/core-util.a(atomic_ops.cpp.o)
                0x000000000000bc3e                bool mbed::util::atomic_cas<unsigned long>(unsigned long*, unsigned long*, unsigned long)
 .text._ZN4mbed4util11atomic_incrImEET_PS2_S2_
                0x000000000000bc60       0x12 ym/core-util/source/core-util.a(atomic_ops.cpp.o)
                0x000000000000bc60                unsigned long mbed::util::atomic_incr<unsigned long>(unsigned long*, unsigned long)
 .text._ZN4mbed4util11atomic_decrImEET_PS2_S2_
                0x000000000000bc72       0x12 ym/core-util/source/core-util.a(atomic_ops.cpp.o)
                0x000000000000bc72                unsigned long mbed::util::atomic_decr<unsigned long>(unsigned long*, unsigned long)
 .text.__wrap__malloc_r
                0x000000000000bc84        0xc ym/ualloc/source/ualloc.a(malloc.c.o)
                0x000000000000bc84                __wrap__malloc_r
 .text.__wrap__realloc_r
                0x000000000000bc90        0xe ym/ualloc/source/ualloc.a(malloc.c.o)
                0x000000000000bc90                __wrap__realloc_r
 .text.__wrap__free_r
                0x000000000000bc9e        0x6 ym/ualloc/source/ualloc.a(malloc.c.o)
                0x000000000000bc9e                __wrap__free_r
 *(SORT(.init))
 .init          0x000000000000bca4        0x4 /usr/bin/../lib/gcc/arm-none-eabi/4.9.3/armv7e-m/crti.o
                0x000000000000bca4                _init
 .init          0x000000000000bca8        0x8 /usr/bin/../lib/gcc/arm-none-eabi/4.9.3/armv7e-m/crtn.o
 *(SORT(.fini))
 .fini          0x000000000000bcb0        0x4 /usr/bin/../lib/gcc/arm-none-eabi/4.9.3/armv7e-m/crti.o
                0x000000000000bcb0                _fini
 .fini          0x000000000000bcb4        0x8 /usr/bin/../lib/gcc/arm-none-eabi/4.9.3/armv7e-m/crtn.o
 *crtbegin.o(SORT(.ctors))
 *crtbegin?.o(SORT(.ctors))
 *(SORT(EXCLUDE_FILE(*crtend.o *crtend?.o) .ctors))
 *(SORT(.ctors.*))
 *(SORT(.ctors))
 *crtbegin.o(SORT(.dtors))
 *crtbegin?.o(SORT(.dtors))
 *(SORT(EXCLUDE_FILE(*crtend.o *crtend?.o) .dtors))
 *(SORT(.dtors.*))
 *(SORT(.dtors))
 *(SORT(.rodata*))
 *fill*         0x000000000000bcbc        0x4 
 .rodata._ZTVN4mbed4util19FunctionPointerBindIvEE
                0x000000000000bcc0       0x14 source/CMakeFiles/robotcode.dir/home/boogle/Final_Year/robotCode/source/app.cpp.o
                0x000000000000bcc0                vtable for mbed::util::FunctionPointerBind<void>
 *fill*         0x000000000000bcd4        0x4 
 .rodata._ZTVN4mbed10SerialBaseE
                0x000000000000bcd8       0x10 source/CMakeFiles/robotcode.dir/home/boogle/Final_Year/robotCode/source/app.cpp.o
                0x000000000000bcd8                vtable for mbed::SerialBase
 .rodata._ZTVN4mbed6SerialE
                0x000000000000bce8       0x5c ym/mbed-drivers/source/mbed-drivers.a(Serial.cpp.o)
                0x000000000000bce8                vtable for mbed::Serial
 *fill*         0x000000000000bd44        0x4 
 .rodata._ZTVN4mbed6StreamE
                0x000000000000bd48       0x44 ym/mbed-drivers/source/mbed-drivers.a(Stream.cpp.o)
                0x000000000000bd48                vtable for mbed::Stream
 *fill*         0x000000000000bd8c        0x4 
 .rodata._ZTVN4mbed10FileHandleE
                0x000000000000bd90       0x2c ym/mbed-drivers/source/mbed-drivers.a(retarget.cpp.o)
                0x000000000000bd90                vtable for mbed::FileHandle
 *fill*         0x000000000000bdbc        0x4 
 .rodata._ZTVN4mbed4util16FunctionPointer3IvNS_6BufferES2_iEE
                0x000000000000bdc0       0x14 ym/mbed-drivers/source/mbed-drivers.a(I2C.cpp.o)
                0x000000000000bdc0                vtable for mbed::util::FunctionPointer3<void, mbed::Buffer, mbed::Buffer, int>
 *fill*         0x000000000000bdd4        0x4 
 .rodata._ZTV22FXOS8700QAccelerometer
                0x000000000000bdd8       0x38 ym/mbed-drivers/source/mbed-drivers.a(FXOS8700Q.cpp.o)
                0x000000000000bdd8                vtable for FXOS8700QAccelerometer
 .rodata._ZTV9FXOS8700Q
                0x000000000000be10       0x38 ym/mbed-drivers/source/mbed-drivers.a(FXOS8700Q.cpp.o)
                0x000000000000be10                vtable for FXOS8700Q
 .rodata._ZTVN4mbed4util19FunctionPointerBaseIvEE
                0x000000000000be48       0x14 ym/mbed-drivers/source/mbed-drivers.a(SerialBase.cpp.o)
                0x000000000000be48                vtable for mbed::util::FunctionPointerBase<void>
 *fill*         0x000000000000be5c        0x4 
 .rodata._ZTVN4mbed4util16FunctionPointer2IvNS_6BufferEiEE
                0x000000000000be60       0x14 ym/mbed-drivers/source/mbed-drivers.a(SerialBase.cpp.o)
                0x000000000000be60                vtable for mbed::util::FunctionPointer2<void, mbed::Buffer, int>
 *fill*         0x000000000000be74        0x4 
 .rodata._ZTVN4mbed4util16FunctionPointer0IvEE
                0x000000000000be78       0x14 ym/mbed-drivers/source/mbed-drivers.a(SerialBase.cpp.o)
                0x000000000000be78                vtable for mbed::util::FunctionPointer0<void>
 *fill*         0x000000000000be8c        0x4 
 .rodata._ZTVN4mbed8FileLikeE
                0x000000000000be90       0x3c ym/mbed-drivers/source/mbed-drivers.a(FileLike.cpp.o)
                0x000000000000be90                vtable for mbed::FileLike
 *fill*         0x000000000000becc        0x4 
 .rodata._ZTVN4mbed8FileBaseE
                0x000000000000bed0       0x10 ym/mbed-drivers/source/mbed-drivers.a(FileBase.cpp.o)
                0x000000000000bed0                vtable for mbed::FileBase
 .rodata._ZTVN4mbed3SPIE
                0x000000000000bee0       0x14 ym/mbed-drivers/source/mbed-drivers.a(SPI.cpp.o)
                0x000000000000bee0                vtable for mbed::SPI
 .rodata._ZN4mbed4util19FunctionPointerBaseIvE8_nullopsE
                0x000000000000bef4        0x8 source/CMakeFiles/robotcode.dir/home/boogle/Final_Year/robotCode/source/app.cpp.o
                0x000000000000bef4                mbed::util::FunctionPointerBase<void>::_nullops
 .rodata        0x000000000000befc       0x14 source/CMakeFiles/robotcode.dir/home/boogle/Final_Year/robotCode/source/app.cpp.o
 .rodata        0x000000000000bf10       0x14 ym/mbed-drivers/source/mbed-drivers.a(gpio.c.o)
 .rodata._ZN4mbed4util16FunctionPointer2IviPPcE8_fp2_opsE
                0x000000000000bf24        0x8 ym/mbed-drivers/source/mbed-drivers.a(retarget.cpp.o)
                0x000000000000bf24                mbed::util::FunctionPointer2<void, int, char**>::_fp2_ops
 .rodata        0x000000000000bf2c       0x14 ym/mbed-drivers/source/mbed-drivers.a(Motor.cpp.o)
 .rodata        0x000000000000bf40       0x14 ym/mbed-drivers/source/mbed-drivers.a(NRF2401P.cpp.o)
 .rodata        0x000000000000bf54       0x14 ym/mbed-drivers/source/mbed-drivers.a(board.c.o)
 .rodata        0x000000000000bf68       0x18 ym/mbed-hal-ksdk-mcu/source/mbed-hal-ksdk-mcu.a(serial_api.c.o)
 .rodata.g_simBaseAddr
                0x000000000000bf80        0x4 ym/mbed-hal-ksdk-mcu/source/mbed-hal-ksdk-mcu.a(fsl_clock_manager.c.o)
                0x000000000000bf80                g_simBaseAddr
 .rodata        0x000000000000bf84       0x23 ym/mbed-hal-ksdk-mcu/source/mbed-hal-ksdk-mcu.a(i2c_api.c.o)
 *fill*         0x000000000000bfa7        0x1 
 .rodata        0x000000000000bfa8       0x14 ym/mbed-hal-ksdk-mcu/source/mbed-hal-ksdk-mcu.a(pinmap.c.o)
 .rodata        0x000000000000bfbc       0x28 ym/mbed-hal-ksdk-mcu/source/mbed-hal-ksdk-mcu.a(gpio_api.c.o)
 .rodata        0x000000000000bfe4       0x10 ym/mbed-hal-ksdk-mcu/source/mbed-hal-ksdk-mcu.a(pwmout_api.c.o)
 .rodata        0x000000000000bff4        0xf ym/mbed-hal-ksdk-mcu/source/mbed-hal-ksdk-mcu.a(spi_api.c.o)
 *fill*         0x000000000000c003        0x1 
 .rodata.s_baudrateScaler
                0x000000000000c004       0x40 ym/mbed-hal-ksdk-mcu/source/mbed-hal-ksdk-mcu.a(fsl_dspi_hal.c.o)
 .rodata.s_baudratePrescaler
                0x000000000000c044       0x10 ym/mbed-hal-ksdk-mcu/source/mbed-hal-ksdk-mcu.a(fsl_dspi_hal.c.o)
 .rodata.s_delayScaler
                0x000000000000c054       0x40 ym/mbed-hal-ksdk-mcu/source/mbed-hal-ksdk-mcu.a(fsl_dspi_hal.c.o)
 .rodata.s_delayPrescaler
                0x000000000000c094       0x10 ym/mbed-hal-ksdk-mcu/source/mbed-hal-ksdk-mcu.a(fsl_dspi_hal.c.o)
 .rodata.PinMap_SPI_MISO
                0x000000000000c0a4       0x6c ym/mbed-hal-frdm-k64f/source/mbed-hal-frdm-k64f.a(PeripheralPins.c.o)
                0x000000000000c0a4                PinMap_SPI_MISO
 .rodata.PinMap_SPI_SCLK
                0x000000000000c110       0x60 ym/mbed-hal-frdm-k64f/source/mbed-hal-frdm-k64f.a(PeripheralPins.c.o)
                0x000000000000c110                PinMap_SPI_SCLK
 .rodata.PinMap_I2C_SDA
                0x000000000000c170       0x60 ym/mbed-hal-frdm-k64f/source/mbed-hal-frdm-k64f.a(PeripheralPins.c.o)
                0x000000000000c170                PinMap_I2C_SDA
 .rodata.PinMap_UART_RX
                0x000000000000c1d0       0x90 ym/mbed-hal-frdm-k64f/source/mbed-hal-frdm-k64f.a(PeripheralPins.c.o)
                0x000000000000c1d0                PinMap_UART_RX
 .rodata.PinMap_PWM
                0x000000000000c260      0x1d4 ym/mbed-hal-frdm-k64f/source/mbed-hal-frdm-k64f.a(PeripheralPins.c.o)
                0x000000000000c260                PinMap_PWM
 .rodata.PinMap_I2C_SCL
                0x000000000000c434       0x6c ym/mbed-hal-frdm-k64f/source/mbed-hal-frdm-k64f.a(PeripheralPins.c.o)
                0x000000000000c434                PinMap_I2C_SCL
 .rodata.PinMap_UART_TX
                0x000000000000c4a0       0x90 ym/mbed-hal-frdm-k64f/source/mbed-hal-frdm-k64f.a(PeripheralPins.c.o)
                0x000000000000c4a0                PinMap_UART_TX
 .rodata.PinMap_SPI_MOSI
                0x000000000000c530       0x6c ym/mbed-hal-frdm-k64f/source/mbed-hal-frdm-k64f.a(PeripheralPins.c.o)
                0x000000000000c530                PinMap_SPI_MOSI
 .rodata.us_interface
                0x000000000000c59c       0x14 ym/mbed-drivers/source/mbed-drivers.a(us_ticker_api.c.o)
 .rodata.us_data
                0x000000000000c5b0        0x8 ym/mbed-drivers/source/mbed-drivers.a(us_ticker_api.c.o)
 .rodata.__sf_fake_stdin
                0x000000000000c5b8       0x20 /usr/bin/../lib/gcc/arm-none-eabi/4.9.3/../../../../arm-none-eabi/lib/armv7e-m/libc_nano.a(lib_a-findfp.o)
                0x000000000000c5b8                __sf_fake_stdin
 .rodata.__sf_fake_stdout
                0x000000000000c5d8       0x20 /usr/bin/../lib/gcc/arm-none-eabi/4.9.3/../../../../arm-none-eabi/lib/armv7e-m/libc_nano.a(lib_a-findfp.o)
                0x000000000000c5d8                __sf_fake_stdout
 .rodata.__sf_fake_stderr
                0x000000000000c5f8       0x20 /usr/bin/../lib/gcc/arm-none-eabi/4.9.3/../../../../arm-none-eabi/lib/armv7e-m/libc_nano.a(lib_a-findfp.o)
                0x000000000000c5f8                __sf_fake_stderr
 .rodata._global_impure_ptr
                0x000000000000c618        0x4 /usr/bin/../lib/gcc/arm-none-eabi/4.9.3/../../../../arm-none-eabi/lib/armv7e-m/libc_nano.a(lib_a-impure.o)
                0x000000000000c618                _global_impure_ptr
 .rodata        0x000000000000c61c        0xc /usr/bin/../lib/gcc/arm-none-eabi/4.9.3/../../../../arm-none-eabi/lib/armv7e-m/libc_nano.a(lib_a-nano-vfscanf_i.o)
 .rodata.kI2CDividerTable
                0x000000000000c628       0xc8 ym/mbed-hal-ksdk-mcu/source/mbed-hal-ksdk-mcu.a(fsl_i2c_hal.c.o)
                0x000000000000c628                kI2CDividerTable
 .rodata.str1.1
                0x000000000000c6f0       0x2f source/CMakeFiles/robotcode.dir/home/boogle/Final_Year/robotCode/source/app.cpp.o
 .rodata.str1.1
                0x000000000000c71f        0x7 ym/mbed-drivers/source/mbed-drivers.a(Stream.cpp.o)
 .rodata.__stdin_name
                0x000000000000c726        0x7 ym/mbed-drivers/source/mbed-drivers.a(retarget.cpp.o)
                0x000000000000c726                __stdin_name
 .rodata.__stderr_name
                0x000000000000c72d        0x8 ym/mbed-drivers/source/mbed-drivers.a(retarget.cpp.o)
                0x000000000000c72d                __stderr_name
 .rodata.str1.1
                0x000000000000c735        0xa ym/mbed-drivers/source/mbed-drivers.a(retarget.cpp.o)
                                          0xe (size before relaxing)
 .rodata.__stdout_name
                0x000000000000c73f        0x8 ym/mbed-drivers/source/mbed-drivers.a(retarget.cpp.o)
                0x000000000000c73f                __stdout_name
 .rodata.str1.1
                0x000000000000c747      0x37e ym/mbed-drivers/source/mbed-drivers.a(NRF2401P.cpp.o)
                                        0x388 (size before relaxing)
 .rodata.str1.1
                0x000000000000cac5      0x1a0 ym/minar/source/minar.a(minar.cpp.o)
 .rodata.str1.1
                0x000000000000cc65       0x54 ym/core-util/source/core-util.a(assert_mbed.c.o)
 .rodata.str1.1
                0x000000000000ccb9       0x24 ym/mbed-hal-ksdk-mcu/source/mbed-hal-ksdk-mcu.a(spi_api.c.o)
 .rodata.kClockNameConfigTable
                0x000000000000ccdd       0x12 ym/mbed-hal-k64f/source/mbed-hal-k64f.a(fsl_sim_hal_K64F12.c.o)
                0x000000000000ccdd                kClockNameConfigTable
 .rodata.str1.1
                0x000000000000ccef       0x60 ym/mbed-drivers/source/mbed-drivers.a(pinmap_common.c.o)
 .rodata        0x000000000000cd4f        0x3 ym/mbed-hal-ksdk-mcu/source/mbed-hal-ksdk-mcu.a(sleep.c.o)
 .rodata.str1.1
                0x000000000000cd52        0x2 /usr/bin/../lib/gcc/arm-none-eabi/4.9.3/../../../../arm-none-eabi/lib/armv7e-m/libc_nano.a(lib_a-impure.o)
 .rodata.str1.1
                0x000000000000cd54       0x11 /usr/bin/../lib/gcc/arm-none-eabi/4.9.3/../../../../arm-none-eabi/lib/armv7e-m/libc_nano.a(lib_a-nano-vfprintf.o)
 .rodata.str1.1
                0x000000000000cd65       0x22 /usr/bin/../lib/gcc/arm-none-eabi/4.9.3/../../../../arm-none-eabi/lib/armv7e-m/libc_nano.a(lib_a-nano-vfprintf_i.o)
 .rodata.str1.1
                0x000000000000cd87       0x1b /usr/bin/../lib/gcc/arm-none-eabi/4.9.3/../../../../arm-none-eabi/lib/armv7e-m/libc_nano.a(lib_a-nano-vfscanf_i.o)
 .rodata._ctype_
                0x000000000000cda2      0x101 /usr/bin/../lib/gcc/arm-none-eabi/4.9.3/../../../../arm-none-eabi/lib/armv7e-m/libc_nano.a(lib_a-ctype_.o)
                0x000000000000cda2                _ctype_
 .rodata.str1.1
                0x0000000000000000       0x11 /usr/bin/../lib/gcc/arm-none-eabi/4.9.3/../../../../arm-none-eabi/lib/armv7e-m/libc_nano.a(lib_a-nano-svfprintf.o)
 .rodata.str1.1
                0x0000000000000000        0x4 /usr/bin/../lib/gcc/arm-none-eabi/4.9.3/../../../../arm-none-eabi/lib/armv7e-m/libc_nano.a(lib_a-nano-svfscanf.o)
 *(SORT(.eh_frame*))
 *fill*         0x000000000000cea3        0x1 
 .eh_frame      0x000000000000cea4        0x0 /usr/bin/../lib/gcc/arm-none-eabi/4.9.3/armv7e-m/crtbegin.o
 .eh_frame      0x000000000000cea4       0x28 /usr/bin/../lib/gcc/arm-none-eabi/4.9.3/../../../../arm-none-eabi/lib/armv7e-m/libc_nano.a(lib_a-strcmp.o)
 .eh_frame      0x000000000000cecc        0x4 /usr/bin/../lib/gcc/arm-none-eabi/4.9.3/armv7e-m/crtend.o

.glue_7         0x000000000000ced0        0x0
 .glue_7        0x0000000000000000        0x0 linker stubs

.glue_7t        0x000000000000ced0        0x0
 .glue_7t       0x0000000000000000        0x0 linker stubs

.vfp11_veneer   0x000000000000ced0        0x0
 .vfp11_veneer  0x0000000000000000        0x0 linker stubs

.v4_bx          0x000000000000ced0        0x0
 .v4_bx         0x0000000000000000        0x0 linker stubs

.iplt           0x000000000000ced0        0x0
 .iplt          0x0000000000000000        0x0 /usr/bin/../lib/gcc/arm-none-eabi/4.9.3/armv7e-m/crtbegin.o

.ARM.extab
 *(SORT(.ARM.extab*) SORT(.gnu.linkonce.armextab.*))

.ARM.exidx      0x000000000000ced0        0x8
                0x000000000000ced0                __exidx_start = .
 *(SORT(.ARM.exidx*) SORT(.gnu.linkonce.armexidx.*))
 .ARM.exidx     0x000000000000ced0        0x8 /usr/bin/../lib/gcc/arm-none-eabi/4.9.3/../../../../arm-none-eabi/lib/armv7e-m/crt0.o
 .ARM.exidx     0x000000000000ced8        0x0 /usr/bin/../lib/gcc/arm-none-eabi/4.9.3/armv7e-m/libgcc.a(_divdi3.o)
                                          0x8 (size before relaxing)
 .ARM.exidx     0x000000000000ced8        0x0 /usr/bin/../lib/gcc/arm-none-eabi/4.9.3/armv7e-m/libgcc.a(_udivdi3.o)
                                          0x8 (size before relaxing)
                0x000000000000ced8                __exidx_end = .

.rel.dyn        0x000000000000ced8        0x0
 .rel.iplt      0x0000000000000000        0x0 /usr/bin/../lib/gcc/arm-none-eabi/4.9.3/armv7e-m/crtbegin.o

.stack          0x000000001fff2200     0x8000
                0x000000001fff2200                __StackLimit = .
 *(SORT(.stack*))
 .stack         0x000000001fff2200      0xc00 ym/mbed-hal-k64f/source/mbed-hal-k64f.a(startup_MK64F12.S.obj)
                0x000000001fffa200                . = (. + (0x8000 - (. - __StackLimit)))
 *fill*         0x000000001fff2e00     0x7400 
                0x000000001fffa200                __StackTop = (ADDR (.stack) + SIZEOF (.stack))
                0x000000001fff2200                __StackLimit = ADDR (.stack)
                0x000000001fffa200                PROVIDE (__stack, __StackTop)

.data           0x000000001fffa200       0xa0 load address 0x000000000000ced8
                0x000000000000ced8                PROVIDE (__etext, LOADADDR (.data))
                0x000000001fffa200                __data_start__ = .
 *(SORT(vtable))
 *(SORT(.data*))
 .data.addr1    0x000000001fffa200        0x8 source/CMakeFiles/robotcode.dir/home/boogle/Final_Year/robotCode/source/app.cpp.o
                0x000000001fffa200                addr1
 .data          0x000000001fffa208        0x4 /usr/bin/../lib/gcc/arm-none-eabi/4.9.3/armv7e-m/crtbegin.o
                0x000000001fffa208                __dso_handle
 .data.channel  0x000000001fffa20c        0x4 source/CMakeFiles/robotcode.dir/home/boogle/Final_Year/robotCode/source/app.cpp.o
                0x000000001fffa20c                channel
 .data.lp_compare_value
                0x000000001fffa210        0x4 ym/mbed-hal-ksdk-mcu/source/mbed-hal-ksdk-mcu.a(lp_ticker.c.o)
 .data.impure_data
                0x000000001fffa214       0x60 /usr/bin/../lib/gcc/arm-none-eabi/4.9.3/../../../../arm-none-eabi/lib/armv7e-m/libc_nano.a(lib_a-impure.o)
 .data._impure_ptr
                0x000000001fffa274        0x4 /usr/bin/../lib/gcc/arm-none-eabi/4.9.3/../../../../arm-none-eabi/lib/armv7e-m/libc_nano.a(lib_a-impure.o)
                0x000000001fffa274                _impure_ptr
 .data.__ctype_ptr__
                0x000000001fffa278        0x4 /usr/bin/../lib/gcc/arm-none-eabi/4.9.3/../../../../arm-none-eabi/lib/armv7e-m/libc_nano.a(lib_a-ctype_.o)
                0x000000001fffa278                __ctype_ptr__
 .data.mbed_sbrk_diff
                0x000000001fffa27c        0x4 ym/core-util/source/core-util.a(sbrk.cpp.o)
                0x000000001fffa27c                mbed_sbrk_diff
 .data.mbed_sbrk_ptr
                0x000000001fffa280        0x4 ym/core-util/source/core-util.a(sbrk.cpp.o)
                0x000000001fffa280                mbed_sbrk_ptr
 .data.mbed_krbs_ptr
                0x000000001fffa284        0x4 ym/core-util/source/core-util.a(sbrk.cpp.o)
                0x000000001fffa284                mbed_krbs_ptr
                0x000000001fffa288                . = ALIGN (0x4)
                0x000000001fffa288                PROVIDE (__preinit_array_start, .)
 *(SORT(.preinit_array))
                0x000000001fffa288                PROVIDE (__preinit_array_end, .)
                0x000000001fffa288                . = ALIGN (0x4)
                0x000000001fffa288                PROVIDE (__init_array_start, .)
 *(SORT(.init_array.*))
 *(SORT(.init_array))
 .init_array    0x000000001fffa288        0x4 /usr/bin/../lib/gcc/arm-none-eabi/4.9.3/armv7e-m/crtbegin.o
 .init_array    0x000000001fffa28c        0x4 source/CMakeFiles/robotcode.dir/home/boogle/Final_Year/robotCode/source/app.cpp.o
 .init_array    0x000000001fffa290        0x4 ym/mbed-drivers/source/mbed-drivers.a(SPI.cpp.o)
                0x000000001fffa294                PROVIDE (__init_array_end, .)
                0x000000001fffa294                . = ALIGN (0x4)
                0x000000001fffa294                PROVIDE (__fini_array_start, .)
 *(SORT(.fini_array.*))
 *(SORT(.fini_array))
 .fini_array    0x000000001fffa294        0x4 /usr/bin/../lib/gcc/arm-none-eabi/4.9.3/armv7e-m/crtbegin.o
                0x000000001fffa298                PROVIDE (__fini_array_end, .)
                0x000000001fffa2a0                . = ALIGN (0x20)
 *fill*         0x000000001fffa298        0x8 
                0x000000001fffa2a0                __data_end__ = .

.jcr            0x000000001fffa2a0        0x0 load address 0x000000000000cf78
 .jcr           0x000000001fffa2a0        0x0 /usr/bin/../lib/gcc/arm-none-eabi/4.9.3/armv7e-m/crtbegin.o

.igot.plt       0x000000001fffa2a0        0x0 load address 0x000000000000cf78
 .igot.plt      0x0000000000000000        0x0 /usr/bin/../lib/gcc/arm-none-eabi/4.9.3/armv7e-m/crtbegin.o

.uvisor.secure  0x000000000000cf78        0x8
                0x000000000000cf80                . = ALIGN (0x20)
 *fill*         0x000000000000cf78        0x8 
                0x000000000000cf80                __uvisor_secure_start = .
                0x000000000000cf80                . = ALIGN (0x20)
                0x000000000000cf80                __uvisor_cfgtbl_start = .
 *(SORT(.keep.uvisor.cfgtbl))
                0x000000000000cf80                . = ALIGN (0x20)
                0x000000000000cf80                __uvisor_cfgtbl_end = .
                0x000000000000cf80                __uvisor_cfgtbl_ptr_start = .
 *(SORT(.keep.uvisor.cfgtbl_ptr_first))
 *(SORT(.keep.uvisor.cfgtbl_ptr))
                0x000000000000cf80                __uvisor_cfgtbl_ptr_end = .
                0x000000000000cf80                __uvisor_data_src = .
                0x000000000000cf80                __uvisor_data_start = .
                0x000000000000cf80                __uvisor_data_end = .
                0x000000000000cf80                . = ALIGN (0x20)
                0x000000000000cf80                __uvisor_secure_end = .

.uninitialized  0x000000001fffa2a0        0x0
                0x000000001fffa2a0                . = ALIGN (0x20)
                0x000000001fffa2a0                __uninitialized_start = .
 *(SORT(.uninitialized))
 *(SORT(.keep.uninitialized))
                0x000000001fffa2a0                . = ALIGN (0x20)
                0x000000001fffa2a0                __uninitialized_end = .

.bss            0x000000001fffa2a0      0xc38
                0x000000001fffa2a0                __bss_start__ = .
 *(SORT(.bss*))
 .bss           0x000000001fffa2a0       0x1c /usr/bin/../lib/gcc/arm-none-eabi/4.9.3/armv7e-m/crtbegin.o
 .bss.i2c       0x000000001fffa2bc       0x8c source/CMakeFiles/robotcode.dir/home/boogle/Final_Year/robotCode/source/app.cpp.o
                0x000000001fffa2bc                i2c
 .bss.led       0x000000001fffa348        0x4 source/CMakeFiles/robotcode.dir/home/boogle/Final_Year/robotCode/source/app.cpp.o
                0x000000001fffa348                led
 .bss.acc_data  0x000000001fffa34c        0xc source/CMakeFiles/robotcode.dir/home/boogle/Final_Year/robotCode/source/app.cpp.o
                0x000000001fffa34c                acc_data
 .bss.acc       0x000000001fffa358        0xc source/CMakeFiles/robotcode.dir/home/boogle/Final_Year/robotCode/source/app.cpp.o
                0x000000001fffa358                acc
 .bss.zValue    0x000000001fffa364        0x4 source/CMakeFiles/robotcode.dir/home/boogle/Final_Year/robotCode/source/app.cpp.o
                0x000000001fffa364                zValue
 .bss.pc        0x000000001fffa368       0xec source/CMakeFiles/robotcode.dir/home/boogle/Final_Year/robotCode/source/app.cpp.o
                0x000000001fffa368                pc
 .bss.m         0x000000001fffa454        0xc source/CMakeFiles/robotcode.dir/home/boogle/Final_Year/robotCode/source/app.cpp.o
                0x000000001fffa454                m
 .bss.n         0x000000001fffa460        0xc source/CMakeFiles/robotcode.dir/home/boogle/Final_Year/robotCode/source/app.cpp.o
                0x000000001fffa460                n
 .bss.wireless  0x000000001fffa46c       0x90 source/CMakeFiles/robotcode.dir/home/boogle/Final_Year/robotCode/source/app.cpp.o
                0x000000001fffa46c                wireless
 .bss.yValue    0x000000001fffa4fc        0x4 source/CMakeFiles/robotcode.dir/home/boogle/Final_Year/robotCode/source/app.cpp.o
                0x000000001fffa4fc                yValue
 .bss.xValue    0x000000001fffa500        0x4 source/CMakeFiles/robotcode.dir/home/boogle/Final_Year/robotCode/source/app.cpp.o
                0x000000001fffa500                xValue
 .bss._ZGVZN4mbed16get_stdio_serialEvE12stdio_serial
                0x000000001fffa504        0x4 ym/mbed-drivers/source/mbed-drivers.a(retarget.cpp.o)
 .bss._ZZN4mbed16get_stdio_serialEvE12stdio_serial
                0x000000001fffa508       0xec ym/mbed-drivers/source/mbed-drivers.a(retarget.cpp.o)
 .bss._ZL11filehandles
                0x000000001fffa5f4       0x40 ym/mbed-drivers/source/mbed-drivers.a(retarget.cpp.o)
 .bss._ZN4mbed3I2C6_ownerE
                0x000000001fffa634        0x4 ym/mbed-drivers/source/mbed-drivers.a(I2C.cpp.o)
                0x000000001fffa634                mbed::I2C::_owner
 .bss._ZN4mbed8FileBase5_headE
                0x000000001fffa638        0x4 ym/mbed-drivers/source/mbed-drivers.a(FileBase.cpp.o)
                0x000000001fffa638                mbed::FileBase::_head
 .bss._ZN4mbed3SPI6_ownerE
                0x000000001fffa63c        0x4 ym/mbed-drivers/source/mbed-drivers.a(SPI.cpp.o)
                0x000000001fffa63c                mbed::SPI::_owner
 .bss._ZN4mbed3SPI19_transaction_bufferE
                0x000000001fffa640      0x2cc ym/mbed-drivers/source/mbed-drivers.a(SPI.cpp.o)
                0x000000001fffa640                mbed::SPI::_transaction_buffer
 .bss._ZZN5minar12CallbackNode13get_allocatorEvE9allocator
                0x000000001fffa90c        0x4 ym/minar/source/minar.a(minar.cpp.o)
                0x000000001fffa90c                minar::CallbackNode::get_allocator()::allocator
 .bss._ZGVZN5minar13SchedulerData5startEvE19Warn_Duration_Ticks
                0x000000001fffa910        0x4 ym/minar/source/minar.a(minar.cpp.o)
 .bss._ZZN5minar13SchedulerData5startEvE19Warn_Duration_Ticks
                0x000000001fffa914        0x4 ym/minar/source/minar.a(minar.cpp.o)
 .bss._ZZN5minar13SchedulerData5startEvE14Warn_Lag_Ticks
                0x000000001fffa918        0x4 ym/minar/source/minar.a(minar.cpp.o)
 .bss._ZN5minarL15staticSchedulerE
                0x000000001fffa91c        0x4 ym/minar/source/minar.a(minar.cpp.o)
 .bss._ZGVZN5minar13SchedulerData5startEvE14Warn_Lag_Ticks
                0x000000001fffa920        0x4 ym/minar/source/minar.a(minar.cpp.o)
 .bss.serial_irq_ids
                0x000000001fffa924       0x14 ym/mbed-hal-ksdk-mcu/source/mbed-hal-ksdk-mcu.a(serial_api.c.o)
 .bss.irq_handler
                0x000000001fffa938        0x4 ym/mbed-hal-ksdk-mcu/source/mbed-hal-ksdk-mcu.a(serial_api.c.o)
 .bss.us_ticker_inited
                0x000000001fffa93c        0x4 ym/mbed-hal-ksdk-mcu/source/mbed-hal-ksdk-mcu.a(us_ticker.c.o)
 .bss.pwm_clock_mhz
                0x000000001fffa940        0x4 ym/mbed-hal-ksdk-mcu/source/mbed-hal-ksdk-mcu.a(pwmout_api.c.o)
 .bss.events    0x000000001fffa944        0x8 ym/mbed-drivers/source/mbed-drivers.a(us_ticker_api.c.o)
 .bss.lp_ticker_inited
                0x000000001fffa94c        0x4 ym/mbed-hal-ksdk-mcu/source/mbed-hal-ksdk-mcu.a(lp_ticker.c.o)
 .bss.lp_lptmr_schedule_ticks
                0x000000001fffa950        0x4 ym/mbed-hal-ksdk-mcu/source/mbed-hal-ksdk-mcu.a(lp_ticker.c.o)
 .bss._gm_      0x000000001fffa954      0x1d8 ym/dlmalloc/source/dlmalloc.a(dlmalloc.c.o)
 .bss.mparams   0x000000001fffab2c       0x18 ym/dlmalloc/source/dlmalloc.a(dlmalloc.c.o)
 .bss._ZL17g_memory_position
                0x000000001fffab44        0x4 ym/uvisor-lib/source/uvisor-lib.a(disabled.cpp.o)
 .bss._ZL18g_uvisor_ctx_array
                0x000000001fffab48       0x14 ym/uvisor-lib/source/uvisor-lib.a(disabled.cpp.o)
 .bss._ZL9g_call_sp
                0x000000001fffab5c        0x4 ym/uvisor-lib/source/uvisor-lib.a(disabled.cpp.o)
 .bss.g_uvisor_disabled_vectors
                0x000000001fffab60      0x2b0 ym/uvisor-lib/source/uvisor-lib.a(disabled.cpp.o)
                0x000000001fffab60                g_uvisor_disabled_vectors
 .bss._ZN12_GLOBAL__N_113__new_handlerE
                0x000000001fffae10        0x4 /usr/bin/../lib/gcc/arm-none-eabi/4.9.3/../../../../arm-none-eabi/lib/armv7e-m/libstdc++_nano.a(new_handler.o)
 .bss.raX       0x000000001fffae14        0x2 source/CMakeFiles/robotcode.dir/home/boogle/Final_Year/robotCode/source/app.cpp.o
                0x000000001fffae14                raX
 .bss.raY       0x000000001fffae16        0x2 source/CMakeFiles/robotcode.dir/home/boogle/Final_Year/robotCode/source/app.cpp.o
                0x000000001fffae16                raY
 .bss.raZ       0x000000001fffae18        0x2 source/CMakeFiles/robotcode.dir/home/boogle/Final_Year/robotCode/source/app.cpp.o
                0x000000001fffae18                raZ
 .bss.msg       0x000000001fffae1a       0x40 source/CMakeFiles/robotcode.dir/home/boogle/Final_Year/robotCode/source/app.cpp.o
                0x000000001fffae1a                msg
 .bss.len       0x000000001fffae5a        0x1 source/CMakeFiles/robotcode.dir/home/boogle/Final_Year/robotCode/source/app.cpp.o
                0x000000001fffae5a                len
 .bss.ackData   0x000000001fffae5b       0x20 source/CMakeFiles/robotcode.dir/home/boogle/Final_Year/robotCode/source/app.cpp.o
                0x000000001fffae5b                ackData
 .bss.accelData
                0x000000001fffae7b       0x40 source/CMakeFiles/robotcode.dir/home/boogle/Final_Year/robotCode/source/app.cpp.o
                0x000000001fffae7b                accelData
 .bss._ZZN4mbed16get_stdio_serialEvE17stdio_uart_inited
                0x000000001fffaebb        0x1 ym/mbed-drivers/source/mbed-drivers.a(retarget.cpp.o)
 .bss.lp_ticker_lptmr_scheduled_flag
                0x000000001fffaebc        0x1 ym/mbed-hal-ksdk-mcu/source/mbed-hal-ksdk-mcu.a(lp_ticker.c.o)
 .bss           0x000000001fffaebd        0x4 ym/uvisor-lib/source/uvisor-lib.a(uvisor.o)
                0x000000001fffaebd                uvisor_ctx
 .bss._ZL12g_call_stack
                0x000000001fffaec1       0x10 ym/uvisor-lib/source/uvisor-lib.a(disabled.cpp.o)
 .bss._ZL13g_initialized
                0x000000001fffaed1        0x1 ym/uvisor-lib/source/uvisor-lib.a(disabled.cpp.o)
 *(SORT(COMMON))
 *fill*         0x000000001fffaed2        0x2 
 COMMON         0x000000001fffaed4        0x4 /usr/bin/../lib/gcc/arm-none-eabi/4.9.3/../../../../arm-none-eabi/lib/armv7e-m/libc_nano.a(lib_a-reent.o)
                0x000000001fffaed4                errno
                0x000000001fffaed8                __bss_end__ = .

.heap           0x000000001fffaed8    0x35128
                0x000000001fffaed8                __end__ = .
                0x000000001fffaed8                end = __end__
 *(SORT(.heap*))
 .heap          0x000000001fffaed8      0x400 ym/mbed-hal-k64f/source/mbed-hal-k64f.a(startup_MK64F12.S.obj)
                0x000000001fffaed8                __HeapBase
                0x0000000020030000                . = (. + ((ORIGIN (RAM) + 0x3fe00) - .))
 *fill*         0x000000001fffb2d8    0x34d28 
                0x0000000020030000                __HeapLimit = .
                0x0000000000035128                PROVIDE (__heap_size, SIZEOF (.heap))
                0x000000001fffaed8                PROVIDE (__mbed_sbrk_start, ADDR (.heap))
                0x0000000020030000                PROVIDE (__mbed_krbs_start, (ADDR (.heap) + SIZEOF (.heap)))
                0x0000000000000000                __uvisor_flash_start = ORIGIN (VECTORS)
                0x0000000000100000                __uvisor_flash_end = (ORIGIN (FLASH) + 0xffbf0)
                0x000000001fff0000                __uvisor_sram_start = (ORIGIN (RAM) - 0x200)
                0x0000000020030000                __uvisor_sram_end = (ORIGIN (RAM) + 0x3fe00)
OUTPUT(source/robotcode elf32-littlearm)

.ARM.attributes
                0x0000000000000000       0x2a
 .ARM.attributes
                0x0000000000000000       0x1e /usr/bin/../lib/gcc/arm-none-eabi/4.9.3/armv7e-m/crti.o
 .ARM.attributes
                0x000000000000001e       0x2e /usr/bin/../lib/gcc/arm-none-eabi/4.9.3/armv7e-m/crtbegin.o
 .ARM.attributes
                0x000000000000004c       0x1c /usr/bin/../lib/gcc/arm-none-eabi/4.9.3/../../../../arm-none-eabi/lib/armv7e-m/crt0.o
 .ARM.attributes
                0x0000000000000068       0x33 source/CMakeFiles/robotcode.dir/home/boogle/Final_Year/robotCode/source/app.cpp.o
 .ARM.attributes
                0x000000000000009b       0x33 ym/mbed-drivers/source/mbed-drivers.a(wait_api.c.o)
 .ARM.attributes
                0x00000000000000ce       0x33 ym/mbed-drivers/source/mbed-drivers.a(Serial.cpp.o)
 .ARM.attributes
                0x0000000000000101       0x33 ym/mbed-drivers/source/mbed-drivers.a(gpio.c.o)
 .ARM.attributes
                0x0000000000000134       0x33 ym/mbed-drivers/source/mbed-drivers.a(Stream.cpp.o)
 .ARM.attributes
                0x0000000000000167       0x33 ym/mbed-drivers/source/mbed-drivers.a(retarget.cpp.o)
 .ARM.attributes
                0x000000000000019a       0x33 ym/mbed-drivers/source/mbed-drivers.a(error.c.o)
 .ARM.attributes
                0x00000000000001cd       0x33 ym/mbed-drivers/source/mbed-drivers.a(I2C.cpp.o)
 .ARM.attributes
                0x0000000000000200       0x33 ym/mbed-drivers/source/mbed-drivers.a(exit.c.o)
 .ARM.attributes
                0x0000000000000233       0x33 ym/mbed-drivers/source/mbed-drivers.a(FilePath.cpp.o)
 .ARM.attributes
                0x0000000000000266       0x33 ym/mbed-drivers/source/mbed-drivers.a(Motor.cpp.o)
 .ARM.attributes
                0x0000000000000299       0x33 ym/mbed-drivers/source/mbed-drivers.a(NRF2401P.cpp.o)
 .ARM.attributes
                0x00000000000002cc       0x33 ym/mbed-drivers/source/mbed-drivers.a(FXOS8700Q.cpp.o)
 .ARM.attributes
                0x00000000000002ff       0x33 ym/mbed-drivers/source/mbed-drivers.a(SerialBase.cpp.o)
 .ARM.attributes
                0x0000000000000332       0x33 ym/mbed-drivers/source/mbed-drivers.a(FileLike.cpp.o)
 .ARM.attributes
                0x0000000000000365       0x33 ym/mbed-drivers/source/mbed-drivers.a(FileBase.cpp.o)
 .ARM.attributes
                0x0000000000000398       0x33 ym/mbed-drivers/source/mbed-drivers.a(SPI.cpp.o)
 .ARM.attributes
                0x00000000000003cb       0x33 ym/mbed-drivers/source/mbed-drivers.a(board.c.o)
 .ARM.attributes
                0x00000000000003fe       0x33 ym/minar/source/minar.a(minar.cpp.o)
 .ARM.attributes
                0x0000000000000431       0x33 ym/core-util/source/core-util.a(ExtendablePoolAllocator.cpp.o)
 .ARM.attributes
                0x0000000000000464       0x33 ym/core-util/source/core-util.a(assert_mbed.c.o)
 .ARM.attributes
                0x0000000000000497       0x33 ym/core-util/source/core-util.a(PoolAllocator.cpp.o)
 .ARM.attributes
                0x00000000000004ca       0x33 ym/mbed-hal-ksdk-mcu/source/mbed-hal-ksdk-mcu.a(serial_api.c.o)
 .ARM.attributes
                0x00000000000004fd       0x33 ym/mbed-hal-ksdk-mcu/source/mbed-hal-ksdk-mcu.a(fsl_clock_manager.c.o)
 .ARM.attributes
                0x0000000000000530       0x33 ym/mbed-hal-ksdk-mcu/source/mbed-hal-ksdk-mcu.a(fsl_sim_hal.c.o)
 .ARM.attributes
                0x0000000000000563       0x33 ym/mbed-hal-ksdk-mcu/source/mbed-hal-ksdk-mcu.a(fsl_mcg_hal.c.o)
 .ARM.attributes
                0x0000000000000596       0x33 ym/mbed-hal-ksdk-mcu/source/mbed-hal-ksdk-mcu.a(i2c_api.c.o)
 .ARM.attributes
                0x00000000000005c9       0x33 ym/mbed-hal-ksdk-mcu/source/mbed-hal-ksdk-mcu.a(fsl_uart_hal.c.o)
 .ARM.attributes
                0x00000000000005fc       0x33 ym/mbed-hal-ksdk-mcu/source/mbed-hal-ksdk-mcu.a(pinmap.c.o)
 .ARM.attributes
                0x000000000000062f       0x33 ym/mbed-hal-ksdk-mcu/source/mbed-hal-ksdk-mcu.a(us_ticker.c.o)
 .ARM.attributes
                0x0000000000000662       0x33 ym/mbed-hal-ksdk-mcu/source/mbed-hal-ksdk-mcu.a(gpio_api.c.o)
 .ARM.attributes
                0x0000000000000695       0x33 ym/mbed-hal-ksdk-mcu/source/mbed-hal-ksdk-mcu.a(pwmout_api.c.o)
 .ARM.attributes
                0x00000000000006c8       0x33 ym/mbed-hal-ksdk-mcu/source/mbed-hal-ksdk-mcu.a(fsl_gpio_hal.c.o)
 .ARM.attributes
                0x00000000000006fb       0x33 ym/mbed-hal-ksdk-mcu/source/mbed-hal-ksdk-mcu.a(spi_api.c.o)
 .ARM.attributes
                0x000000000000072e       0x33 ym/mbed-hal-ksdk-mcu/source/mbed-hal-ksdk-mcu.a(fsl_ftm_hal.c.o)
 .ARM.attributes
                0x0000000000000761       0x33 ym/mbed-hal-ksdk-mcu/source/mbed-hal-ksdk-mcu.a(fsl_dspi_hal.c.o)
 .ARM.attributes
                0x0000000000000794       0x33 ym/mbed-hal-ksdk-mcu/source/mbed-hal-ksdk-mcu.a(fsl_i2c_hal.c.o)
 .ARM.attributes
                0x00000000000007c7       0x33 ym/minar-platform-mbed/source/minar-platform-mbed.a(mbed_platform.cpp.o)
 .ARM.attributes
                0x00000000000007fa       0x1b ym/mbed-hal-k64f/source/mbed-hal-k64f.a(startup_MK64F12.S.obj)
 .ARM.attributes
                0x0000000000000815       0x33 ym/mbed-hal-k64f/source/mbed-hal-k64f.a(fsl_clock_K64F12.c.o)
 .ARM.attributes
                0x0000000000000848       0x33 ym/mbed-hal-k64f/source/mbed-hal-k64f.a(fsl_sim_hal_K64F12.c.o)
 .ARM.attributes
                0x000000000000087b       0x33 ym/mbed-hal-frdm-k64f/source/mbed-hal-frdm-k64f.a(init_api.c.o)
 .ARM.attributes
                0x00000000000008ae       0x33 ym/mbed-hal-frdm-k64f/source/mbed-hal-frdm-k64f.a(PeripheralPins.c.o)
 .ARM.attributes
                0x00000000000008e1       0x33 ym/mbed-drivers/source/mbed-drivers.a(us_ticker_api.c.o)
 .ARM.attributes
                0x0000000000000914       0x33 ym/mbed-drivers/source/mbed-drivers.a(pinmap_common.c.o)
 .ARM.attributes
                0x0000000000000947       0x33 ym/mbed-drivers/source/mbed-drivers.a(ticker_api.c.o)
 .ARM.attributes
                0x000000000000097a       0x33 ym/mbed-hal-ksdk-mcu/source/mbed-hal-ksdk-mcu.a(sleep.c.o)
 .ARM.attributes
                0x00000000000009ad       0x33 ym/mbed-hal-ksdk-mcu/source/mbed-hal-ksdk-mcu.a(fsl_smc_hal.c.o)
 .ARM.attributes
                0x00000000000009e0       0x33 ym/mbed-hal-ksdk-mcu/source/mbed-hal-ksdk-mcu.a(lp_ticker.c.o)
 .ARM.attributes
                0x0000000000000a13       0x33 ym/mbed-hal-ksdk-mcu/source/mbed-hal-ksdk-mcu.a(fsl_rtc_hal.c.o)
 .ARM.attributes
                0x0000000000000a46       0x33 ym/ualloc/source/ualloc.a(ualloc.c.o)
 .ARM.attributes
                0x0000000000000a79       0x33 ym/dlmalloc/source/dlmalloc.a(dlmalloc.c.o)
 .ARM.attributes
                0x0000000000000aac       0x33 ym/cmsis-core-k64f/source/cmsis-core-k64f.a(system_MK64F12.c.o)
 .ARM.attributes
                0x0000000000000adf       0x21 ym/uvisor-lib/source/uvisor-lib.a(uvisor.o)
 .ARM.attributes
                0x0000000000000b00       0x33 ym/uvisor-lib/source/uvisor-lib.a(interrupts.cpp.o)
 .ARM.attributes
                0x0000000000000b33       0x33 ym/uvisor-lib/source/uvisor-lib.a(disabled.cpp.o)
 .ARM.attributes
                0x0000000000000b66       0x33 ym/uvisor-lib/source/uvisor-lib.a(error.cpp.o)
 .ARM.attributes
                0x0000000000000b99       0x2e /usr/bin/../lib/gcc/arm-none-eabi/4.9.3/../../../../arm-none-eabi/lib/armv7e-m/libstdc++_nano.a(del_op.o)
 .ARM.attributes
                0x0000000000000bc7       0x2e /usr/bin/../lib/gcc/arm-none-eabi/4.9.3/../../../../arm-none-eabi/lib/armv7e-m/libstdc++_nano.a(new_op.o)
 .ARM.attributes
                0x0000000000000bf5       0x2e /usr/bin/../lib/gcc/arm-none-eabi/4.9.3/../../../../arm-none-eabi/lib/armv7e-m/libstdc++_nano.a(atexit_arm.o)
 .ARM.attributes
                0x0000000000000c23       0x2e /usr/bin/../lib/gcc/arm-none-eabi/4.9.3/../../../../arm-none-eabi/lib/armv7e-m/libstdc++_nano.a(new_handler.o)
 .ARM.attributes
                0x0000000000000c51       0x1e /usr/bin/../lib/gcc/arm-none-eabi/4.9.3/armv7e-m/libgcc.a(_arm_addsubsf3.o)
 .ARM.attributes
                0x0000000000000c6f       0x1e /usr/bin/../lib/gcc/arm-none-eabi/4.9.3/armv7e-m/libgcc.a(_arm_muldivsf3.o)
 .ARM.attributes
                0x0000000000000c8d       0x1e /usr/bin/../lib/gcc/arm-none-eabi/4.9.3/armv7e-m/libgcc.a(_arm_cmpsf2.o)
 .ARM.attributes
                0x0000000000000cab       0x1e /usr/bin/../lib/gcc/arm-none-eabi/4.9.3/armv7e-m/libgcc.a(_arm_fixsfsi.o)
 .ARM.attributes
                0x0000000000000cc9       0x1e /usr/bin/../lib/gcc/arm-none-eabi/4.9.3/armv7e-m/libgcc.a(_arm_fixunssfsi.o)
 .ARM.attributes
                0x0000000000000ce7       0x1e /usr/bin/../lib/gcc/arm-none-eabi/4.9.3/armv7e-m/libgcc.a(_aeabi_uldivmod.o)
 .ARM.attributes
                0x0000000000000d05       0x2e /usr/bin/../lib/gcc/arm-none-eabi/4.9.3/armv7e-m/libgcc.a(bpabi.o)
 .ARM.attributes
                0x0000000000000d33       0x1e /usr/bin/../lib/gcc/arm-none-eabi/4.9.3/armv7e-m/libgcc.a(_dvmd_tls.o)
 .ARM.attributes
                0x0000000000000d51       0x2e /usr/bin/../lib/gcc/arm-none-eabi/4.9.3/armv7e-m/libgcc.a(_divdi3.o)
 .ARM.attributes
                0x0000000000000d7f       0x2e /usr/bin/../lib/gcc/arm-none-eabi/4.9.3/armv7e-m/libgcc.a(_udivdi3.o)
 .ARM.attributes
                0x0000000000000dad       0x2e /usr/bin/../lib/gcc/arm-none-eabi/4.9.3/../../../../arm-none-eabi/lib/armv7e-m/libc_nano.a(lib_a-abort.o)
 .ARM.attributes
                0x0000000000000ddb       0x2e /usr/bin/../lib/gcc/arm-none-eabi/4.9.3/../../../../arm-none-eabi/lib/armv7e-m/libc_nano.a(lib_a-cxa_atexit.o)
 .ARM.attributes
                0x0000000000000e09       0x2e /usr/bin/../lib/gcc/arm-none-eabi/4.9.3/../../../../arm-none-eabi/lib/armv7e-m/libc_nano.a(lib_a-errno.o)
 .ARM.attributes
                0x0000000000000e37       0x2e /usr/bin/../lib/gcc/arm-none-eabi/4.9.3/../../../../arm-none-eabi/lib/armv7e-m/libc_nano.a(lib_a-fclose.o)
 .ARM.attributes
                0x0000000000000e65       0x2e /usr/bin/../lib/gcc/arm-none-eabi/4.9.3/../../../../arm-none-eabi/lib/armv7e-m/libc_nano.a(lib_a-fflush.o)
 .ARM.attributes
                0x0000000000000e93       0x2e /usr/bin/../lib/gcc/arm-none-eabi/4.9.3/../../../../arm-none-eabi/lib/armv7e-m/libc_nano.a(lib_a-fgetc.o)
 .ARM.attributes
                0x0000000000000ec1       0x2e /usr/bin/../lib/gcc/arm-none-eabi/4.9.3/../../../../arm-none-eabi/lib/armv7e-m/libc_nano.a(lib_a-findfp.o)
 .ARM.attributes
                0x0000000000000eef       0x2e /usr/bin/../lib/gcc/arm-none-eabi/4.9.3/../../../../arm-none-eabi/lib/armv7e-m/libc_nano.a(lib_a-fopen.o)
 .ARM.attributes
                0x0000000000000f1d       0x2e /usr/bin/../lib/gcc/arm-none-eabi/4.9.3/../../../../arm-none-eabi/lib/armv7e-m/libc_nano.a(lib_a-fprintf.o)
 .ARM.attributes
                0x0000000000000f4b       0x2e /usr/bin/../lib/gcc/arm-none-eabi/4.9.3/../../../../arm-none-eabi/lib/armv7e-m/libc_nano.a(lib_a-fputc.o)
 .ARM.attributes
                0x0000000000000f79       0x2e /usr/bin/../lib/gcc/arm-none-eabi/4.9.3/../../../../arm-none-eabi/lib/armv7e-m/libc_nano.a(lib_a-fseek.o)
 .ARM.attributes
                0x0000000000000fa7       0x2e /usr/bin/../lib/gcc/arm-none-eabi/4.9.3/../../../../arm-none-eabi/lib/armv7e-m/libc_nano.a(lib_a-fseeko.o)
 .ARM.attributes
                0x0000000000000fd5       0x2e /usr/bin/../lib/gcc/arm-none-eabi/4.9.3/../../../../arm-none-eabi/lib/armv7e-m/libc_nano.a(lib_a-fwalk.o)
 .ARM.attributes
                0x0000000000001003       0x2e /usr/bin/../lib/gcc/arm-none-eabi/4.9.3/../../../../arm-none-eabi/lib/armv7e-m/libc_nano.a(lib_a-impure.o)
 .ARM.attributes
                0x0000000000001031       0x2e /usr/bin/../lib/gcc/arm-none-eabi/4.9.3/../../../../arm-none-eabi/lib/armv7e-m/libc_nano.a(lib_a-init.o)
 .ARM.attributes
                0x000000000000105f       0x2e /usr/bin/../lib/gcc/arm-none-eabi/4.9.3/../../../../arm-none-eabi/lib/armv7e-m/libc_nano.a(lib_a-makebuf.o)
 .ARM.attributes
                0x000000000000108d       0x2e /usr/bin/../lib/gcc/arm-none-eabi/4.9.3/../../../../arm-none-eabi/lib/armv7e-m/libc_nano.a(lib_a-malloc.o)
 .ARM.attributes
                0x00000000000010bb       0x2e /usr/bin/../lib/gcc/arm-none-eabi/4.9.3/../../../../arm-none-eabi/lib/armv7e-m/libc_nano.a(lib_a-memchr.o)
 .ARM.attributes
                0x00000000000010e9       0x2e /usr/bin/../lib/gcc/arm-none-eabi/4.9.3/../../../../arm-none-eabi/lib/armv7e-m/libc_nano.a(lib_a-memcpy.o)
 .ARM.attributes
                0x0000000000001117       0x2e /usr/bin/../lib/gcc/arm-none-eabi/4.9.3/../../../../arm-none-eabi/lib/armv7e-m/libc_nano.a(lib_a-memset.o)
 .ARM.attributes
                0x0000000000001145       0x2e /usr/bin/../lib/gcc/arm-none-eabi/4.9.3/../../../../arm-none-eabi/lib/armv7e-m/libc_nano.a(lib_a-nano-vfprintf.o)
 .ARM.attributes
                0x0000000000001173       0x2e /usr/bin/../lib/gcc/arm-none-eabi/4.9.3/../../../../arm-none-eabi/lib/armv7e-m/libc_nano.a(lib_a-nano-vfprintf_i.o)
 .ARM.attributes
                0x00000000000011a1       0x2e /usr/bin/../lib/gcc/arm-none-eabi/4.9.3/../../../../arm-none-eabi/lib/armv7e-m/libc_nano.a(lib_a-nano-vfscanf_i.o)
 .ARM.attributes
                0x00000000000011cf       0x2e /usr/bin/../lib/gcc/arm-none-eabi/4.9.3/../../../../arm-none-eabi/lib/armv7e-m/libc_nano.a(lib_a-openr.o)
 .ARM.attributes
                0x00000000000011fd       0x2e /usr/bin/../lib/gcc/arm-none-eabi/4.9.3/../../../../arm-none-eabi/lib/armv7e-m/libc_nano.a(lib_a-printf.o)
 .ARM.attributes
                0x000000000000122b       0x2e /usr/bin/../lib/gcc/arm-none-eabi/4.9.3/../../../../arm-none-eabi/lib/armv7e-m/libc_nano.a(lib_a-putc.o)
 .ARM.attributes
                0x0000000000001259       0x2e /usr/bin/../lib/gcc/arm-none-eabi/4.9.3/../../../../arm-none-eabi/lib/armv7e-m/libc_nano.a(lib_a-reent.o)
 .ARM.attributes
                0x0000000000001287       0x2e /usr/bin/../lib/gcc/arm-none-eabi/4.9.3/../../../../arm-none-eabi/lib/armv7e-m/libc_nano.a(lib_a-refill.o)
 .ARM.attributes
                0x00000000000012b5       0x2e /usr/bin/../lib/gcc/arm-none-eabi/4.9.3/../../../../arm-none-eabi/lib/armv7e-m/libc_nano.a(lib_a-rget.o)
 .ARM.attributes
                0x00000000000012e3       0x2e /usr/bin/../lib/gcc/arm-none-eabi/4.9.3/../../../../arm-none-eabi/lib/armv7e-m/libc_nano.a(lib_a-sccl.o)
 .ARM.attributes
                0x0000000000001311       0x2e /usr/bin/../lib/gcc/arm-none-eabi/4.9.3/../../../../arm-none-eabi/lib/armv7e-m/libc_nano.a(lib_a-setbuf.o)
 .ARM.attributes
                0x000000000000133f       0x2e /usr/bin/../lib/gcc/arm-none-eabi/4.9.3/../../../../arm-none-eabi/lib/armv7e-m/libc_nano.a(lib_a-setvbuf.o)
 .ARM.attributes
                0x000000000000136d       0x2e /usr/bin/../lib/gcc/arm-none-eabi/4.9.3/../../../../arm-none-eabi/lib/armv7e-m/libc_nano.a(lib_a-signal.o)
 .ARM.attributes
                0x000000000000139b       0x2e /usr/bin/../lib/gcc/arm-none-eabi/4.9.3/../../../../arm-none-eabi/lib/armv7e-m/libc_nano.a(lib_a-signalr.o)
 .ARM.attributes
                0x00000000000013c9       0x2e /usr/bin/../lib/gcc/arm-none-eabi/4.9.3/../../../../arm-none-eabi/lib/armv7e-m/libc_nano.a(lib_a-sprintf.o)
 .ARM.attributes
                0x00000000000013f7       0x2e /usr/bin/../lib/gcc/arm-none-eabi/4.9.3/../../../../arm-none-eabi/lib/armv7e-m/libc_nano.a(lib_a-sscanf.o)
 .ARM.attributes
                0x0000000000001425       0x2e /usr/bin/../lib/gcc/arm-none-eabi/4.9.3/../../../../arm-none-eabi/lib/armv7e-m/libc_nano.a(lib_a-stdio.o)
 .ARM.attributes
                0x0000000000001453       0x2e /usr/bin/../lib/gcc/arm-none-eabi/4.9.3/../../../../arm-none-eabi/lib/armv7e-m/libc_nano.a(lib_a-strcat.o)
 .ARM.attributes
                0x0000000000001481       0x1c /usr/bin/../lib/gcc/arm-none-eabi/4.9.3/../../../../arm-none-eabi/lib/armv7e-m/libc_nano.a(lib_a-strcmp.o)
 .ARM.attributes
